{
  "contractName": "EthSwap",
  "abi": [
    {
      "inputs": [
        {
          "internalType": "contract Token",
          "name": "_token",
          "type": "address"
        },
        {
          "internalType": "contract Token2",
          "name": "_ucanu",
          "type": "address"
        },
        {
          "internalType": "contract Token3",
          "name": "_ucane",
          "type": "address"
        }
      ],
      "payable": false,
      "stateMutability": "nonpayable",
      "type": "constructor"
    },
    {
      "anonymous": false,
      "inputs": [
        {
          "indexed": false,
          "internalType": "bool",
          "name": "matchResult",
          "type": "bool"
        }
      ],
      "name": "placeOrderEvent",
      "type": "event"
    },
    {
      "constant": true,
      "inputs": [
        {
          "internalType": "uint256",
          "name": "",
          "type": "uint256"
        }
      ],
      "name": "buyOrders",
      "outputs": [
        {
          "internalType": "uint256",
          "name": "id",
          "type": "uint256"
        },
        {
          "internalType": "address",
          "name": "owner",
          "type": "address"
        },
        {
          "internalType": "string",
          "name": "targetTokenName",
          "type": "string"
        },
        {
          "internalType": "uint256",
          "name": "quantTokensTarget",
          "type": "uint256"
        },
        {
          "internalType": "string",
          "name": "offeredTokenName",
          "type": "string"
        },
        {
          "internalType": "uint256",
          "name": "quantTokensOffered",
          "type": "uint256"
        },
        {
          "internalType": "bool",
          "name": "isCompleted",
          "type": "bool"
        }
      ],
      "payable": false,
      "stateMutability": "view",
      "type": "function"
    },
    {
      "constant": true,
      "inputs": [],
      "name": "name",
      "outputs": [
        {
          "internalType": "string",
          "name": "",
          "type": "string"
        }
      ],
      "payable": false,
      "stateMutability": "view",
      "type": "function"
    },
    {
      "constant": true,
      "inputs": [],
      "name": "owner",
      "outputs": [
        {
          "internalType": "address",
          "name": "",
          "type": "address"
        }
      ],
      "payable": false,
      "stateMutability": "view",
      "type": "function"
    },
    {
      "constant": true,
      "inputs": [],
      "name": "pivoName",
      "outputs": [
        {
          "internalType": "string",
          "name": "",
          "type": "string"
        }
      ],
      "payable": false,
      "stateMutability": "view",
      "type": "function"
    },
    {
      "constant": true,
      "inputs": [
        {
          "internalType": "uint256",
          "name": "",
          "type": "uint256"
        }
      ],
      "name": "sellOrders",
      "outputs": [
        {
          "internalType": "uint256",
          "name": "id",
          "type": "uint256"
        },
        {
          "internalType": "address",
          "name": "owner",
          "type": "address"
        },
        {
          "internalType": "string",
          "name": "targetTokenName",
          "type": "string"
        },
        {
          "internalType": "uint256",
          "name": "quantTokensTarget",
          "type": "uint256"
        },
        {
          "internalType": "string",
          "name": "offeredTokenName",
          "type": "string"
        },
        {
          "internalType": "uint256",
          "name": "quantTokensOffered",
          "type": "uint256"
        },
        {
          "internalType": "bool",
          "name": "isCompleted",
          "type": "bool"
        }
      ],
      "payable": false,
      "stateMutability": "view",
      "type": "function"
    },
    {
      "constant": true,
      "inputs": [],
      "name": "ucana",
      "outputs": [
        {
          "internalType": "contract Token",
          "name": "",
          "type": "address"
        }
      ],
      "payable": false,
      "stateMutability": "view",
      "type": "function"
    },
    {
      "constant": true,
      "inputs": [],
      "name": "ucane",
      "outputs": [
        {
          "internalType": "contract Token3",
          "name": "",
          "type": "address"
        }
      ],
      "payable": false,
      "stateMutability": "view",
      "type": "function"
    },
    {
      "constant": true,
      "inputs": [],
      "name": "ucanu",
      "outputs": [
        {
          "internalType": "contract Token2",
          "name": "",
          "type": "address"
        }
      ],
      "payable": false,
      "stateMutability": "view",
      "type": "function"
    },
    {
      "constant": false,
      "inputs": [
        {
          "internalType": "string",
          "name": "_targetTokenName",
          "type": "string"
        },
        {
          "internalType": "uint256",
          "name": "_quantTokensTarget",
          "type": "uint256"
        },
        {
          "internalType": "string",
          "name": "_offeredTokenName",
          "type": "string"
        },
        {
          "internalType": "uint256",
          "name": "_quantTokensOffered",
          "type": "uint256"
        },
        {
          "internalType": "uint256",
          "name": "_orderType",
          "type": "uint256"
        }
      ],
      "name": "placeOrder",
      "outputs": [],
      "payable": false,
      "stateMutability": "nonpayable",
      "type": "function"
    },
    {
      "constant": false,
      "inputs": [],
      "name": "checkMatches",
      "outputs": [
        {
          "internalType": "bool",
          "name": "",
          "type": "bool"
        }
      ],
      "payable": false,
      "stateMutability": "nonpayable",
      "type": "function"
    },
    {
      "constant": false,
      "inputs": [
        {
          "internalType": "address",
          "name": "_from",
          "type": "address"
        },
        {
          "internalType": "address",
          "name": "_to",
          "type": "address"
        },
        {
          "internalType": "uint256",
          "name": "amount",
          "type": "uint256"
        },
        {
          "internalType": "string",
          "name": "tokenName",
          "type": "string"
        }
      ],
      "name": "swap",
      "outputs": [],
      "payable": true,
      "stateMutability": "payable",
      "type": "function"
    },
    {
      "constant": false,
      "inputs": [],
      "name": "getIdPivo",
      "outputs": [
        {
          "internalType": "string",
          "name": "",
          "type": "string"
        }
      ],
      "payable": false,
      "stateMutability": "nonpayable",
      "type": "function"
    },
    {
      "constant": false,
      "inputs": [],
      "name": "getBalanceOfToken1",
      "outputs": [
        {
          "internalType": "uint256",
          "name": "",
          "type": "uint256"
        }
      ],
      "payable": false,
      "stateMutability": "nonpayable",
      "type": "function"
    },
    {
      "constant": false,
      "inputs": [],
      "name": "getBalanceOfToken2",
      "outputs": [
        {
          "internalType": "uint256",
          "name": "",
          "type": "uint256"
        }
      ],
      "payable": false,
      "stateMutability": "nonpayable",
      "type": "function"
    },
    {
      "constant": false,
      "inputs": [],
      "name": "getBalanceOfToken3",
      "outputs": [
        {
          "internalType": "uint256",
          "name": "",
          "type": "uint256"
        }
      ],
      "payable": false,
      "stateMutability": "nonpayable",
      "type": "function"
    },
    {
      "constant": false,
      "inputs": [],
      "name": "getRelationOfToken1",
      "outputs": [
        {
          "internalType": "uint256",
          "name": "",
          "type": "uint256"
        },
        {
          "internalType": "uint256",
          "name": "",
          "type": "uint256"
        }
      ],
      "payable": false,
      "stateMutability": "nonpayable",
      "type": "function"
    },
    {
      "constant": false,
      "inputs": [],
      "name": "getRelationOfToken2",
      "outputs": [
        {
          "internalType": "uint256",
          "name": "",
          "type": "uint256"
        },
        {
          "internalType": "uint256",
          "name": "",
          "type": "uint256"
        }
      ],
      "payable": false,
      "stateMutability": "nonpayable",
      "type": "function"
    },
    {
      "constant": false,
      "inputs": [],
      "name": "getRelationOfToken3",
      "outputs": [
        {
          "internalType": "uint256",
          "name": "",
          "type": "uint256"
        },
        {
          "internalType": "uint256",
          "name": "",
          "type": "uint256"
        }
      ],
      "payable": false,
      "stateMutability": "nonpayable",
      "type": "function"
    },
    {
      "constant": false,
      "inputs": [],
      "name": "sortInitialPivo",
      "outputs": [],
      "payable": false,
      "stateMutability": "nonpayable",
      "type": "function"
    },
    {
      "constant": false,
      "inputs": [
        {
          "internalType": "string",
          "name": "pivo",
          "type": "string"
        }
      ],
      "name": "setNewPivo",
      "outputs": [],
      "payable": false,
      "stateMutability": "nonpayable",
      "type": "function"
    },
    {
      "constant": false,
      "inputs": [],
      "name": "getTotalValorNaBolsaUCANA",
      "outputs": [
        {
          "internalType": "uint256",
          "name": "",
          "type": "uint256"
        }
      ],
      "payable": false,
      "stateMutability": "nonpayable",
      "type": "function"
    },
    {
      "constant": false,
      "inputs": [],
      "name": "getTotalValorNaBolsaUCANU",
      "outputs": [
        {
          "internalType": "uint256",
          "name": "",
          "type": "uint256"
        }
      ],
      "payable": false,
      "stateMutability": "nonpayable",
      "type": "function"
    },
    {
      "constant": false,
      "inputs": [],
      "name": "getTotalValorNaBolsaUCANE",
      "outputs": [
        {
          "internalType": "uint256",
          "name": "",
          "type": "uint256"
        }
      ],
      "payable": false,
      "stateMutability": "nonpayable",
      "type": "function"
    },
    {
      "constant": false,
      "inputs": [
        {
          "internalType": "uint256",
          "name": "orderIndex",
          "type": "uint256"
        }
      ],
      "name": "getBuyOrder",
      "outputs": [
        {
          "internalType": "uint256",
          "name": "id",
          "type": "uint256"
        },
        {
          "internalType": "address",
          "name": "owner",
          "type": "address"
        },
        {
          "internalType": "string",
          "name": "targetTokenName",
          "type": "string"
        },
        {
          "internalType": "uint256",
          "name": "quantTokensTarget",
          "type": "uint256"
        },
        {
          "internalType": "string",
          "name": "offeredTokenName",
          "type": "string"
        },
        {
          "internalType": "uint256",
          "name": "quantTokensOffered",
          "type": "uint256"
        },
        {
          "internalType": "bool",
          "name": "isCompleted",
          "type": "bool"
        }
      ],
      "payable": false,
      "stateMutability": "nonpayable",
      "type": "function"
    },
    {
      "constant": false,
      "inputs": [
        {
          "internalType": "uint256",
          "name": "orderIndex",
          "type": "uint256"
        }
      ],
      "name": "getSellOrder",
      "outputs": [
        {
          "internalType": "uint256",
          "name": "id",
          "type": "uint256"
        },
        {
          "internalType": "address",
          "name": "owner",
          "type": "address"
        },
        {
          "internalType": "string",
          "name": "targetTokenName",
          "type": "string"
        },
        {
          "internalType": "uint256",
          "name": "quantTokensTarget",
          "type": "uint256"
        },
        {
          "internalType": "string",
          "name": "offeredTokenName",
          "type": "string"
        },
        {
          "internalType": "uint256",
          "name": "quantTokensOffered",
          "type": "uint256"
        },
        {
          "internalType": "bool",
          "name": "isCompleted",
          "type": "bool"
        }
      ],
      "payable": false,
      "stateMutability": "nonpayable",
      "type": "function"
    },
    {
      "constant": false,
      "inputs": [],
      "name": "getBuyOrdersSize",
      "outputs": [
        {
          "internalType": "uint256",
          "name": "",
          "type": "uint256"
        }
      ],
      "payable": false,
      "stateMutability": "nonpayable",
      "type": "function"
    },
    {
      "constant": false,
      "inputs": [],
      "name": "getSellOrdersSize",
      "outputs": [
        {
          "internalType": "uint256",
          "name": "",
          "type": "uint256"
        }
      ],
      "payable": false,
      "stateMutability": "nonpayable",
      "type": "function"
    }
  ],
  "bytecode": "0x60806040526040518060400160405280601881526020017f4574685377617020496e7374616e742045786368616e6765000000000000000081525060009080519060200190620000519291906200020e565b50600a60045560405180602001604052806000815250600690805190602001906200007e9291906200020e565b506001600760006101000a81548160ff021916908315150217905550600060085560006009556000600c55348015620000b657600080fd5b50604051620048873803806200488783398181016040526060811015620000dc57600080fd5b8101908080519060200190929190805190602001909291908051906020019092919050505082600160006101000a81548173ffffffffffffffffffffffffffffffffffffffff021916908373ffffffffffffffffffffffffffffffffffffffff16021790555081600260006101000a81548173ffffffffffffffffffffffffffffffffffffffff021916908373ffffffffffffffffffffffffffffffffffffffff16021790555080600360006101000a81548173ffffffffffffffffffffffffffffffffffffffff021916908373ffffffffffffffffffffffffffffffffffffffff16021790555033600560006101000a81548173ffffffffffffffffffffffffffffffffffffffff021916908373ffffffffffffffffffffffffffffffffffffffff160217905550505050620002bd565b828054600181600116156101000203166002900490600052602060002090601f016020900481019282601f106200025157805160ff191683800117855562000282565b8280016001018555821562000282579182015b828111156200028157825182559160200191906001019062000264565b5b50905062000291919062000295565b5090565b620002ba91905b80821115620002b65760008160009055506001016200029c565b5090565b90565b6145ba80620002cd6000396000f3fe60806040526004361061019c5760003560e01c806362432424116100ec578063998ebac61161008a578063b1af1bda11610064578063b1af1bda14610ca6578063b5e40a0714610e19578063df5d607214610e48578063eb691f8b14610fc55761019c565b8063998ebac614610c255780639fd2dc1314610c50578063a5d7ea9d14610c7b5761019c565b80638a1f514d116100c65780638a1f514d14610a4b5780638da5cb5b14610adb5780638e1c68fa14610b32578063997a8f9814610b5d5761019c565b8063624324241461099e5780636494b027146109c957806378c64286146109f45761019c565b8063292d26dd11610159578063390ce0d311610133578063390ce0d314610581578063392a113e146106f45780634a8393f31461072657806354067f41146108995761019c565b8063292d26dd146103b15780633048547f146103dc57806335cea2881461040e5761019c565b8063059c1210146101a157806306fdde03146102315780630843d400146102c157806319e8ae8e146103185780631b4e6ad4146103435780631d3a40de1461035a575b600080fd5b3480156101ad57600080fd5b506101b6610ff7565b6040518080602001828103825283818151815260200191508051906020019080838360005b838110156101f65780820151818401526020810190506101db565b50505050905090810190601f1680156102235780820380516001836020036101000a031916815260200191505b509250505060405180910390f35b34801561023d57600080fd5b50610246611095565b6040518080602001828103825283818151815260200191508051906020019080838360005b8381101561028657808201518184015260208101905061026b565b50505050905090810190601f1680156102b35780820380516001836020036101000a031916815260200191505b509250505060405180910390f35b3480156102cd57600080fd5b506102d6611133565b604051808273ffffffffffffffffffffffffffffffffffffffff1673ffffffffffffffffffffffffffffffffffffffff16815260200191505060405180910390f35b34801561032457600080fd5b5061032d611159565b6040518082815260200191505060405180910390f35b34801561034f57600080fd5b50610358611163565b005b34801561036657600080fd5b5061036f6114aa565b604051808273ffffffffffffffffffffffffffffffffffffffff1673ffffffffffffffffffffffffffffffffffffffff16815260200191505060405180910390f35b3480156103bd57600080fd5b506103c66114d0565b6040518082815260200191505060405180910390f35b3480156103e857600080fd5b506103f16114da565b604051808381526020018281526020019250505060405180910390f35b34801561041a57600080fd5b506104476004803603602081101561043157600080fd5b810190808035906020019092919050505061162f565b604051808881526020018773ffffffffffffffffffffffffffffffffffffffff1673ffffffffffffffffffffffffffffffffffffffff168152602001806020018681526020018060200185815260200184151515158152602001838103835288818151815260200191508051906020019080838360005b838110156104d95780820151818401526020810190506104be565b50505050905090810190601f1680156105065780820380516001836020036101000a031916815260200191505b50838103825286818151815260200191508051906020019080838360005b8381101561053f578082015181840152602081019050610524565b50505050905090810190601f16801561056c5780820380516001836020036101000a031916815260200191505b50995050505050505050505060405180910390f35b34801561058d57600080fd5b506105ba600480360360208110156105a457600080fd5b81019080803590602001909291905050506117ce565b604051808881526020018773ffffffffffffffffffffffffffffffffffffffff1673ffffffffffffffffffffffffffffffffffffffff168152602001806020018681526020018060200185815260200184151515158152602001838103835288818151815260200191508051906020019080838360005b8381101561064c578082015181840152602081019050610631565b50505050905090810190601f1680156106795780820380516001836020036101000a031916815260200191505b50838103825286818151815260200191508051906020019080838360005b838110156106b2578082015181840152602081019050610697565b50505050905090810190601f1680156106df5780820380516001836020036101000a031916815260200191505b50995050505050505050505060405180910390f35b34801561070057600080fd5b50610709611a18565b604051808381526020018281526020019250505060405180910390f35b34801561073257600080fd5b5061075f6004803603602081101561074957600080fd5b8101908080359060200190929190505050611b6d565b604051808881526020018773ffffffffffffffffffffffffffffffffffffffff1673ffffffffffffffffffffffffffffffffffffffff168152602001806020018681526020018060200185815260200184151515158152602001838103835288818151815260200191508051906020019080838360005b838110156107f15780820151818401526020810190506107d6565b50505050905090810190601f16801561081e5780820380516001836020036101000a031916815260200191505b50838103825286818151815260200191508051906020019080838360005b8381101561085757808201518184015260208101905061083c565b50505050905090810190601f1680156108845780820380516001836020036101000a031916815260200191505b50995050505050505050505060405180910390f35b61099c600480360360808110156108af57600080fd5b81019080803573ffffffffffffffffffffffffffffffffffffffff169060200190929190803573ffffffffffffffffffffffffffffffffffffffff169060200190929190803590602001909291908035906020019064010000000081111561091657600080fd5b82018360208201111561092857600080fd5b8035906020019184600183028401116401000000008311171561094a57600080fd5b91908080601f016020809104026020016040519081016040528093929190818152602001838380828437600081840152601f19601f820116905080830192505050505050509192919290505050611d0c565b005b3480156109aa57600080fd5b506109b361255f565b6040518082815260200191505060405180910390f35b3480156109d557600080fd5b506109de612640565b6040518082815260200191505060405180910390f35b348015610a0057600080fd5b50610a09612721565b604051808273ffffffffffffffffffffffffffffffffffffffff1673ffffffffffffffffffffffffffffffffffffffff16815260200191505060405180910390f35b348015610a5757600080fd5b50610a60612747565b6040518080602001828103825283818151815260200191508051906020019080838360005b83811015610aa0578082015181840152602081019050610a85565b50505050905090810190601f168015610acd5780820380516001836020036101000a031916815260200191505b509250505060405180910390f35b348015610ae757600080fd5b50610af06127e9565b604051808273ffffffffffffffffffffffffffffffffffffffff1673ffffffffffffffffffffffffffffffffffffffff16815260200191505060405180910390f35b348015610b3e57600080fd5b50610b4761280f565b6040518082815260200191505060405180910390f35b348015610b6957600080fd5b50610c2360048036036020811015610b8057600080fd5b8101908080359060200190640100000000811115610b9d57600080fd5b820183602082011115610baf57600080fd5b80359060200191846001830284011164010000000083111715610bd157600080fd5b91908080601f016020809104026020016040519081016040528093929190818152602001838380828437600081840152601f19601f8201169050808301925050505050505091929192905050506128f0565b005b348015610c3157600080fd5b50610c3a6134a8565b6040518082815260200191505060405180910390f35b348015610c5c57600080fd5b50610c65613589565b6040518082815260200191505060405180910390f35b348015610c8757600080fd5b50610c9061366a565b6040518082815260200191505060405180910390f35b348015610cb257600080fd5b50610cdf60048036036020811015610cc957600080fd5b810190808035906020019092919050505061374b565b604051808881526020018773ffffffffffffffffffffffffffffffffffffffff1673ffffffffffffffffffffffffffffffffffffffff168152602001806020018681526020018060200185815260200184151515158152602001838103835288818151815260200191508051906020019080838360005b83811015610d71578082015181840152602081019050610d56565b50505050905090810190601f168015610d9e5780820380516001836020036101000a031916815260200191505b50838103825286818151815260200191508051906020019080838360005b83811015610dd7578082015181840152602081019050610dbc565b50505050905090810190601f168015610e045780820380516001836020036101000a031916815260200191505b50995050505050505050505060405180910390f35b348015610e2557600080fd5b50610e2e613995565b604051808215151515815260200191505060405180910390f35b348015610e5457600080fd5b50610fc3600480360360a0811015610e6b57600080fd5b8101908080359060200190640100000000811115610e8857600080fd5b820183602082011115610e9a57600080fd5b80359060200191846001830284011164010000000083111715610ebc57600080fd5b91908080601f016020809104026020016040519081016040528093929190818152602001838380828437600081840152601f19601f8201169050808301925050505050505091929192908035906020019092919080359060200190640100000000811115610f2957600080fd5b820183602082011115610f3b57600080fd5b80359060200191846001830284011164010000000083111715610f5d57600080fd5b91908080601f016020809104026020016040519081016040528093929190818152602001838380828437600081840152601f19601f8201169050808301925050505050505091929192908035906020019092919080359060200190929190505050613f87565b005b348015610fd157600080fd5b50610fda61421d565b604051808381526020018281526020019250505060405180910390f35b60068054600181600116156101000203166002900480601f01602080910402602001604051908101604052809291908181526020018280546001816001161561010002031660029004801561108d5780601f106110625761010080835404028352916020019161108d565b820191906000526020600020905b81548152906001019060200180831161107057829003601f168201915b505050505081565b60008054600181600116156101000203166002900480601f01602080910402602001604051908101604052809291908181526020018280546001816001161561010002031660029004801561112b5780601f106111005761010080835404028352916020019161112b565b820191906000526020600020905b81548152906001019060200180831161110e57829003601f168201915b505050505081565b600160009054906101000a900473ffffffffffffffffffffffffffffffffffffffff1681565b6000600954905090565b60003073ffffffffffffffffffffffffffffffffffffffff16638e1c68fa6040518163ffffffff1660e01b8152600401602060405180830381600087803b1580156111ad57600080fd5b505af11580156111c1573d6000803e3d6000fd5b505050506040513d60208110156111d757600080fd5b8101908080519060200190929190505050905060003073ffffffffffffffffffffffffffffffffffffffff1663624324246040518163ffffffff1660e01b8152600401602060405180830381600087803b15801561123457600080fd5b505af1158015611248573d6000803e3d6000fd5b505050506040513d602081101561125e57600080fd5b8101908080519060200190929190505050905060003073ffffffffffffffffffffffffffffffffffffffff1663998ebac66040518163ffffffff1660e01b8152600401602060405180830381600087803b1580156112bb57600080fd5b505af11580156112cf573d6000803e3d6000fd5b505050506040513d60208110156112e557600080fd5b81019080805190602001909291905050509050818312801561130657508083125b1561135c576040518060400160405280600581526020017f5543414e410000000000000000000000000000000000000000000000000000008152506006908051906020019061135692919061440b565b50611402565b8082136113b4576040518060400160405280600581526020017f5543414e45000000000000000000000000000000000000000000000000000000815250600690805190602001906113ae92919061440b565b50611401565b6040518060400160405280600581526020017f5543414e55000000000000000000000000000000000000000000000000000000815250600690805190602001906113ff92919061440b565b505b5b6114a560068054600181600116156101000203166002900480601f01602080910402602001604051908101604052809291908181526020018280546001816001161561010002031660029004801561149b5780601f106114705761010080835404028352916020019161149b565b820191906000526020600020905b81548152906001019060200180831161147e57829003601f168201915b50505050506128f0565b505050565b600360009054906101000a900473ffffffffffffffffffffffffffffffffffffffff1681565b6000600854905090565b600080600160009054906101000a900473ffffffffffffffffffffffffffffffffffffffff1673ffffffffffffffffffffffffffffffffffffffff1663ff98b7a36040518163ffffffff1660e01b8152600401602060405180830381600087803b15801561154757600080fd5b505af115801561155b573d6000803e3d6000fd5b505050506040513d602081101561157157600080fd5b8101908080519060200190929190505050600160009054906101000a900473ffffffffffffffffffffffffffffffffffffffff1673ffffffffffffffffffffffffffffffffffffffff16634e1d1af26040518163ffffffff1660e01b8152600401602060405180830381600087803b1580156115ec57600080fd5b505af1158015611600573d6000803e3d6000fd5b505050506040513d602081101561161657600080fd5b8101908080519060200190929190505050915091509091565b600a6020528060005260406000206000915090508060000154908060010160009054906101000a900473ffffffffffffffffffffffffffffffffffffffff1690806002018054600181600116156101000203166002900480601f0160208091040260200160405190810160405280929190818152602001828054600181600116156101000203166002900480156117075780601f106116dc57610100808354040283529160200191611707565b820191906000526020600020905b8154815290600101906020018083116116ea57829003601f168201915b505050505090806003015490806004018054600181600116156101000203166002900480601f0160208091040260200160405190810160405280929190818152602001828054600181600116156101000203166002900480156117ab5780601f10611780576101008083540402835291602001916117ab565b820191906000526020600020905b81548152906001019060200180831161178e57829003601f168201915b5050505050908060050154908060060160009054906101000a900460ff16905087565b6000806060600060606000806117e261448b565b600b60008a81526020019081526020016000206040518060e0016040529081600082015481526020016001820160009054906101000a900473ffffffffffffffffffffffffffffffffffffffff1673ffffffffffffffffffffffffffffffffffffffff1673ffffffffffffffffffffffffffffffffffffffff168152602001600282018054600181600116156101000203166002900480601f0160208091040260200160405190810160405280929190818152602001828054600181600116156101000203166002900480156118f95780601f106118ce576101008083540402835291602001916118f9565b820191906000526020600020905b8154815290600101906020018083116118dc57829003601f168201915b5050505050815260200160038201548152602001600482018054600181600116156101000203166002900480601f0160208091040260200160405190810160405280929190818152602001828054600181600116156101000203166002900480156119a55780601f1061197a576101008083540402835291602001916119a5565b820191906000526020600020905b81548152906001019060200180831161198857829003601f168201915b50505050508152602001600582015481526020016006820160009054906101000a900460ff1615151515815250509050806000015181602001518260400151836060015184608001518560a001518660c00151849450829250975097509750975097509750975050919395979092949650565b600080600260009054906101000a900473ffffffffffffffffffffffffffffffffffffffff1673ffffffffffffffffffffffffffffffffffffffff16638d2de2466040518163ffffffff1660e01b8152600401602060405180830381600087803b158015611a8557600080fd5b505af1158015611a99573d6000803e3d6000fd5b505050506040513d6020811015611aaf57600080fd5b8101908080519060200190929190505050600260009054906101000a900473ffffffffffffffffffffffffffffffffffffffff1673ffffffffffffffffffffffffffffffffffffffff1663aac6c3b26040518163ffffffff1660e01b8152600401602060405180830381600087803b158015611b2a57600080fd5b505af1158015611b3e573d6000803e3d6000fd5b505050506040513d6020811015611b5457600080fd5b8101908080519060200190929190505050915091509091565b600b6020528060005260406000206000915090508060000154908060010160009054906101000a900473ffffffffffffffffffffffffffffffffffffffff1690806002018054600181600116156101000203166002900480601f016020809104026020016040519081016040528092919081815260200182805460018160011615610100020316600290048015611c455780601f10611c1a57610100808354040283529160200191611c45565b820191906000526020600020905b815481529060010190602001808311611c2857829003601f168201915b505050505090806003015490806004018054600181600116156101000203166002900480601f016020809104026020016040519081016040528092919081815260200182805460018160011615610100020316600290048015611ce95780601f10611cbe57610100808354040283529160200191611ce9565b820191906000526020600020905b815481529060010190602001808311611ccc57829003601f168201915b5050505050908060050154908060060160009054906101000a900460ff16905087565b60405180807f5543414e410000000000000000000000000000000000000000000000000000008152506005019050604051809103902081805190602001201415611fd157670de0b6b3a76400008202600160009054906101000a900473ffffffffffffffffffffffffffffffffffffffff1673ffffffffffffffffffffffffffffffffffffffff166370a08231866040518263ffffffff1660e01b8152600401808273ffffffffffffffffffffffffffffffffffffffff1673ffffffffffffffffffffffffffffffffffffffff16815260200191505060206040518083038186803b158015611dfa57600080fd5b505afa158015611e0e573d6000803e3d6000fd5b505050506040513d6020811015611e2457600080fd5b81019080805190602001909291905050501015611ea9576040517f08c379a000000000000000000000000000000000000000000000000000000000815260040180806020018281038252601c8152602001807f4e6f7420656e6f75676830312045746865722070726f76696465642e0000000081525060200191505060405180910390fd5b600160009054906101000a900473ffffffffffffffffffffffffffffffffffffffff1673ffffffffffffffffffffffffffffffffffffffff166323b872dd8585670de0b6b3a764000086026040518463ffffffff1660e01b8152600401808473ffffffffffffffffffffffffffffffffffffffff1673ffffffffffffffffffffffffffffffffffffffff1681526020018373ffffffffffffffffffffffffffffffffffffffff1673ffffffffffffffffffffffffffffffffffffffff1681526020018281526020019350505050602060405180830381600087803b158015611f9057600080fd5b505af1158015611fa4573d6000803e3d6000fd5b505050506040513d6020811015611fba57600080fd5b810190808051906020019092919050505050612559565b60405180807f5543414e55000000000000000000000000000000000000000000000000000000815250600501905060405180910390208180519060200120141561229657670de0b6b3a76400008202600260009054906101000a900473ffffffffffffffffffffffffffffffffffffffff1673ffffffffffffffffffffffffffffffffffffffff166370a08231866040518263ffffffff1660e01b8152600401808273ffffffffffffffffffffffffffffffffffffffff1673ffffffffffffffffffffffffffffffffffffffff16815260200191505060206040518083038186803b1580156120bf57600080fd5b505afa1580156120d3573d6000803e3d6000fd5b505050506040513d60208110156120e957600080fd5b8101908080519060200190929190505050101561216e576040517f08c379a000000000000000000000000000000000000000000000000000000000815260040180806020018281038252601c8152602001807f4e6f7420656e6f75676830322045746865722070726f76696465642e0000000081525060200191505060405180910390fd5b600260009054906101000a900473ffffffffffffffffffffffffffffffffffffffff1673ffffffffffffffffffffffffffffffffffffffff166323b872dd8585670de0b6b3a764000086026040518463ffffffff1660e01b8152600401808473ffffffffffffffffffffffffffffffffffffffff1673ffffffffffffffffffffffffffffffffffffffff1681526020018373ffffffffffffffffffffffffffffffffffffffff1673ffffffffffffffffffffffffffffffffffffffff1681526020018281526020019350505050602060405180830381600087803b15801561225557600080fd5b505af1158015612269573d6000803e3d6000fd5b505050506040513d602081101561227f57600080fd5b810190808051906020019092919050505050612558565b60405180807f5543414e45000000000000000000000000000000000000000000000000000000815250600501905060405180910390208180519060200120141561255757670de0b6b3a76400008202600360009054906101000a900473ffffffffffffffffffffffffffffffffffffffff1673ffffffffffffffffffffffffffffffffffffffff166370a08231866040518263ffffffff1660e01b8152600401808273ffffffffffffffffffffffffffffffffffffffff1673ffffffffffffffffffffffffffffffffffffffff16815260200191505060206040518083038186803b15801561238457600080fd5b505afa158015612398573d6000803e3d6000fd5b505050506040513d60208110156123ae57600080fd5b81019080805190602001909291905050501015612433576040517f08c379a000000000000000000000000000000000000000000000000000000000815260040180806020018281038252601c8152602001807f4e6f7420656e6f75676830332045746865722070726f76696465642e0000000081525060200191505060405180910390fd5b600360009054906101000a900473ffffffffffffffffffffffffffffffffffffffff1673ffffffffffffffffffffffffffffffffffffffff166323b872dd8585670de0b6b3a764000086026040518463ffffffff1660e01b8152600401808473ffffffffffffffffffffffffffffffffffffffff1673ffffffffffffffffffffffffffffffffffffffff1681526020018373ffffffffffffffffffffffffffffffffffffffff1673ffffffffffffffffffffffffffffffffffffffff1681526020018281526020019350505050602060405180830381600087803b15801561251a57600080fd5b505af115801561252e573d6000803e3d6000fd5b505050506040513d602081101561254457600080fd5b8101908080519060200190929190505050505b5b5b50505050565b6000600360009054906101000a900473ffffffffffffffffffffffffffffffffffffffff1673ffffffffffffffffffffffffffffffffffffffff166370a08231306040518263ffffffff1660e01b8152600401808273ffffffffffffffffffffffffffffffffffffffff1673ffffffffffffffffffffffffffffffffffffffff16815260200191505060206040518083038186803b15801561260057600080fd5b505afa158015612614573d6000803e3d6000fd5b505050506040513d602081101561262a57600080fd5b8101908080519060200190929190505050905090565b6000600360009054906101000a900473ffffffffffffffffffffffffffffffffffffffff1673ffffffffffffffffffffffffffffffffffffffff1663b99152d0336040518263ffffffff1660e01b8152600401808273ffffffffffffffffffffffffffffffffffffffff1673ffffffffffffffffffffffffffffffffffffffff16815260200191505060206040518083038186803b1580156126e157600080fd5b505afa1580156126f5573d6000803e3d6000fd5b505050506040513d602081101561270b57600080fd5b8101908080519060200190929190505050905090565b600260009054906101000a900473ffffffffffffffffffffffffffffffffffffffff1681565b606060068054600181600116156101000203166002900480601f0160208091040260200160405190810160405280929190818152602001828054600181600116156101000203166002900480156127df5780601f106127b4576101008083540402835291602001916127df565b820191906000526020600020905b8154815290600101906020018083116127c257829003601f168201915b5050505050905090565b600560009054906101000a900473ffffffffffffffffffffffffffffffffffffffff1681565b6000600160009054906101000a900473ffffffffffffffffffffffffffffffffffffffff1673ffffffffffffffffffffffffffffffffffffffff166370a08231306040518263ffffffff1660e01b8152600401808273ffffffffffffffffffffffffffffffffffffffff1673ffffffffffffffffffffffffffffffffffffffff16815260200191505060206040518083038186803b1580156128b057600080fd5b505afa1580156128c4573d6000803e3d6000fd5b505050506040513d60208110156128da57600080fd5b8101908080519060200190929190505050905090565b60006001905060006002612905600454614372565b019050600060028201905060405180807f5543414e410000000000000000000000000000000000000000000000000000008152506005019050604051809103902084805190602001201415612d0357600160009054906101000a900473ffffffffffffffffffffffffffffffffffffffff1673ffffffffffffffffffffffffffffffffffffffff1663b9174c4c670de0b6b3a764000084026040518263ffffffff1660e01b815260040180828152602001915050600060405180830381600087803b1580156129d357600080fd5b505af11580156129e7573d6000803e3d6000fd5b50505050600160009054906101000a900473ffffffffffffffffffffffffffffffffffffffff1673ffffffffffffffffffffffffffffffffffffffff16631dece9fd670de0b6b3a764000083026040518263ffffffff1660e01b815260040180828152602001915050600060405180830381600087803b158015612a6a57600080fd5b505af1158015612a7e573d6000803e3d6000fd5b50505050600360009054906101000a900473ffffffffffffffffffffffffffffffffffffffff1673ffffffffffffffffffffffffffffffffffffffff166396e1182a612ad383866143ed90919063ffffffff16565b6040518263ffffffff1660e01b815260040180828152602001915050600060405180830381600087803b158015612b0957600080fd5b505af1158015612b1d573d6000803e3d6000fd5b50505050600260009054906101000a900473ffffffffffffffffffffffffffffffffffffffff1673ffffffffffffffffffffffffffffffffffffffff166378914dff612b7284866143ed90919063ffffffff16565b6040518263ffffffff1660e01b815260040180828152602001915050600060405180830381600087803b158015612ba857600080fd5b505af1158015612bbc573d6000803e3d6000fd5b50505050600260009054906101000a900473ffffffffffffffffffffffffffffffffffffffff1673ffffffffffffffffffffffffffffffffffffffff1663768ad933612c1184846143ed90919063ffffffff16565b6040518263ffffffff1660e01b815260040180828152602001915050600060405180830381600087803b158015612c4757600080fd5b505af1158015612c5b573d6000803e3d6000fd5b50505050600360009054906101000a900473ffffffffffffffffffffffffffffffffffffffff1673ffffffffffffffffffffffffffffffffffffffff16639f6c37d6612cb083856143ed90919063ffffffff16565b6040518263ffffffff1660e01b815260040180828152602001915050600060405180830381600087803b158015612ce657600080fd5b505af1158015612cfa573d6000803e3d6000fd5b505050506134a2565b60405180807f5543414e5500000000000000000000000000000000000000000000000000000081525060050190506040518091039020848051906020012014156130f657600260009054906101000a900473ffffffffffffffffffffffffffffffffffffffff1673ffffffffffffffffffffffffffffffffffffffff166378914dff670de0b6b3a764000084026040518263ffffffff1660e01b815260040180828152602001915050600060405180830381600087803b158015612dc657600080fd5b505af1158015612dda573d6000803e3d6000fd5b50505050600260009054906101000a900473ffffffffffffffffffffffffffffffffffffffff1673ffffffffffffffffffffffffffffffffffffffff1663768ad933670de0b6b3a764000083026040518263ffffffff1660e01b815260040180828152602001915050600060405180830381600087803b158015612e5d57600080fd5b505af1158015612e71573d6000803e3d6000fd5b50505050600160009054906101000a900473ffffffffffffffffffffffffffffffffffffffff1673ffffffffffffffffffffffffffffffffffffffff1663b9174c4c612ec684866143ed90919063ffffffff16565b6040518263ffffffff1660e01b815260040180828152602001915050600060405180830381600087803b158015612efc57600080fd5b505af1158015612f10573d6000803e3d6000fd5b50505050600360009054906101000a900473ffffffffffffffffffffffffffffffffffffffff1673ffffffffffffffffffffffffffffffffffffffff16639f6c37d6612f6583866143ed90919063ffffffff16565b6040518263ffffffff1660e01b815260040180828152602001915050600060405180830381600087803b158015612f9b57600080fd5b505af1158015612faf573d6000803e3d6000fd5b50505050600160009054906101000a900473ffffffffffffffffffffffffffffffffffffffff1673ffffffffffffffffffffffffffffffffffffffff16631dece9fd61300484846143ed90919063ffffffff16565b6040518263ffffffff1660e01b815260040180828152602001915050600060405180830381600087803b15801561303a57600080fd5b505af115801561304e573d6000803e3d6000fd5b50505050600360009054906101000a900473ffffffffffffffffffffffffffffffffffffffff1673ffffffffffffffffffffffffffffffffffffffff166396e1182a6130a383856143ed90919063ffffffff16565b6040518263ffffffff1660e01b815260040180828152602001915050600060405180830381600087803b1580156130d957600080fd5b505af11580156130ed573d6000803e3d6000fd5b505050506134a1565b600360009054906101000a900473ffffffffffffffffffffffffffffffffffffffff1673ffffffffffffffffffffffffffffffffffffffff166396e1182a670de0b6b3a764000084026040518263ffffffff1660e01b815260040180828152602001915050600060405180830381600087803b15801561317557600080fd5b505af1158015613189573d6000803e3d6000fd5b50505050600360009054906101000a900473ffffffffffffffffffffffffffffffffffffffff1673ffffffffffffffffffffffffffffffffffffffff16639f6c37d6670de0b6b3a764000083026040518263ffffffff1660e01b815260040180828152602001915050600060405180830381600087803b15801561320c57600080fd5b505af1158015613220573d6000803e3d6000fd5b50505050600160009054906101000a900473ffffffffffffffffffffffffffffffffffffffff1673ffffffffffffffffffffffffffffffffffffffff16631dece9fd61327584866143ed90919063ffffffff16565b6040518263ffffffff1660e01b815260040180828152602001915050600060405180830381600087803b1580156132ab57600080fd5b505af11580156132bf573d6000803e3d6000fd5b50505050600260009054906101000a900473ffffffffffffffffffffffffffffffffffffffff1673ffffffffffffffffffffffffffffffffffffffff1663768ad93361331483866143ed90919063ffffffff16565b6040518263ffffffff1660e01b815260040180828152602001915050600060405180830381600087803b15801561334a57600080fd5b505af115801561335e573d6000803e3d6000fd5b50505050600160009054906101000a900473ffffffffffffffffffffffffffffffffffffffff1673ffffffffffffffffffffffffffffffffffffffff1663b9174c4c6133b384846143ed90919063ffffffff16565b6040518263ffffffff1660e01b815260040180828152602001915050600060405180830381600087803b1580156133e957600080fd5b505af11580156133fd573d6000803e3d6000fd5b50505050600260009054906101000a900473ffffffffffffffffffffffffffffffffffffffff1673ffffffffffffffffffffffffffffffffffffffff166378914dff61345283856143ed90919063ffffffff16565b6040518263ffffffff1660e01b815260040180828152602001915050600060405180830381600087803b15801561348857600080fd5b505af115801561349c573d6000803e3d6000fd5b505050505b5b50505050565b6000600260009054906101000a900473ffffffffffffffffffffffffffffffffffffffff1673ffffffffffffffffffffffffffffffffffffffff166370a08231306040518263ffffffff1660e01b8152600401808273ffffffffffffffffffffffffffffffffffffffff1673ffffffffffffffffffffffffffffffffffffffff16815260200191505060206040518083038186803b15801561354957600080fd5b505afa15801561355d573d6000803e3d6000fd5b505050506040513d602081101561357357600080fd5b8101908080519060200190929190505050905090565b6000600160009054906101000a900473ffffffffffffffffffffffffffffffffffffffff1673ffffffffffffffffffffffffffffffffffffffff1663b99152d0336040518263ffffffff1660e01b8152600401808273ffffffffffffffffffffffffffffffffffffffff1673ffffffffffffffffffffffffffffffffffffffff16815260200191505060206040518083038186803b15801561362a57600080fd5b505afa15801561363e573d6000803e3d6000fd5b505050506040513d602081101561365457600080fd5b8101908080519060200190929190505050905090565b6000600260009054906101000a900473ffffffffffffffffffffffffffffffffffffffff1673ffffffffffffffffffffffffffffffffffffffff1663b99152d0336040518263ffffffff1660e01b8152600401808273ffffffffffffffffffffffffffffffffffffffff1673ffffffffffffffffffffffffffffffffffffffff16815260200191505060206040518083038186803b15801561370b57600080fd5b505afa15801561371f573d6000803e3d6000fd5b505050506040513d602081101561373557600080fd5b8101908080519060200190929190505050905090565b60008060606000606060008061375f61448b565b600a60008a81526020019081526020016000206040518060e0016040529081600082015481526020016001820160009054906101000a900473ffffffffffffffffffffffffffffffffffffffff1673ffffffffffffffffffffffffffffffffffffffff1673ffffffffffffffffffffffffffffffffffffffff168152602001600282018054600181600116156101000203166002900480601f0160208091040260200160405190810160405280929190818152602001828054600181600116156101000203166002900480156138765780601f1061384b57610100808354040283529160200191613876565b820191906000526020600020905b81548152906001019060200180831161385957829003601f168201915b5050505050815260200160038201548152602001600482018054600181600116156101000203166002900480601f0160208091040260200160405190810160405280929190818152602001828054600181600116156101000203166002900480156139225780601f106138f757610100808354040283529160200191613922565b820191906000526020600020905b81548152906001019060200180831161390557829003601f168201915b50505050508152602001600582015481526020016006820160009054906101000a900460ff1615151515815250509050806000015181602001518260400151836060015184608001518560a001518660c00151849450829250975097509750975097509750975050919395979092949650565b6000806000905060008090505b600854821015613f7d57600a600083815260200190815260200160002060060160009054906101000a900460ff16613f7057600090505b600954811015613f6f57600b600082815260200190815260200160002060060160009054906101000a900460ff16613f6257600b60008281526020019081526020016000206004016040518082805460018160011615610100020316600290048015613a7c5780601f10613a5a576101008083540402835291820191613a7c565b820191906000526020600020905b815481529060010190602001808311613a68575b50509150506040518091039020600a60008481526020019081526020016000206002016040518082805460018160011615610100020316600290048015613afa5780601f10613ad8576101008083540402835291820191613afa565b820191906000526020600020905b815481529060010190602001808311613ae6575b50509150506040518091039020148015613c0d5750600b60008281526020019081526020016000206002016040518082805460018160011615610100020316600290048015613b805780601f10613b5e576101008083540402835291820191613b80565b820191906000526020600020905b815481529060010190602001808311613b6c575b50509150506040518091039020600a60008481526020019081526020016000206004016040518082805460018160011615610100020316600290048015613bfe5780601f10613bdc576101008083540402835291820191613bfe565b820191906000526020600020905b815481529060010190602001808311613bea575b50509150506040518091039020145b15613f6157600b600082815260200190815260200160002060030154600a60008481526020019081526020016000206005015410158015613c7a5750600b600082815260200190815260200160002060050154600a60008481526020019081526020016000206003015411155b15613f6057613dbb600a600084815260200190815260200160002060010160009054906101000a900473ffffffffffffffffffffffffffffffffffffffff16600b600084815260200190815260200160002060010160009054906101000a900473ffffffffffffffffffffffffffffffffffffffff16600a600086815260200190815260200160002060050154600a60008781526020019081526020016000206004018054600181600116156101000203166002900480601f016020809104026020016040519081016040528092919081815260200182805460018160011615610100020316600290048015613db15780601f10613d8657610100808354040283529160200191613db1565b820191906000526020600020905b815481529060010190602001808311613d9457829003601f168201915b5050505050611d0c565b613ef7600b600083815260200190815260200160002060010160009054906101000a900473ffffffffffffffffffffffffffffffffffffffff16600a600085815260200190815260200160002060010160009054906101000a900473ffffffffffffffffffffffffffffffffffffffff16600b600085815260200190815260200160002060050154600b60008681526020019081526020016000206004018054600181600116156101000203166002900480601f016020809104026020016040519081016040528092919081815260200182805460018160011615610100020316600290048015613eed5780601f10613ec257610100808354040283529160200191613eed565b820191906000526020600020905b815481529060010190602001808311613ed057829003601f168201915b5050505050611d0c565b6001600a600084815260200190815260200160002060060160006101000a81548160ff0219169083151502179055506001600b600083815260200190815260200160002060060160006101000a81548160ff021916908315150217905550600192505050613f84565b5b5b80806001019150506139d9565b5b81806001019250506139a2565b6000925050505b90565b613f8f61448b565b6040518060e00160405280600c5481526020013373ffffffffffffffffffffffffffffffffffffffff16815260200187815260200186815260200185815260200184815260200160001515815250905060008214156140d75780600b600060095481526020019081526020016000206000820151816000015560208201518160010160006101000a81548173ffffffffffffffffffffffffffffffffffffffff021916908373ffffffffffffffffffffffffffffffffffffffff160217905550604082015181600201908051906020019061406b9291906144e0565b506060820151816003015560808201518160040190805190602001906140929291906144e0565b5060a0820151816005015560c08201518160060160006101000a81548160ff0219169083151502179055509050506009600081548092919060010191905055506141c2565b80600a600060085481526020019081526020016000206000820151816000015560208201518160010160006101000a81548173ffffffffffffffffffffffffffffffffffffffff021916908373ffffffffffffffffffffffffffffffffffffffff160217905550604082015181600201908051906020019061415a9291906144e0565b506060820151816003015560808201518160040190805190602001906141819291906144e0565b5060a0820151816005015560c08201518160060160006101000a81548160ff0219169083151502179055509050506008600081548092919060010191905055505b6001600c600082825401925050819055507fd649d7405b60e3bb5e4ba9bea0e77d66e586bc6672032dffe758a34eff9cd5846141fc613995565b604051808215151515815260200191505060405180910390a1505050505050565b600080600360009054906101000a900473ffffffffffffffffffffffffffffffffffffffff1673ffffffffffffffffffffffffffffffffffffffff16636d69fc4a6040518163ffffffff1660e01b8152600401602060405180830381600087803b15801561428a57600080fd5b505af115801561429e573d6000803e3d6000fd5b505050506040513d60208110156142b457600080fd5b8101908080519060200190929190505050600360009054906101000a900473ffffffffffffffffffffffffffffffffffffffff1673ffffffffffffffffffffffffffffffffffffffff16631275c38b6040518163ffffffff1660e01b8152600401602060405180830381600087803b15801561432f57600080fd5b505af1158015614343573d6000803e3d6000fd5b505050506040513d602081101561435957600080fd5b8101908080519060200190929190505050915091509091565b600081423344604051602001808481526020018373ffffffffffffffffffffffffffffffffffffffff1673ffffffffffffffffffffffffffffffffffffffff1660601b815260140182815260200193505050506040516020818303038152906040528051906020012060001c816143e557fe5b069050919050565b600081670de0b6b3a764000084028161440257fe5b04905092915050565b828054600181600116156101000203166002900490600052602060002090601f016020900481019282601f1061444c57805160ff191683800117855561447a565b8280016001018555821561447a579182015b8281111561447957825182559160200191906001019061445e565b5b5090506144879190614560565b5090565b6040518060e0016040528060008152602001600073ffffffffffffffffffffffffffffffffffffffff168152602001606081526020016000815260200160608152602001600081526020016000151581525090565b828054600181600116156101000203166002900490600052602060002090601f016020900481019282601f1061452157805160ff191683800117855561454f565b8280016001018555821561454f579182015b8281111561454e578251825591602001919060010190614533565b5b50905061455c9190614560565b5090565b61458291905b8082111561457e576000816000905550600101614566565b5090565b9056fea265627a7a723158201c2ca869f9d37c6bc785d9959b58f7a92806b8d0eafc57464cf05846c7a6b1a064736f6c63430005100032",
  "source": "//SPDX-License-Identifier: GPL-3.0\npragma solidity >=0.5.0 <0.9.0;\n\nimport \"./Token.sol\";\nimport \"./Token2.sol\";\nimport \"./Token3.sol\";\nimport \"./SafeMath.sol\";\n\n\ncontract EthSwap\n{\n    using SafeMath for uint256;\n    string public name = \"EthSwap Instant Exchange\";\n    Token public ucana;\n    Token2 public ucanu;\n    Token3 public ucane;\n    uint256 constant WAD = 10**18;\n    uint rangeLimit = 10;\n    address public owner;\n    string public pivoName = \"\";\n    bool isFirstOrderPlaced = true;\n\n    struct Order {\n        uint id;\n        address owner;\n        string targetTokenName;\n        uint quantTokensTarget;\n        string offeredTokenName;\n        uint quantTokensOffered;\n        bool isCompleted;\n    }\n\n    uint sizeBuyOrders = 0;\n    uint sizeSellOrders = 0;\n    mapping(uint => Order) public buyOrders;\n    mapping(uint => Order) public sellOrders;\n    uint idOrder = 0;\n\n    event placeOrderEvent(bool matchResult);\n\n    constructor(Token _token, Token2 _ucanu, Token3 _ucane) public\n    {\n        ucana = _token;\n        ucanu = _ucanu;\n        ucane = _ucane;\n        owner = msg.sender;\n    }\n\n\n    function placeOrder(string memory _targetTokenName, uint _quantTokensTarget, string memory _offeredTokenName, uint _quantTokensOffered, uint _orderType) public {\n        Order memory newOrder = Order(idOrder, msg.sender, _targetTokenName, _quantTokensTarget, _offeredTokenName, _quantTokensOffered, false);\n\n        if (_orderType == 0) {\n            sellOrders[sizeSellOrders] = newOrder;\n            sizeSellOrders++;\n        } else {\n            buyOrders[sizeBuyOrders] = newOrder;\n            sizeBuyOrders++;\n        }\n        idOrder += 1;\n\n        emit placeOrderEvent(checkMatches());\n    }\n\n    function checkMatches() public returns (bool) {\n        uint i = 0;\n        uint j = 0;\n\n        for (; i < sizeBuyOrders; i++) {\n            if (!buyOrders[i].isCompleted) {\n                for (j = 0; j < sizeSellOrders; j++) {\n                    if (!sellOrders[j].isCompleted) {\n                        if (keccak256(bytes(buyOrders[i].targetTokenName)) == keccak256(bytes(sellOrders[j].offeredTokenName)) && keccak256(bytes(buyOrders[i].offeredTokenName)) == keccak256(bytes(sellOrders[j].targetTokenName))) {\n                            if (buyOrders[i].quantTokensOffered >= sellOrders[j].quantTokensTarget && buyOrders[i].quantTokensTarget <= sellOrders[j].quantTokensOffered) {\n                                swap(buyOrders[i].owner, sellOrders[j].owner, buyOrders[i].quantTokensOffered, buyOrders[i].offeredTokenName);\n\n                                swap(sellOrders[j].owner, buyOrders[i].owner, sellOrders[j].quantTokensOffered, sellOrders[j].offeredTokenName);\n\n                                buyOrders[i].isCompleted = true;\n                                sellOrders[j].isCompleted = true;\n\n                                return true;\n                            }\n                        }\n                    }\n                }\n            }\n        }\n        return false;\n    }\n\n    function swap(address _from, address _to, uint256 amount, string memory tokenName) public payable {\n        if (keccak256(bytes(tokenName)) == keccak256(\"UCANA\")) {\n            require(ucana.balanceOf(_from) >= amount * WAD, \"Not enough01 Ether provided.\");\n\n            ucana.transferFrom(_from, _to, amount * WAD);\n        } else if (keccak256(bytes(tokenName)) == keccak256(\"UCANU\")) {\n            require(ucanu.balanceOf(_from) >= amount * WAD, \"Not enough02 Ether provided.\");\n\n            ucanu.transferFrom(_from, _to, amount * WAD);\n        } else if (keccak256(bytes(tokenName)) == keccak256(\"UCANE\")) {\n            require(ucane.balanceOf(_from) >= amount * WAD, \"Not enough03 Ether provided.\");\n\n            ucane.transferFrom(_from, _to, amount * WAD);\n        }\n    }\n\n    function getIdPivo() public returns (string memory) {\n        return pivoName;\n    }\n\n    function random(uint mod) internal returns (uint) {\n        return uint(keccak256(abi.encodePacked(block.timestamp, msg.sender, block.difficulty))) % mod;\n    }\n\n    function getBalanceOfToken1() public returns (uint256) {\n        return ucana.balanceOfToken(msg.sender);\n    }\n\n    function getBalanceOfToken2() public returns (uint256) {\n        return ucanu.balanceOfToken(msg.sender);\n    }\n\n    function getBalanceOfToken3() public returns (uint256) {\n        return ucane.balanceOfToken(msg.sender);\n    }\n\n\n    function getRelationOfToken1() public returns (uint256, uint256) {\n        return (ucana.getUmToken1EquivaleQuantosToken2(), ucana.getUmToken1EquivaleQuantosToken3());\n    }\n\n    function getRelationOfToken2() public returns (uint256, uint256) {\n        return (ucanu.getUmToken2EquivaleQuantosToken1(), ucanu.getUmToken2EquivaleQuantosToken3());\n    }\n\n    function getRelationOfToken3() public returns (uint256, uint256) {\n        return (ucane.getUmToken3EquivaleQuantosToken1(), ucane.getUmToken3EquivaleQuantosToken2());\n    }\n\n    function sortInitialPivo() public {\n        int totalUcana = int(this.getTotalValorNaBolsaUCANA()); // M1\n        int totalUcane = int(this.getTotalValorNaBolsaUCANE()); // M2\n        int totalUcanu = int(this.getTotalValorNaBolsaUCANU()); // M3\n\n        if (totalUcana < totalUcane && totalUcana < totalUcanu) {\n            pivoName = \"UCANA\";\n        }\n        else if (totalUcane <= totalUcanu) {\n            pivoName = \"UCANE\";\n        }\n        else {\n            pivoName = \"UCANU\";\n        }\n        setNewPivo(pivoName);\n    }\n\n\n    function setNewPivo(string memory pivo) public {\n        uint256 const = 1;\n        uint256 equivalencia1 = random(rangeLimit) + 2;\n        uint256 equivalencia2 = equivalencia1 + 2;\n\n        if (keccak256(bytes(pivo)) == keccak256(\"UCANA\")) {\n            ucana.setUmToken1EquivaleQuantosToken2(equivalencia1 * WAD);\n            ucana.setUmToken1EquivaleQuantosToken3(equivalencia2 * WAD);\n\n            ucane.setUmToken3EquivaleQuantosToken1(const.divEly(equivalencia2));\n            ucanu.setUmToken2EquivaleQuantosToken1(const.divEly(equivalencia1));\n\n            ucanu.setUmToken2EquivaleQuantosToken3(equivalencia2.divEly(equivalencia1));\n            ucane.setUmToken3EquivaleQuantosToken2(equivalencia1.divEly(equivalencia2));\n        } else if (keccak256(bytes(pivo)) == keccak256(\"UCANU\")) {\n            ucanu.setUmToken2EquivaleQuantosToken1(equivalencia1 * WAD);\n            ucanu.setUmToken2EquivaleQuantosToken3(equivalencia2 * WAD);\n\n            ucana.setUmToken1EquivaleQuantosToken2(const.divEly(equivalencia1));\n            ucane.setUmToken3EquivaleQuantosToken2(const.divEly(equivalencia2));\n\n            ucana.setUmToken1EquivaleQuantosToken3(equivalencia2.divEly(equivalencia1));\n            ucane.setUmToken3EquivaleQuantosToken1(equivalencia1.divEly(equivalencia2));\n        } else {\n            ucane.setUmToken3EquivaleQuantosToken1(equivalencia1 * WAD);\n            ucane.setUmToken3EquivaleQuantosToken2(equivalencia2 * WAD);\n\n            ucana.setUmToken1EquivaleQuantosToken3(const.divEly(equivalencia1));\n            ucanu.setUmToken2EquivaleQuantosToken3(const.divEly(equivalencia2));\n\n            ucana.setUmToken1EquivaleQuantosToken2(equivalencia2.divEly(equivalencia1));\n            ucanu.setUmToken2EquivaleQuantosToken1(equivalencia1.divEly(equivalencia2));\n        }\n    }\n\n    function getTotalValorNaBolsaUCANA() public returns (uint256)\n    {\n        return  ucana.balanceOf(address(this));\n    }\n\n    function getTotalValorNaBolsaUCANU() public returns (uint256)\n    {\n        return  ucanu.balanceOf(address(this));\n    }\n    function getTotalValorNaBolsaUCANE() public returns (uint256)\n    {\n        return  ucane.balanceOf(address(this));\n    }\n\n    function getBuyOrder(uint orderIndex) public returns (uint id, address owner, string memory targetTokenName, uint quantTokensTarget, string memory offeredTokenName, uint quantTokensOffered, bool isCompleted) {\n        Order memory orderSelected = buyOrders[orderIndex];\n\n\n        return (orderSelected.id, orderSelected.owner, orderSelected.targetTokenName, orderSelected.quantTokensTarget, orderSelected.offeredTokenName, orderSelected.quantTokensOffered, orderSelected.isCompleted);\n    }\n\n    function getSellOrder(uint orderIndex) public returns (uint id, address owner, string memory targetTokenName, uint quantTokensTarget, string memory offeredTokenName, uint quantTokensOffered, bool isCompleted) {\n        Order memory orderSelected = sellOrders[orderIndex];\n\n        return (orderSelected.id, orderSelected.owner, orderSelected.targetTokenName, orderSelected.quantTokensTarget, orderSelected.offeredTokenName, orderSelected.quantTokensOffered, orderSelected.isCompleted);\n    }\n\n    function getBuyOrdersSize() public returns (uint) {\n        return sizeBuyOrders;\n    }\n\n    function getSellOrdersSize() public returns (uint) {\n        return sizeSellOrders;\n    }\n}",
  "sourcePath": "/home/ed/Downloads/EXCHANGE/ExechAux/src/contracts/EthSwap.sol",
  "compiler": {
    "name": "solc",
    "version": "0.5.16+commit.9c3226ce.Emscripten.clang"
  },
  "schemaVersion": "3.4.1",
  "updatedAt": "2021-07-18T04:11:40.677Z",
  "networkType": "ethereum",
  "devdoc": {
    "methods": {}
  },
  "userdoc": {
    "methods": {}
  }
}