{
  "contractName": "EthSwap",
  "abi": [
    {
      "inputs": [
        {
          "internalType": "contract Token",
          "name": "_token",
          "type": "address"
        },
        {
          "internalType": "contract Token2",
          "name": "_ucanu",
          "type": "address"
        },
        {
          "internalType": "contract Token3",
          "name": "_ucane",
          "type": "address"
        }
      ],
      "payable": false,
      "stateMutability": "nonpayable",
      "type": "constructor"
    },
    {
      "anonymous": false,
      "inputs": [
        {
          "indexed": false,
          "internalType": "address",
          "name": "account",
          "type": "address"
        },
        {
          "indexed": false,
          "internalType": "address",
          "name": "ucana",
          "type": "address"
        },
        {
          "indexed": false,
          "internalType": "uint256",
          "name": "amount",
          "type": "uint256"
        },
        {
          "indexed": false,
          "internalType": "uint256",
          "name": "rate",
          "type": "uint256"
        }
      ],
      "name": "TokensPurchased",
      "type": "event"
    },
    {
      "anonymous": false,
      "inputs": [
        {
          "indexed": false,
          "internalType": "address",
          "name": "account",
          "type": "address"
        },
        {
          "indexed": false,
          "internalType": "address",
          "name": "ucana",
          "type": "address"
        },
        {
          "indexed": false,
          "internalType": "uint256",
          "name": "amount",
          "type": "uint256"
        },
        {
          "indexed": false,
          "internalType": "uint256",
          "name": "rate",
          "type": "uint256"
        }
      ],
      "name": "TokensSold",
      "type": "event"
    },
    {
      "constant": true,
      "inputs": [
        {
          "internalType": "address",
          "name": "",
          "type": "address"
        }
      ],
      "name": "balanceOfToken1",
      "outputs": [
        {
          "internalType": "uint256",
          "name": "",
          "type": "uint256"
        }
      ],
      "payable": false,
      "stateMutability": "view",
      "type": "function"
    },
    {
      "constant": true,
      "inputs": [],
      "name": "entrou",
      "outputs": [
        {
          "internalType": "string",
          "name": "",
          "type": "string"
        }
      ],
      "payable": false,
      "stateMutability": "view",
      "type": "function"
    },
    {
      "constant": true,
      "inputs": [],
      "name": "name",
      "outputs": [
        {
          "internalType": "string",
          "name": "",
          "type": "string"
        }
      ],
      "payable": false,
      "stateMutability": "view",
      "type": "function"
    },
    {
      "constant": true,
      "inputs": [],
      "name": "owner",
      "outputs": [
        {
          "internalType": "address",
          "name": "",
          "type": "address"
        }
      ],
      "payable": false,
      "stateMutability": "view",
      "type": "function"
    },
    {
      "constant": true,
      "inputs": [],
      "name": "rate",
      "outputs": [
        {
          "internalType": "uint256",
          "name": "",
          "type": "uint256"
        }
      ],
      "payable": false,
      "stateMutability": "view",
      "type": "function"
    },
    {
      "constant": true,
      "inputs": [],
      "name": "ucana",
      "outputs": [
        {
          "internalType": "contract Token",
          "name": "",
          "type": "address"
        }
      ],
      "payable": false,
      "stateMutability": "view",
      "type": "function"
    },
    {
      "constant": true,
      "inputs": [],
      "name": "ucane",
      "outputs": [
        {
          "internalType": "contract Token3",
          "name": "",
          "type": "address"
        }
      ],
      "payable": false,
      "stateMutability": "view",
      "type": "function"
    },
    {
      "constant": true,
      "inputs": [],
      "name": "ucanu",
      "outputs": [
        {
          "internalType": "contract Token2",
          "name": "",
          "type": "address"
        }
      ],
      "payable": false,
      "stateMutability": "view",
      "type": "function"
    },
    {
      "constant": false,
      "inputs": [
        {
          "internalType": "address",
          "name": "_from",
          "type": "address"
        },
        {
          "internalType": "address",
          "name": "_to",
          "type": "address"
        },
        {
          "internalType": "uint256",
          "name": "amount",
          "type": "uint256"
        },
        {
          "internalType": "string",
          "name": "orig",
          "type": "string"
        },
        {
          "internalType": "string",
          "name": "dest",
          "type": "string"
        }
      ],
      "name": "swap",
      "outputs": [],
      "payable": true,
      "stateMutability": "payable",
      "type": "function"
    },
    {
      "constant": false,
      "inputs": [],
      "name": "getIdPivo",
      "outputs": [
        {
          "internalType": "uint256",
          "name": "",
          "type": "uint256"
        }
      ],
      "payable": false,
      "stateMutability": "nonpayable",
      "type": "function"
    },
    {
      "constant": true,
      "inputs": [],
      "name": "helloWorld",
      "outputs": [
        {
          "internalType": "string",
          "name": "",
          "type": "string"
        }
      ],
      "payable": false,
      "stateMutability": "view",
      "type": "function"
    },
    {
      "constant": false,
      "inputs": [],
      "name": "getBalanceOfToken1",
      "outputs": [
        {
          "internalType": "uint256",
          "name": "",
          "type": "uint256"
        }
      ],
      "payable": false,
      "stateMutability": "nonpayable",
      "type": "function"
    },
    {
      "constant": false,
      "inputs": [],
      "name": "getBalanceOfToken2",
      "outputs": [
        {
          "internalType": "uint256",
          "name": "",
          "type": "uint256"
        }
      ],
      "payable": false,
      "stateMutability": "nonpayable",
      "type": "function"
    },
    {
      "constant": false,
      "inputs": [],
      "name": "getBalanceOfToken3",
      "outputs": [
        {
          "internalType": "uint256",
          "name": "",
          "type": "uint256"
        }
      ],
      "payable": false,
      "stateMutability": "nonpayable",
      "type": "function"
    },
    {
      "constant": false,
      "inputs": [],
      "name": "getBalanceOfTotal",
      "outputs": [
        {
          "internalType": "uint256",
          "name": "",
          "type": "uint256"
        }
      ],
      "payable": false,
      "stateMutability": "nonpayable",
      "type": "function"
    },
    {
      "constant": false,
      "inputs": [],
      "name": "getRelationOfToken1",
      "outputs": [
        {
          "internalType": "uint256",
          "name": "",
          "type": "uint256"
        },
        {
          "internalType": "uint256",
          "name": "",
          "type": "uint256"
        }
      ],
      "payable": false,
      "stateMutability": "nonpayable",
      "type": "function"
    },
    {
      "constant": false,
      "inputs": [],
      "name": "getRelationOfToken2",
      "outputs": [
        {
          "internalType": "uint256",
          "name": "",
          "type": "uint256"
        },
        {
          "internalType": "uint256",
          "name": "",
          "type": "uint256"
        }
      ],
      "payable": false,
      "stateMutability": "nonpayable",
      "type": "function"
    },
    {
      "constant": false,
      "inputs": [],
      "name": "getRelationOfToken3",
      "outputs": [
        {
          "internalType": "uint256",
          "name": "",
          "type": "uint256"
        },
        {
          "internalType": "uint256",
          "name": "",
          "type": "uint256"
        }
      ],
      "payable": false,
      "stateMutability": "nonpayable",
      "type": "function"
    }
  ],
  "bytecode": "0x60806040526040518060400160405280601881526020017f4574685377617020496e7374616e742045786368616e67650000000000000000815250600090805190602001906200005192919062000e67565b5060646004556000600555600a6006553480156200006e57600080fd5b506040516200225738038062002257833981810160405260608110156200009457600080fd5b8101908080519060200190929190805190602001909291908051906020019092919050505082600160006101000a81548173ffffffffffffffffffffffffffffffffffffffff021916908373ffffffffffffffffffffffffffffffffffffffff16021790555081600260006101000a81548173ffffffffffffffffffffffffffffffffffffffff021916908373ffffffffffffffffffffffffffffffffffffffff16021790555080600360006101000a81548173ffffffffffffffffffffffffffffffffffffffff021916908373ffffffffffffffffffffffffffffffffffffffff16021790555033600760006101000a81548173ffffffffffffffffffffffffffffffffffffffff021916908373ffffffffffffffffffffffffffffffffffffffff160217905550620001cd620001d660201b60201c565b50505062000f16565b60006001620001ed60065462000dcc60201b60201c565b019050600060016200020760065462000dcc60201b60201c565b0190506000600282019050600060019050600284116200060157600160009054906101000a900473ffffffffffffffffffffffffffffffffffffffff1673ffffffffffffffffffffffffffffffffffffffff1663b9174c4c670de0b6b3a764000085026040518263ffffffff1660e01b815260040180828152602001915050600060405180830381600087803b158015620002a157600080fd5b505af1158015620002b6573d6000803e3d6000fd5b50505050600160009054906101000a900473ffffffffffffffffffffffffffffffffffffffff1673ffffffffffffffffffffffffffffffffffffffff16631dece9fd670de0b6b3a764000084026040518263ffffffff1660e01b815260040180828152602001915050600060405180830381600087803b1580156200033a57600080fd5b505af11580156200034f573d6000803e3d6000fd5b50505050600360009054906101000a900473ffffffffffffffffffffffffffffffffffffffff1673ffffffffffffffffffffffffffffffffffffffff166396e1182a620003ab848462000e4860201b620012de1790919060201c565b6040518263ffffffff1660e01b815260040180828152602001915050600060405180830381600087803b158015620003e257600080fd5b505af1158015620003f7573d6000803e3d6000fd5b50505050600260009054906101000a900473ffffffffffffffffffffffffffffffffffffffff1673ffffffffffffffffffffffffffffffffffffffff166378914dff62000453858462000e4860201b620012de1790919060201c565b6040518263ffffffff1660e01b815260040180828152602001915050600060405180830381600087803b1580156200048a57600080fd5b505af11580156200049f573d6000803e3d6000fd5b50505050600260009054906101000a900473ffffffffffffffffffffffffffffffffffffffff1673ffffffffffffffffffffffffffffffffffffffff1663768ad933620004fb858562000e4860201b620012de1790919060201c565b6040518263ffffffff1660e01b815260040180828152602001915050600060405180830381600087803b1580156200053257600080fd5b505af115801562000547573d6000803e3d6000fd5b50505050600360009054906101000a900473ffffffffffffffffffffffffffffffffffffffff1673ffffffffffffffffffffffffffffffffffffffff16639f6c37d6620005a3848662000e4860201b620012de1790919060201c565b6040518263ffffffff1660e01b815260040180828152602001915050600060405180830381600087803b158015620005da57600080fd5b505af1158015620005ef573d6000803e3d6000fd5b50505050600160058190555062000dc6565b60058411620009ea57600260009054906101000a900473ffffffffffffffffffffffffffffffffffffffff1673ffffffffffffffffffffffffffffffffffffffff166378914dff670de0b6b3a764000085026040518263ffffffff1660e01b815260040180828152602001915050600060405180830381600087803b1580156200068a57600080fd5b505af11580156200069f573d6000803e3d6000fd5b50505050600260009054906101000a900473ffffffffffffffffffffffffffffffffffffffff1673ffffffffffffffffffffffffffffffffffffffff1663768ad933670de0b6b3a764000084026040518263ffffffff1660e01b815260040180828152602001915050600060405180830381600087803b1580156200072357600080fd5b505af115801562000738573d6000803e3d6000fd5b50505050600160009054906101000a900473ffffffffffffffffffffffffffffffffffffffff1673ffffffffffffffffffffffffffffffffffffffff1663b9174c4c62000794858462000e4860201b620012de1790919060201c565b6040518263ffffffff1660e01b815260040180828152602001915050600060405180830381600087803b158015620007cb57600080fd5b505af1158015620007e0573d6000803e3d6000fd5b50505050600360009054906101000a900473ffffffffffffffffffffffffffffffffffffffff1673ffffffffffffffffffffffffffffffffffffffff16639f6c37d66200083c848462000e4860201b620012de1790919060201c565b6040518263ffffffff1660e01b815260040180828152602001915050600060405180830381600087803b1580156200087357600080fd5b505af115801562000888573d6000803e3d6000fd5b50505050600160009054906101000a900473ffffffffffffffffffffffffffffffffffffffff1673ffffffffffffffffffffffffffffffffffffffff16631dece9fd620008e4858562000e4860201b620012de1790919060201c565b6040518263ffffffff1660e01b815260040180828152602001915050600060405180830381600087803b1580156200091b57600080fd5b505af115801562000930573d6000803e3d6000fd5b50505050600360009054906101000a900473ffffffffffffffffffffffffffffffffffffffff1673ffffffffffffffffffffffffffffffffffffffff166396e1182a6200098c848662000e4860201b620012de1790919060201c565b6040518263ffffffff1660e01b815260040180828152602001915050600060405180830381600087803b158015620009c357600080fd5b505af1158015620009d8573d6000803e3d6000fd5b50505050600260058190555062000dc5565b600360009054906101000a900473ffffffffffffffffffffffffffffffffffffffff1673ffffffffffffffffffffffffffffffffffffffff166396e1182a670de0b6b3a764000085026040518263ffffffff1660e01b815260040180828152602001915050600060405180830381600087803b15801562000a6a57600080fd5b505af115801562000a7f573d6000803e3d6000fd5b50505050600360009054906101000a900473ffffffffffffffffffffffffffffffffffffffff1673ffffffffffffffffffffffffffffffffffffffff16639f6c37d6670de0b6b3a764000084026040518263ffffffff1660e01b815260040180828152602001915050600060405180830381600087803b15801562000b0357600080fd5b505af115801562000b18573d6000803e3d6000fd5b50505050600160009054906101000a900473ffffffffffffffffffffffffffffffffffffffff1673ffffffffffffffffffffffffffffffffffffffff16631dece9fd62000b74858462000e4860201b620012de1790919060201c565b6040518263ffffffff1660e01b815260040180828152602001915050600060405180830381600087803b15801562000bab57600080fd5b505af115801562000bc0573d6000803e3d6000fd5b50505050600260009054906101000a900473ffffffffffffffffffffffffffffffffffffffff1673ffffffffffffffffffffffffffffffffffffffff1663768ad93362000c1c848462000e4860201b620012de1790919060201c565b6040518263ffffffff1660e01b815260040180828152602001915050600060405180830381600087803b15801562000c5357600080fd5b505af115801562000c68573d6000803e3d6000fd5b50505050600160009054906101000a900473ffffffffffffffffffffffffffffffffffffffff1673ffffffffffffffffffffffffffffffffffffffff1663b9174c4c62000cc4858562000e4860201b620012de1790919060201c565b6040518263ffffffff1660e01b815260040180828152602001915050600060405180830381600087803b15801562000cfb57600080fd5b505af115801562000d10573d6000803e3d6000fd5b50505050600260009054906101000a900473ffffffffffffffffffffffffffffffffffffffff1673ffffffffffffffffffffffffffffffffffffffff166378914dff62000d6c848662000e4860201b620012de1790919060201c565b6040518263ffffffff1660e01b815260040180828152602001915050600060405180830381600087803b15801562000da357600080fd5b505af115801562000db8573d6000803e3d6000fd5b5050505060036005819055505b5b50505050565b600081423344604051602001808481526020018373ffffffffffffffffffffffffffffffffffffffff1673ffffffffffffffffffffffffffffffffffffffff1660601b815260140182815260200193505050506040516020818303038152906040528051906020012060001c8162000e4057fe5b069050919050565b600081670de0b6b3a764000084028162000e5e57fe5b04905092915050565b828054600181600116156101000203166002900490600052602060002090601f016020900481019282601f1062000eaa57805160ff191683800117855562000edb565b8280016001018555821562000edb579182015b8281111562000eda57825182559160200191906001019062000ebd565b5b50905062000eea919062000eee565b5090565b62000f1391905b8082111562000f0f57600081600090555060010162000ef5565b5090565b90565b6113318062000f266000396000f3fe6080604052600436106101095760003560e01c806378c64286116100955780639fd2dc13116100645780639fd2dc13146104ff578063a1a02b7c1461052a578063a5d7ea9d146106c6578063c605f76c146106f1578063eb691f8b1461078157610109565b806378c64286146103fb5780638a1f514d146104525780638da5cb5b1461047d5780638e105fc3146104d457610109565b80632c4e722e116100dc5780632c4e722e146102b15780633048547f146102dc578063392a113e1461030e57806361e8a487146103405780636494b027146103d057610109565b806306fdde031461010e5780630843d4001461019e5780630a28830f146101f55780631d3a40de1461025a575b600080fd5b34801561011a57600080fd5b506101236107b3565b6040518080602001828103825283818151815260200191508051906020019080838360005b83811015610163578082015181840152602081019050610148565b50505050905090810190601f1680156101905780820380516001836020036101000a031916815260200191505b509250505060405180910390f35b3480156101aa57600080fd5b506101b3610851565b604051808273ffffffffffffffffffffffffffffffffffffffff1673ffffffffffffffffffffffffffffffffffffffff16815260200191505060405180910390f35b34801561020157600080fd5b506102446004803603602081101561021857600080fd5b81019080803573ffffffffffffffffffffffffffffffffffffffff169060200190929190505050610877565b6040518082815260200191505060405180910390f35b34801561026657600080fd5b5061026f61088f565b604051808273ffffffffffffffffffffffffffffffffffffffff1673ffffffffffffffffffffffffffffffffffffffff16815260200191505060405180910390f35b3480156102bd57600080fd5b506102c66108b5565b6040518082815260200191505060405180910390f35b3480156102e857600080fd5b506102f16108bb565b604051808381526020018281526020019250505060405180910390f35b34801561031a57600080fd5b50610323610a10565b604051808381526020018281526020019250505060405180910390f35b34801561034c57600080fd5b50610355610b65565b6040518080602001828103825283818151815260200191508051906020019080838360005b8381101561039557808201518184015260208101905061037a565b50505050905090810190601f1680156103c25780820380516001836020036101000a031916815260200191505b509250505060405180910390f35b3480156103dc57600080fd5b506103e5610c03565b6040518082815260200191505060405180910390f35b34801561040757600080fd5b50610410610ce4565b604051808273ffffffffffffffffffffffffffffffffffffffff1673ffffffffffffffffffffffffffffffffffffffff16815260200191505060405180910390f35b34801561045e57600080fd5b50610467610d0a565b6040518082815260200191505060405180910390f35b34801561048957600080fd5b50610492610d14565b604051808273ffffffffffffffffffffffffffffffffffffffff1673ffffffffffffffffffffffffffffffffffffffff16815260200191505060405180910390f35b3480156104e057600080fd5b506104e9610d3a565b6040518082815260200191505060405180910390f35b34801561050b57600080fd5b50610514610e1b565b6040518082815260200191505060405180910390f35b6106c4600480360360a081101561054057600080fd5b81019080803573ffffffffffffffffffffffffffffffffffffffff169060200190929190803573ffffffffffffffffffffffffffffffffffffffff16906020019092919080359060200190929190803590602001906401000000008111156105a757600080fd5b8201836020820111156105b957600080fd5b803590602001918460018302840111640100000000831117156105db57600080fd5b91908080601f016020809104026020016040519081016040528093929190818152602001838380828437600081840152601f19601f8201169050808301925050505050505091929192908035906020019064010000000081111561063e57600080fd5b82018360208201111561065057600080fd5b8035906020019184600183028401116401000000008311171561067257600080fd5b91908080601f016020809104026020016040519081016040528093929190818152602001838380828437600081840152601f19601f820116905080830192505050505050509192919290505050610efc565b005b3480156106d257600080fd5b506106db61106b565b6040518082815260200191505060405180910390f35b3480156106fd57600080fd5b5061070661114c565b6040518080602001828103825283818151815260200191508051906020019080838360005b8381101561074657808201518184015260208101905061072b565b50505050905090810190601f1680156107735780820380516001836020036101000a031916815260200191505b509250505060405180910390f35b34801561078d57600080fd5b50610796611189565b604051808381526020018281526020019250505060405180910390f35b60008054600181600116156101000203166002900480601f0160208091040260200160405190810160405280929190818152602001828054600181600116156101000203166002900480156108495780601f1061081e57610100808354040283529160200191610849565b820191906000526020600020905b81548152906001019060200180831161082c57829003601f168201915b505050505081565b600160009054906101000a900473ffffffffffffffffffffffffffffffffffffffff1681565b60086020528060005260406000206000915090505481565b600360009054906101000a900473ffffffffffffffffffffffffffffffffffffffff1681565b60045481565b600080600160009054906101000a900473ffffffffffffffffffffffffffffffffffffffff1673ffffffffffffffffffffffffffffffffffffffff1663ff98b7a36040518163ffffffff1660e01b8152600401602060405180830381600087803b15801561092857600080fd5b505af115801561093c573d6000803e3d6000fd5b505050506040513d602081101561095257600080fd5b8101908080519060200190929190505050600160009054906101000a900473ffffffffffffffffffffffffffffffffffffffff1673ffffffffffffffffffffffffffffffffffffffff16634e1d1af26040518163ffffffff1660e01b8152600401602060405180830381600087803b1580156109cd57600080fd5b505af11580156109e1573d6000803e3d6000fd5b505050506040513d60208110156109f757600080fd5b8101908080519060200190929190505050915091509091565b600080600260009054906101000a900473ffffffffffffffffffffffffffffffffffffffff1673ffffffffffffffffffffffffffffffffffffffff16638d2de2466040518163ffffffff1660e01b8152600401602060405180830381600087803b158015610a7d57600080fd5b505af1158015610a91573d6000803e3d6000fd5b505050506040513d6020811015610aa757600080fd5b8101908080519060200190929190505050600260009054906101000a900473ffffffffffffffffffffffffffffffffffffffff1673ffffffffffffffffffffffffffffffffffffffff1663aac6c3b26040518163ffffffff1660e01b8152600401602060405180830381600087803b158015610b2257600080fd5b505af1158015610b36573d6000803e3d6000fd5b505050506040513d6020811015610b4c57600080fd5b8101908080519060200190929190505050915091509091565b60098054600181600116156101000203166002900480601f016020809104026020016040519081016040528092919081815260200182805460018160011615610100020316600290048015610bfb5780601f10610bd057610100808354040283529160200191610bfb565b820191906000526020600020905b815481529060010190602001808311610bde57829003601f168201915b505050505081565b6000600360009054906101000a900473ffffffffffffffffffffffffffffffffffffffff1673ffffffffffffffffffffffffffffffffffffffff1663b99152d0336040518263ffffffff1660e01b8152600401808273ffffffffffffffffffffffffffffffffffffffff1673ffffffffffffffffffffffffffffffffffffffff16815260200191505060206040518083038186803b158015610ca457600080fd5b505afa158015610cb8573d6000803e3d6000fd5b505050506040513d6020811015610cce57600080fd5b8101908080519060200190929190505050905090565b600260009054906101000a900473ffffffffffffffffffffffffffffffffffffffff1681565b6000600554905090565b600760009054906101000a900473ffffffffffffffffffffffffffffffffffffffff1681565b6000600360009054906101000a900473ffffffffffffffffffffffffffffffffffffffff1673ffffffffffffffffffffffffffffffffffffffff1663b99152d0336040518263ffffffff1660e01b8152600401808273ffffffffffffffffffffffffffffffffffffffff1673ffffffffffffffffffffffffffffffffffffffff16815260200191505060206040518083038186803b158015610ddb57600080fd5b505afa158015610def573d6000803e3d6000fd5b505050506040513d6020811015610e0557600080fd5b8101908080519060200190929190505050905090565b6000600160009054906101000a900473ffffffffffffffffffffffffffffffffffffffff1673ffffffffffffffffffffffffffffffffffffffff1663b99152d0336040518263ffffffff1660e01b8152600401808273ffffffffffffffffffffffffffffffffffffffff1673ffffffffffffffffffffffffffffffffffffffff16815260200191505060206040518083038186803b158015610ebc57600080fd5b505afa158015610ed0573d6000803e3d6000fd5b505050506040513d6020811015610ee657600080fd5b8101908080519060200190929190505050905090565b60405180807f5543414e41000000000000000000000000000000000000000000000000000000815250600501905060405180910390208280519060200120141561106457600160009054906101000a900473ffffffffffffffffffffffffffffffffffffffff1673ffffffffffffffffffffffffffffffffffffffff166323b872dd8686670de0b6b3a764000087026040518463ffffffff1660e01b8152600401808473ffffffffffffffffffffffffffffffffffffffff1673ffffffffffffffffffffffffffffffffffffffff1681526020018373ffffffffffffffffffffffffffffffffffffffff1673ffffffffffffffffffffffffffffffffffffffff1681526020018281526020019350505050602060405180830381600087803b15801561102757600080fd5b505af115801561103b573d6000803e3d6000fd5b505050506040513d602081101561105157600080fd5b8101908080519060200190929190505050505b5050505050565b6000600260009054906101000a900473ffffffffffffffffffffffffffffffffffffffff1673ffffffffffffffffffffffffffffffffffffffff1663b99152d0336040518263ffffffff1660e01b8152600401808273ffffffffffffffffffffffffffffffffffffffff1673ffffffffffffffffffffffffffffffffffffffff16815260200191505060206040518083038186803b15801561110c57600080fd5b505afa158015611120573d6000803e3d6000fd5b505050506040513d602081101561113657600080fd5b8101908080519060200190929190505050905090565b60606040518060400160405280600981526020017f4f6c61206d756e646f0000000000000000000000000000000000000000000000815250905090565b600080600360009054906101000a900473ffffffffffffffffffffffffffffffffffffffff1673ffffffffffffffffffffffffffffffffffffffff16636d69fc4a6040518163ffffffff1660e01b8152600401602060405180830381600087803b1580156111f657600080fd5b505af115801561120a573d6000803e3d6000fd5b505050506040513d602081101561122057600080fd5b8101908080519060200190929190505050600360009054906101000a900473ffffffffffffffffffffffffffffffffffffffff1673ffffffffffffffffffffffffffffffffffffffff16631275c38b6040518163ffffffff1660e01b8152600401602060405180830381600087803b15801561129b57600080fd5b505af11580156112af573d6000803e3d6000fd5b505050506040513d60208110156112c557600080fd5b8101908080519060200190929190505050915091509091565b600081670de0b6b3a76400008402816112f357fe5b0490509291505056fea265627a7a72315820031c96aabd8ff135a144477e8ce3af234bb228653bd357b72ae31734a24dccd164736f6c63430005100032",
  "source": "//SPDX-License-Identifier: GPL-3.0\npragma solidity >=0.4.16 <0.9.0;\n\nimport \"./Token.sol\";\nimport \"./Token2.sol\";\nimport \"./Token3.sol\";\nimport \"./SafeMath.sol\";\n\n\ncontract EthSwap\n{\n    using SafeMath for uint256;\n    string public name = \"EthSwap Instant Exchange\";\n    Token public ucana;\n    Token2 public ucanu;\n    Token3 public ucane;\n    uint public rate = 100;\n    uint256 constant WAD = 10**18;\n    uint256 idPivo = 0;\n    uint rangeLimit = 10;\n    address public owner;\n    mapping(address => uint256) public balanceOfToken1;\n    string public entrou;\n\n\n    event TokensPurchased(\n        address account,\n        address ucana,\n        uint amount,\n        uint rate\n    );\n\n    event TokensSold(\n        address account,\n        address ucana,\n        uint amount,\n        uint rate\n    );\n\n    constructor(Token _token, Token2 _ucanu, Token3 _ucane) public\n    {\n        ucana = _token;\n        ucanu = _ucanu;\n        ucane = _ucane;\n        owner = msg.sender;\n        sortPivo();\n    }\n\n    /*\n    \n    */\n    function swap(address _from, address _to, uint256 amount, string memory orig, string memory dest) public payable {\n        if (keccak256(bytes(orig)) == keccak256(\"UCANA\")) {\n            ucana.transferFrom(_from, _to, amount * WAD);\n//\n            //if (keccak256(bytes(dest)) == keccak256(\"UCANU\")) {\n            //    ucanu.transferFrom(_to, _from, ucana.getUmToken1EquivaleQuantosToken2() * amount);\n            //} else if (keccak256(bytes(dest)) == keccak256(\"UCANE\")) {\n            //    ucane.transferFrom(_to, _from, ucana.getUmToken1EquivaleQuantosToken3() * amount);\n            //}\n        }\n\n        //amount = amount;\n\n        //ucana.transferFrom(msg.sender, _to, msg.value);\n        //ucanu.transfer(msg.sender, amount * WAD);\n        //ucanu.transfer(_to, amount * WAD);\n        //sortPivo();\n    }\n\n\n    // function to give the right price value\n\n    function sortPivo() private {\n        uint256 sorted = random(rangeLimit) + 1;\n\n        uint256 equivalencia1 = random(rangeLimit) + 1;\n        uint256 equivalencia2 = equivalencia1 + 2;\n        uint256 const = 1;\n\n        if (sorted <= 2) {\n            // Token1 is the pivo UCANA\n\n            ucana.setUmToken1EquivaleQuantosToken2(equivalencia1 * WAD);\n            ucana.setUmToken1EquivaleQuantosToken3(equivalencia2 * WAD);\n\n            ucane.setUmToken3EquivaleQuantosToken1(const.divEly(equivalencia2));\n            ucanu.setUmToken2EquivaleQuantosToken1(const.divEly(equivalencia1));\n\n            ucanu.setUmToken2EquivaleQuantosToken3(equivalencia2.divEly(equivalencia1));\n            ucane.setUmToken3EquivaleQuantosToken2(equivalencia1.divEly(equivalencia2));\n            idPivo = 1;\n        } else if (sorted <= 5) {\n            // Token2 is the pivo UCANU\n\n            ucanu.setUmToken2EquivaleQuantosToken1(equivalencia1 * WAD);\n            ucanu.setUmToken2EquivaleQuantosToken3(equivalencia2 * WAD);\n\n            ucana.setUmToken1EquivaleQuantosToken2(const.divEly(equivalencia1));\n            ucane.setUmToken3EquivaleQuantosToken2(const.divEly(equivalencia2));\n\n            ucana.setUmToken1EquivaleQuantosToken3(equivalencia2.divEly(equivalencia1));\n            ucane.setUmToken3EquivaleQuantosToken1(equivalencia1.divEly(equivalencia2));\n            idPivo = 2;\n        } else {\n            // Token3 is the pivo UCANE\n\n            ucane.setUmToken3EquivaleQuantosToken1(equivalencia1 * WAD);\n            ucane.setUmToken3EquivaleQuantosToken2(equivalencia2 * WAD);\n\n            ucana.setUmToken1EquivaleQuantosToken3(const.divEly(equivalencia1));\n            ucanu.setUmToken2EquivaleQuantosToken3(const.divEly(equivalencia2));\n\n            ucana.setUmToken1EquivaleQuantosToken2(equivalencia2.divEly(equivalencia1));\n            ucanu.setUmToken2EquivaleQuantosToken1(equivalencia1.divEly(equivalencia2));\n            idPivo = 3;\n        }\n    }\n\n    function getIdPivo() public returns (uint256) {\n        return idPivo;\n    }\n\n    function random(uint mod) internal returns (uint) {\n        return uint(keccak256(abi.encodePacked(block.timestamp, msg.sender, block.difficulty))) % mod;\n    }\n\n    function helloWorld() public view returns(string memory) {\n        return \"Ola mundo\"; \n    }\n\n    function getBalanceOfToken1() public returns (uint256) {\n        return ucana.balanceOfToken(msg.sender);\n    }\n\n    function getBalanceOfToken2() public returns (uint256) {\n        return ucanu.balanceOfToken(msg.sender);\n    }\n\n    function getBalanceOfToken3() public returns (uint256) {\n        return ucane.balanceOfToken(msg.sender);\n    }\n\n    function getBalanceOfTotal() public returns (uint256) {\n        return ucane.balanceOfToken(msg.sender);\n    }\n\n    function getRelationOfToken1() public returns (uint256, uint256) {\n        return (ucana.getUmToken1EquivaleQuantosToken2(), ucana.getUmToken1EquivaleQuantosToken3());\n    }\n\n    function getRelationOfToken2() public returns (uint256, uint256) {\n        return (ucanu.getUmToken2EquivaleQuantosToken1(), ucanu.getUmToken2EquivaleQuantosToken3());\n    }\n\n    function getRelationOfToken3() public returns (uint256, uint256) {\n        return (ucane.getUmToken3EquivaleQuantosToken1(), ucane.getUmToken3EquivaleQuantosToken2());\n    }\n}",
  "sourcePath": "/home/ed/Downloads/EXCHANGE/ExechAux/src/contracts/EthSwap.sol",
  "compiler": {
    "name": "solc",
    "version": "0.5.16+commit.9c3226ce.Emscripten.clang"
  },
  "schemaVersion": "3.4.1",
  "updatedAt": "2021-07-06T23:44:15.318Z",
  "networkType": "ethereum",
  "devdoc": {
    "methods": {}
  },
  "userdoc": {
    "methods": {}
  }
}