{
  "contractName": "EthSwap",
  "abi": [
    {
      "inputs": [
        {
          "internalType": "contract Token",
          "name": "_token",
          "type": "address"
        },
        {
          "internalType": "contract Token2",
          "name": "_token2",
          "type": "address"
        },
        {
          "internalType": "contract Token3",
          "name": "_token3",
          "type": "address"
        }
      ],
      "payable": false,
      "stateMutability": "nonpayable",
      "type": "constructor"
    },
    {
      "anonymous": false,
      "inputs": [
        {
          "indexed": false,
          "internalType": "address",
          "name": "account",
          "type": "address"
        },
        {
          "indexed": false,
          "internalType": "address",
          "name": "token1",
          "type": "address"
        },
        {
          "indexed": false,
          "internalType": "uint256",
          "name": "amount",
          "type": "uint256"
        },
        {
          "indexed": false,
          "internalType": "uint256",
          "name": "rate",
          "type": "uint256"
        }
      ],
      "name": "TokensPurchased",
      "type": "event"
    },
    {
      "anonymous": false,
      "inputs": [
        {
          "indexed": false,
          "internalType": "address",
          "name": "account",
          "type": "address"
        },
        {
          "indexed": false,
          "internalType": "address",
          "name": "token1",
          "type": "address"
        },
        {
          "indexed": false,
          "internalType": "uint256",
          "name": "amount",
          "type": "uint256"
        },
        {
          "indexed": false,
          "internalType": "uint256",
          "name": "rate",
          "type": "uint256"
        }
      ],
      "name": "TokensSold",
      "type": "event"
    },
    {
      "constant": true,
      "inputs": [
        {
          "internalType": "address",
          "name": "",
          "type": "address"
        }
      ],
      "name": "balanceOfToken1",
      "outputs": [
        {
          "internalType": "uint256",
          "name": "",
          "type": "uint256"
        }
      ],
      "payable": false,
      "stateMutability": "view",
      "type": "function"
    },
    {
      "constant": true,
      "inputs": [],
      "name": "name",
      "outputs": [
        {
          "internalType": "string",
          "name": "",
          "type": "string"
        }
      ],
      "payable": false,
      "stateMutability": "view",
      "type": "function"
    },
    {
      "constant": true,
      "inputs": [],
      "name": "rate",
      "outputs": [
        {
          "internalType": "uint256",
          "name": "",
          "type": "uint256"
        }
      ],
      "payable": false,
      "stateMutability": "view",
      "type": "function"
    },
    {
      "constant": true,
      "inputs": [],
      "name": "token1",
      "outputs": [
        {
          "internalType": "contract Token",
          "name": "",
          "type": "address"
        }
      ],
      "payable": false,
      "stateMutability": "view",
      "type": "function"
    },
    {
      "constant": true,
      "inputs": [],
      "name": "token2",
      "outputs": [
        {
          "internalType": "contract Token2",
          "name": "",
          "type": "address"
        }
      ],
      "payable": false,
      "stateMutability": "view",
      "type": "function"
    },
    {
      "constant": true,
      "inputs": [],
      "name": "token3",
      "outputs": [
        {
          "internalType": "contract Token3",
          "name": "",
          "type": "address"
        }
      ],
      "payable": false,
      "stateMutability": "view",
      "type": "function"
    },
    {
      "constant": false,
      "inputs": [
        {
          "internalType": "address",
          "name": "_from",
          "type": "address"
        },
        {
          "internalType": "address",
          "name": "_to",
          "type": "address"
        },
        {
          "internalType": "uint256",
          "name": "amount",
          "type": "uint256"
        },
        {
          "internalType": "string",
          "name": "orig",
          "type": "string"
        },
        {
          "internalType": "string",
          "name": "dest",
          "type": "string"
        }
      ],
      "name": "swap",
      "outputs": [],
      "payable": true,
      "stateMutability": "payable",
      "type": "function"
    },
    {
      "constant": false,
      "inputs": [],
      "name": "getIdPivo",
      "outputs": [
        {
          "internalType": "uint256",
          "name": "",
          "type": "uint256"
        }
      ],
      "payable": false,
      "stateMutability": "nonpayable",
      "type": "function"
    },
    {
      "constant": true,
      "inputs": [],
      "name": "helloWorld",
      "outputs": [
        {
          "internalType": "string",
          "name": "",
          "type": "string"
        }
      ],
      "payable": false,
      "stateMutability": "view",
      "type": "function"
    },
    {
      "constant": false,
      "inputs": [],
      "name": "getBalanceOfToken1",
      "outputs": [
        {
          "internalType": "uint256",
          "name": "",
          "type": "uint256"
        }
      ],
      "payable": false,
      "stateMutability": "nonpayable",
      "type": "function"
    },
    {
      "constant": false,
      "inputs": [],
      "name": "getBalanceOfToken2",
      "outputs": [
        {
          "internalType": "uint256",
          "name": "",
          "type": "uint256"
        }
      ],
      "payable": false,
      "stateMutability": "nonpayable",
      "type": "function"
    },
    {
      "constant": false,
      "inputs": [],
      "name": "getBalanceOfToken3",
      "outputs": [
        {
          "internalType": "uint256",
          "name": "",
          "type": "uint256"
        }
      ],
      "payable": false,
      "stateMutability": "nonpayable",
      "type": "function"
    }
  ],
  "bytecode": "0x60806040526040518060400160405280601881526020017f4574685377617020496e7374616e742045786368616e67650000000000000000815250600090805190602001906200005192919062000185565b5060646004556000600555600a6006553480156200006e57600080fd5b5060405162001bae38038062001bae833981810160405260608110156200009457600080fd5b8101908080519060200190929190805190602001909291908051906020019092919050505082600160006101000a81548173ffffffffffffffffffffffffffffffffffffffff021916908373ffffffffffffffffffffffffffffffffffffffff16021790555081600260006101000a81548173ffffffffffffffffffffffffffffffffffffffff021916908373ffffffffffffffffffffffffffffffffffffffff16021790555080600360006101000a81548173ffffffffffffffffffffffffffffffffffffffff021916908373ffffffffffffffffffffffffffffffffffffffff16021790555050505062000234565b828054600181600116156101000203166002900490600052602060002090601f016020900481019282601f10620001c857805160ff1916838001178555620001f9565b82800160010185558215620001f9579182015b82811115620001f8578251825591602001919060010190620001db565b5b5090506200020891906200020c565b5090565b6200023191905b808211156200022d57600081600090555060010162000213565b5090565b90565b61196a80620002446000396000f3fe6080604052600436106100a75760003560e01c80639fd2dc13116100645780639fd2dc1314610279578063a1a02b7c146102a4578063a5d7ea9d14610440578063c605f76c1461046b578063d21220a7146104fb578063ef14101e14610552576100a7565b806306fdde03146100ac5780630a28830f1461013c57806325be124e146101a15780632c4e722e146101f85780636494b027146102235780638a1f514d1461024e575b600080fd5b3480156100b857600080fd5b506100c16105a9565b6040518080602001828103825283818151815260200191508051906020019080838360005b838110156101015780820151818401526020810190506100e6565b50505050905090810190601f16801561012e5780820380516001836020036101000a031916815260200191505b509250505060405180910390f35b34801561014857600080fd5b5061018b6004803603602081101561015f57600080fd5b81019080803573ffffffffffffffffffffffffffffffffffffffff169060200190929190505050610647565b6040518082815260200191505060405180910390f35b3480156101ad57600080fd5b506101b661065f565b604051808273ffffffffffffffffffffffffffffffffffffffff1673ffffffffffffffffffffffffffffffffffffffff16815260200191505060405180910390f35b34801561020457600080fd5b5061020d610685565b6040518082815260200191505060405180910390f35b34801561022f57600080fd5b5061023861068b565b6040518082815260200191505060405180910390f35b34801561025a57600080fd5b5061026361076c565b6040518082815260200191505060405180910390f35b34801561028557600080fd5b5061028e610776565b6040518082815260200191505060405180910390f35b61043e600480360360a08110156102ba57600080fd5b81019080803573ffffffffffffffffffffffffffffffffffffffff169060200190929190803573ffffffffffffffffffffffffffffffffffffffff169060200190929190803590602001909291908035906020019064010000000081111561032157600080fd5b82018360208201111561033357600080fd5b8035906020019184600183028401116401000000008311171561035557600080fd5b91908080601f016020809104026020016040519081016040528093929190818152602001838380828437600081840152601f19601f820116905080830192505050505050509192919290803590602001906401000000008111156103b857600080fd5b8201836020820111156103ca57600080fd5b803590602001918460018302840111640100000000831117156103ec57600080fd5b91908080601f016020809104026020016040519081016040528093929190818152602001838380828437600081840152601f19601f820116905080830192505050505050509192919290505050610857565b005b34801561044c57600080fd5b506104556117cb565b6040518082815260200191505060405180910390f35b34801561047757600080fd5b506104806118ac565b6040518080602001828103825283818151815260200191508051906020019080838360005b838110156104c05780820151818401526020810190506104a5565b50505050905090810190601f1680156104ed5780820380516001836020036101000a031916815260200191505b509250505060405180910390f35b34801561050757600080fd5b506105106118e9565b604051808273ffffffffffffffffffffffffffffffffffffffff1673ffffffffffffffffffffffffffffffffffffffff16815260200191505060405180910390f35b34801561055e57600080fd5b5061056761190f565b604051808273ffffffffffffffffffffffffffffffffffffffff1673ffffffffffffffffffffffffffffffffffffffff16815260200191505060405180910390f35b60008054600181600116156101000203166002900480601f01602080910402602001604051908101604052809291908181526020018280546001816001161561010002031660029004801561063f5780601f106106145761010080835404028352916020019161063f565b820191906000526020600020905b81548152906001019060200180831161062257829003601f168201915b505050505081565b60076020528060005260406000206000915090505481565b600260009054906101000a900473ffffffffffffffffffffffffffffffffffffffff1681565b60045481565b6000600360009054906101000a900473ffffffffffffffffffffffffffffffffffffffff1673ffffffffffffffffffffffffffffffffffffffff1663b99152d0336040518263ffffffff1660e01b8152600401808273ffffffffffffffffffffffffffffffffffffffff1673ffffffffffffffffffffffffffffffffffffffff16815260200191505060206040518083038186803b15801561072c57600080fd5b505afa158015610740573d6000803e3d6000fd5b505050506040513d602081101561075657600080fd5b8101908080519060200190929190505050905090565b6000600554905090565b6000600160009054906101000a900473ffffffffffffffffffffffffffffffffffffffff1673ffffffffffffffffffffffffffffffffffffffff1663b99152d0336040518263ffffffff1660e01b8152600401808273ffffffffffffffffffffffffffffffffffffffff1673ffffffffffffffffffffffffffffffffffffffff16815260200191505060206040518083038186803b15801561081757600080fd5b505afa15801561082b573d6000803e3d6000fd5b505050506040513d602081101561084157600080fd5b8101908080519060200190929190505050905090565b60405180807f5543414e410000000000000000000000000000000000000000000000000000008152506005019050604051809103902082805190602001201415610d7c57600160009054906101000a900473ffffffffffffffffffffffffffffffffffffffff1673ffffffffffffffffffffffffffffffffffffffff166323b872dd8686670de0b6b3a764000087026040518463ffffffff1660e01b8152600401808473ffffffffffffffffffffffffffffffffffffffff1673ffffffffffffffffffffffffffffffffffffffff1681526020018373ffffffffffffffffffffffffffffffffffffffff1673ffffffffffffffffffffffffffffffffffffffff1681526020018281526020019350505050602060405180830381600087803b15801561098257600080fd5b505af1158015610996573d6000803e3d6000fd5b505050506040513d60208110156109ac57600080fd5b81019080805190602001909291905050505060405180807f5543414e550000000000000000000000000000000000000000000000000000008152506005019050604051809103902081805190602001201415610b9c57600260009054906101000a900473ffffffffffffffffffffffffffffffffffffffff1673ffffffffffffffffffffffffffffffffffffffff1663a9059cbb86670de0b6b3a764000086600160009054906101000a900473ffffffffffffffffffffffffffffffffffffffff1673ffffffffffffffffffffffffffffffffffffffff1663ff98b7a36040518163ffffffff1660e01b8152600401602060405180830381600087803b158015610ab557600080fd5b505af1158015610ac9573d6000803e3d6000fd5b505050506040513d6020811015610adf57600080fd5b810190808051906020019092919050505002026040518363ffffffff1660e01b8152600401808373ffffffffffffffffffffffffffffffffffffffff1673ffffffffffffffffffffffffffffffffffffffff16815260200182815260200192505050602060405180830381600087803b158015610b5b57600080fd5b505af1158015610b6f573d6000803e3d6000fd5b505050506040513d6020811015610b8557600080fd5b810190808051906020019092919050505050610d77565b60405180807f5543414e450000000000000000000000000000000000000000000000000000008152506005019050604051809103902081805190602001201415610d7657600360009054906101000a900473ffffffffffffffffffffffffffffffffffffffff1673ffffffffffffffffffffffffffffffffffffffff1663a9059cbb86670de0b6b3a764000086600160009054906101000a900473ffffffffffffffffffffffffffffffffffffffff1673ffffffffffffffffffffffffffffffffffffffff16634e1d1af26040518163ffffffff1660e01b8152600401602060405180830381600087803b158015610c9357600080fd5b505af1158015610ca7573d6000803e3d6000fd5b505050506040513d6020811015610cbd57600080fd5b810190808051906020019092919050505002026040518363ffffffff1660e01b8152600401808373ffffffffffffffffffffffffffffffffffffffff1673ffffffffffffffffffffffffffffffffffffffff16815260200182815260200192505050602060405180830381600087803b158015610d3957600080fd5b505af1158015610d4d573d6000803e3d6000fd5b505050506040513d6020811015610d6357600080fd5b8101908080519060200190929190505050505b5b6117c4565b60405180807f5543414e5500000000000000000000000000000000000000000000000000000081525060050190506040518091039020828051906020012014156112a157600260009054906101000a900473ffffffffffffffffffffffffffffffffffffffff1673ffffffffffffffffffffffffffffffffffffffff166323b872dd8686670de0b6b3a764000087026040518463ffffffff1660e01b8152600401808473ffffffffffffffffffffffffffffffffffffffff1673ffffffffffffffffffffffffffffffffffffffff1681526020018373ffffffffffffffffffffffffffffffffffffffff1673ffffffffffffffffffffffffffffffffffffffff1681526020018281526020019350505050602060405180830381600087803b158015610ea757600080fd5b505af1158015610ebb573d6000803e3d6000fd5b505050506040513d6020811015610ed157600080fd5b81019080805190602001909291905050505060405180807f5543414e4100000000000000000000000000000000000000000000000000000081525060050190506040518091039020818051906020012014156110c157600160009054906101000a900473ffffffffffffffffffffffffffffffffffffffff1673ffffffffffffffffffffffffffffffffffffffff1663a9059cbb86670de0b6b3a764000086600260009054906101000a900473ffffffffffffffffffffffffffffffffffffffff1673ffffffffffffffffffffffffffffffffffffffff16638d2de2466040518163ffffffff1660e01b8152600401602060405180830381600087803b158015610fda57600080fd5b505af1158015610fee573d6000803e3d6000fd5b505050506040513d602081101561100457600080fd5b810190808051906020019092919050505002026040518363ffffffff1660e01b8152600401808373ffffffffffffffffffffffffffffffffffffffff1673ffffffffffffffffffffffffffffffffffffffff16815260200182815260200192505050602060405180830381600087803b15801561108057600080fd5b505af1158015611094573d6000803e3d6000fd5b505050506040513d60208110156110aa57600080fd5b81019080805190602001909291905050505061129c565b60405180807f5543414e45000000000000000000000000000000000000000000000000000000815250600501905060405180910390208180519060200120141561129b57600360009054906101000a900473ffffffffffffffffffffffffffffffffffffffff1673ffffffffffffffffffffffffffffffffffffffff1663a9059cbb86670de0b6b3a764000086600260009054906101000a900473ffffffffffffffffffffffffffffffffffffffff1673ffffffffffffffffffffffffffffffffffffffff1663aac6c3b26040518163ffffffff1660e01b8152600401602060405180830381600087803b1580156111b857600080fd5b505af11580156111cc573d6000803e3d6000fd5b505050506040513d60208110156111e257600080fd5b810190808051906020019092919050505002026040518363ffffffff1660e01b8152600401808373ffffffffffffffffffffffffffffffffffffffff1673ffffffffffffffffffffffffffffffffffffffff16815260200182815260200192505050602060405180830381600087803b15801561125e57600080fd5b505af1158015611272573d6000803e3d6000fd5b505050506040513d602081101561128857600080fd5b8101908080519060200190929190505050505b5b6117c3565b60405180807f5543414e4500000000000000000000000000000000000000000000000000000081525060050190506040518091039020828051906020012014156117c257600360009054906101000a900473ffffffffffffffffffffffffffffffffffffffff1673ffffffffffffffffffffffffffffffffffffffff166323b872dd8686670de0b6b3a764000087026040518463ffffffff1660e01b8152600401808473ffffffffffffffffffffffffffffffffffffffff1673ffffffffffffffffffffffffffffffffffffffff1681526020018373ffffffffffffffffffffffffffffffffffffffff1673ffffffffffffffffffffffffffffffffffffffff1681526020018281526020019350505050602060405180830381600087803b1580156113cc57600080fd5b505af11580156113e0573d6000803e3d6000fd5b505050506040513d60208110156113f657600080fd5b81019080805190602001909291905050505060405180807f5543414e4100000000000000000000000000000000000000000000000000000081525060050190506040518091039020818051906020012014156115e657600160009054906101000a900473ffffffffffffffffffffffffffffffffffffffff1673ffffffffffffffffffffffffffffffffffffffff1663a9059cbb86670de0b6b3a764000086600360009054906101000a900473ffffffffffffffffffffffffffffffffffffffff1673ffffffffffffffffffffffffffffffffffffffff16636d69fc4a6040518163ffffffff1660e01b8152600401602060405180830381600087803b1580156114ff57600080fd5b505af1158015611513573d6000803e3d6000fd5b505050506040513d602081101561152957600080fd5b810190808051906020019092919050505002026040518363ffffffff1660e01b8152600401808373ffffffffffffffffffffffffffffffffffffffff1673ffffffffffffffffffffffffffffffffffffffff16815260200182815260200192505050602060405180830381600087803b1580156115a557600080fd5b505af11580156115b9573d6000803e3d6000fd5b505050506040513d60208110156115cf57600080fd5b8101908080519060200190929190505050506117c1565b60405180807f5543414e5500000000000000000000000000000000000000000000000000000081525060050190506040518091039020818051906020012014156117c057600260009054906101000a900473ffffffffffffffffffffffffffffffffffffffff1673ffffffffffffffffffffffffffffffffffffffff1663a9059cbb86670de0b6b3a764000086600360009054906101000a900473ffffffffffffffffffffffffffffffffffffffff1673ffffffffffffffffffffffffffffffffffffffff16631275c38b6040518163ffffffff1660e01b8152600401602060405180830381600087803b1580156116dd57600080fd5b505af11580156116f1573d6000803e3d6000fd5b505050506040513d602081101561170757600080fd5b810190808051906020019092919050505002026040518363ffffffff1660e01b8152600401808373ffffffffffffffffffffffffffffffffffffffff1673ffffffffffffffffffffffffffffffffffffffff16815260200182815260200192505050602060405180830381600087803b15801561178357600080fd5b505af1158015611797573d6000803e3d6000fd5b505050506040513d60208110156117ad57600080fd5b8101908080519060200190929190505050505b5b5b5b5b5050505050565b6000600260009054906101000a900473ffffffffffffffffffffffffffffffffffffffff1673ffffffffffffffffffffffffffffffffffffffff1663b99152d0336040518263ffffffff1660e01b8152600401808273ffffffffffffffffffffffffffffffffffffffff1673ffffffffffffffffffffffffffffffffffffffff16815260200191505060206040518083038186803b15801561186c57600080fd5b505afa158015611880573d6000803e3d6000fd5b505050506040513d602081101561189657600080fd5b8101908080519060200190929190505050905090565b60606040518060400160405280600981526020017f4f6c61206d756e646f0000000000000000000000000000000000000000000000815250905090565b600160009054906101000a900473ffffffffffffffffffffffffffffffffffffffff1681565b600360009054906101000a900473ffffffffffffffffffffffffffffffffffffffff168156fea265627a7a72315820afdecd9baa0440e43c57be344b62a382f2b82ac251486fe9c8f7715ddafbff6264736f6c63430005100032",
  "source": "//SPDX-License-Identifier: GPL-3.0\npragma solidity >=0.4.16 <0.9.0;\n\nimport \"./Token.sol\";\nimport \"./Token2.sol\";\nimport \"./Token3.sol\";\n\n\n\ncontract EthSwap\n{\n    string public name = \"EthSwap Instant Exchange\";\n    Token public token1;\n    Token2 public token2;\n    Token3 public token3;\n    uint public rate = 100;\n    uint256 constant WAD = 10**18;\n    uint256 idPivo = 0;\n    uint rangeLimit = 10;\n    mapping(address => uint256) public balanceOfToken1;\n\n    event TokensPurchased(\n        address account,\n        address token1,\n        uint amount,\n        uint rate\n    );\n\n    event TokensSold(\n        address account,\n        address token1,\n        uint amount,\n        uint rate\n    );\n\n    constructor(Token _token, Token2 _token2, Token3 _token3) public\n    {\n        token1 = _token;\n        token2 = _token2;\n        token3 = _token3;\n    }\n\n\n    function swap(address _from, address _to, uint256 amount, string memory orig, string memory dest) public payable {\n        if (keccak256(bytes(orig)) == keccak256(\"UCANA\")) {\n            token1.transferFrom(_from, _to, amount * WAD);\n\n            if (keccak256(bytes(dest)) == keccak256(\"UCANU\")) {\n                token2.transfer(_from, token1.getUmToken1EquivaleQuantosToken2() * amount * WAD);\n            } else if (keccak256(bytes(dest)) == keccak256(\"UCANE\")) {\n                token3.transfer(_from, token1.getUmToken1EquivaleQuantosToken3() * amount * WAD);\n            }\n        }\n        else if (keccak256(bytes(orig)) == keccak256(\"UCANU\")) {\n            token2.transferFrom(_from, _to, amount * WAD);\n\n            if (keccak256(bytes(dest)) == keccak256(\"UCANA\")) {\n                token1.transfer(_from, token2.getUmToken2EquivaleQuantosToken1() * amount * WAD);\n            } else if (keccak256(bytes(dest)) == keccak256(\"UCANE\")) {\n                token3.transfer(_from, token2.getUmToken2EquivaleQuantosToken3() * amount * WAD);\n            }\n        }\n        else if (keccak256(bytes(orig)) == keccak256(\"UCANE\")) {\n            token3.transferFrom(_from, _to, amount * WAD);\n\n            if (keccak256(bytes(dest)) == keccak256(\"UCANA\")) {\n                token1.transfer(_from, token3.getUmToken3EquivaleQuantosToken1() * amount * WAD);\n            } else if (keccak256(bytes(dest)) == keccak256(\"UCANU\")) {\n                token2.transfer(_from, token3.getUmToken3EquivaleQuantosToken2() * amount * WAD);\n            }\n        }\n    }\n\n\n    // function to give the right price value\n\n    function sortPivo() private {\n        uint sorted = random(rangeLimit)+1;\n        uint equivalencia1 = (random(rangeLimit))+1;\n        uint equivalencia2 = (random(rangeLimit))+1;\n\n        if (sorted <= 2) {\n            // Token1 is the pivo\n            \n            token1.setUmToken1EquivaleQuantosToken2(equivalencia1 * WAD);\n            token1.setUmToken1EquivaleQuantosToken3(equivalencia2 * WAD);\n\n            token2.setUmToken2EquivaleQuantosToken1(wdiv(1, equivalencia1));\n            token3.setUmToken3EquivaleQuantosToken1(wdiv(1, equivalencia2));\n\n            token2.setUmToken2EquivaleQuantosToken3(wdiv(equivalencia2, equivalencia1));\n            token3.setUmToken3EquivaleQuantosToken2(wdiv(equivalencia1, equivalencia2));\n            idPivo = 1;\n        } else if (sorted <= 5) {\n            // Token2 is the pivo\n            \n            token2.setUmToken2EquivaleQuantosToken1(equivalencia1 * WAD);\n            token2.setUmToken2EquivaleQuantosToken3(equivalencia2 * WAD);\n\n            token1.setUmToken1EquivaleQuantosToken2(wdiv(1, equivalencia1));\n            token3.setUmToken3EquivaleQuantosToken1(wdiv(1, equivalencia2));\n\n            token1.setUmToken1EquivaleQuantosToken3(wdiv(equivalencia2, equivalencia1));\n            token3.setUmToken3EquivaleQuantosToken2(wdiv(equivalencia1, equivalencia2));\n            idPivo = 2;\n        } else {\n            // Token3 is the pivo\n            \n            token3.setUmToken3EquivaleQuantosToken1(equivalencia1 * WAD);\n            token3.setUmToken3EquivaleQuantosToken2(equivalencia2 * WAD);\n\n            token1.setUmToken1EquivaleQuantosToken3(wdiv(1, equivalencia1));\n            token2.setUmToken2EquivaleQuantosToken3(wdiv(1, equivalencia2));\n\n            token1.setUmToken1EquivaleQuantosToken3(wdiv(equivalencia2, equivalencia1));\n            token2.setUmToken2EquivaleQuantosToken3(wdiv(equivalencia1, equivalencia2));\n            idPivo = 3;\n        }\n    }\n\n    function getIdPivo() public returns (uint256) {\n        return idPivo;\n    }\n\n    \n\n    function wmul(uint256 x, uint256 y) internal pure returns (uint256 z) {\n        z = add(mul(x, y), WAD / 2) / WAD;\n    }\n\n    function mul(uint256 x, uint256 y) internal pure returns (uint256 z) {\n        require(y == 0 || (z = x * y) / y == x, \"ds-math-mul-overflow\");\n    }\n\n    function add(uint256 x, uint256 y) internal pure returns (uint256 z) {\n        require((z = x + y) >= x, \"ds-math-add-overflow\");\n    }\n\n    function wdiv(uint256 x, uint256 y) internal pure returns (uint256 z) {\n        z = add(mul(x, WAD), y / 2) / y;\n    }\n\n    function random(uint mod) internal returns (uint) {\n        return uint(keccak256(abi.encodePacked(block.timestamp, msg.sender, block.difficulty))) % mod;\n    }\n\n    function helloWorld() public view returns(string memory) {\n        return \"Ola mundo\"; \n    }\n\n    function getBalanceOfToken1() public returns (uint256) {\n        return token1.balanceOfToken(msg.sender);\n    }\n\n    function getBalanceOfToken2() public returns (uint256) {\n        return token2.balanceOfToken(msg.sender);\n    }\n\n    function getBalanceOfToken3() public returns (uint256) {\n        return token3.balanceOfToken(msg.sender);\n    }\n}",
  "sourcePath": "/home/ed/Downloads/EXCHANGE/ucan_exchange-master/src/contracts/EthSwap.sol",
  "compiler": {
    "name": "solc",
    "version": "0.5.16+commit.9c3226ce.Emscripten.clang"
  },
  "schemaVersion": "3.4.1",
  "updatedAt": "2021-06-23T09:22:39.831Z",
  "networkType": "ethereum",
  "devdoc": {
    "methods": {}
  },
  "userdoc": {
    "methods": {}
  }
}