{
  "contractName": "EthSwap",
  "abi": [
    {
      "inputs": [
        {
          "internalType": "contract Token",
          "name": "_token",
          "type": "address"
        },
        {
          "internalType": "contract Token2",
          "name": "_ucanu",
          "type": "address"
        },
        {
          "internalType": "contract Token3",
          "name": "_ucane",
          "type": "address"
        }
      ],
      "payable": false,
      "stateMutability": "nonpayable",
      "type": "constructor"
    },
    {
      "anonymous": false,
      "inputs": [
        {
          "indexed": false,
          "internalType": "bool",
          "name": "matchResult",
          "type": "bool"
        }
      ],
      "name": "placeOrderEvent",
      "type": "event"
    },
    {
      "constant": true,
      "inputs": [
        {
          "internalType": "uint256",
          "name": "",
          "type": "uint256"
        }
      ],
      "name": "buyOrders",
      "outputs": [
        {
          "internalType": "uint256",
          "name": "id",
          "type": "uint256"
        },
        {
          "internalType": "address",
          "name": "owner",
          "type": "address"
        },
        {
          "internalType": "string",
          "name": "targetTokenName",
          "type": "string"
        },
        {
          "internalType": "uint256",
          "name": "quantTokensTarget",
          "type": "uint256"
        },
        {
          "internalType": "string",
          "name": "offeredTokenName",
          "type": "string"
        },
        {
          "internalType": "uint256",
          "name": "quantTokensOffered",
          "type": "uint256"
        },
        {
          "internalType": "bool",
          "name": "isCompleted",
          "type": "bool"
        }
      ],
      "payable": false,
      "stateMutability": "view",
      "type": "function"
    },
    {
      "constant": true,
      "inputs": [],
      "name": "name",
      "outputs": [
        {
          "internalType": "string",
          "name": "",
          "type": "string"
        }
      ],
      "payable": false,
      "stateMutability": "view",
      "type": "function"
    },
    {
      "constant": true,
      "inputs": [],
      "name": "owner",
      "outputs": [
        {
          "internalType": "address",
          "name": "",
          "type": "address"
        }
      ],
      "payable": false,
      "stateMutability": "view",
      "type": "function"
    },
    {
      "constant": true,
      "inputs": [],
      "name": "pivoName",
      "outputs": [
        {
          "internalType": "string",
          "name": "",
          "type": "string"
        }
      ],
      "payable": false,
      "stateMutability": "view",
      "type": "function"
    },
    {
      "constant": true,
      "inputs": [
        {
          "internalType": "uint256",
          "name": "",
          "type": "uint256"
        }
      ],
      "name": "sellOrders",
      "outputs": [
        {
          "internalType": "uint256",
          "name": "id",
          "type": "uint256"
        },
        {
          "internalType": "address",
          "name": "owner",
          "type": "address"
        },
        {
          "internalType": "string",
          "name": "targetTokenName",
          "type": "string"
        },
        {
          "internalType": "uint256",
          "name": "quantTokensTarget",
          "type": "uint256"
        },
        {
          "internalType": "string",
          "name": "offeredTokenName",
          "type": "string"
        },
        {
          "internalType": "uint256",
          "name": "quantTokensOffered",
          "type": "uint256"
        },
        {
          "internalType": "bool",
          "name": "isCompleted",
          "type": "bool"
        }
      ],
      "payable": false,
      "stateMutability": "view",
      "type": "function"
    },
    {
      "constant": true,
      "inputs": [],
      "name": "ucana",
      "outputs": [
        {
          "internalType": "contract Token",
          "name": "",
          "type": "address"
        }
      ],
      "payable": false,
      "stateMutability": "view",
      "type": "function"
    },
    {
      "constant": true,
      "inputs": [],
      "name": "ucane",
      "outputs": [
        {
          "internalType": "contract Token3",
          "name": "",
          "type": "address"
        }
      ],
      "payable": false,
      "stateMutability": "view",
      "type": "function"
    },
    {
      "constant": true,
      "inputs": [],
      "name": "ucanu",
      "outputs": [
        {
          "internalType": "contract Token2",
          "name": "",
          "type": "address"
        }
      ],
      "payable": false,
      "stateMutability": "view",
      "type": "function"
    },
    {
      "constant": false,
      "inputs": [
        {
          "internalType": "string",
          "name": "_targetTokenName",
          "type": "string"
        },
        {
          "internalType": "uint256",
          "name": "_quantTokensTarget",
          "type": "uint256"
        },
        {
          "internalType": "string",
          "name": "_offeredTokenName",
          "type": "string"
        },
        {
          "internalType": "uint256",
          "name": "_quantTokensOffered",
          "type": "uint256"
        },
        {
          "internalType": "uint256",
          "name": "_orderType",
          "type": "uint256"
        }
      ],
      "name": "placeOrder",
      "outputs": [],
      "payable": false,
      "stateMutability": "nonpayable",
      "type": "function"
    },
    {
      "constant": false,
      "inputs": [],
      "name": "checkMatches",
      "outputs": [
        {
          "internalType": "bool",
          "name": "",
          "type": "bool"
        }
      ],
      "payable": true,
      "stateMutability": "payable",
      "type": "function"
    },
    {
      "constant": false,
      "inputs": [
        {
          "internalType": "address",
          "name": "_from",
          "type": "address"
        },
        {
          "internalType": "address",
          "name": "_to",
          "type": "address"
        },
        {
          "internalType": "uint256",
          "name": "amount",
          "type": "uint256"
        },
        {
          "internalType": "string",
          "name": "tokenName",
          "type": "string"
        }
      ],
      "name": "swap",
      "outputs": [],
      "payable": true,
      "stateMutability": "payable",
      "type": "function"
    },
    {
      "constant": false,
      "inputs": [
        {
          "internalType": "address",
          "name": "_from",
          "type": "address"
        },
        {
          "internalType": "uint256",
          "name": "amount",
          "type": "uint256"
        },
        {
          "internalType": "string",
          "name": "tokenName",
          "type": "string"
        }
      ],
      "name": "checkAmountReffered",
      "outputs": [],
      "payable": false,
      "stateMutability": "nonpayable",
      "type": "function"
    },
    {
      "constant": false,
      "inputs": [],
      "name": "getBalanceOfToken1",
      "outputs": [
        {
          "internalType": "uint256",
          "name": "",
          "type": "uint256"
        }
      ],
      "payable": false,
      "stateMutability": "nonpayable",
      "type": "function"
    },
    {
      "constant": false,
      "inputs": [],
      "name": "getBalanceOfToken2",
      "outputs": [
        {
          "internalType": "uint256",
          "name": "",
          "type": "uint256"
        }
      ],
      "payable": false,
      "stateMutability": "nonpayable",
      "type": "function"
    },
    {
      "constant": false,
      "inputs": [],
      "name": "getBalanceOfToken3",
      "outputs": [
        {
          "internalType": "uint256",
          "name": "",
          "type": "uint256"
        }
      ],
      "payable": false,
      "stateMutability": "nonpayable",
      "type": "function"
    },
    {
      "constant": false,
      "inputs": [],
      "name": "getBalanceInfo",
      "outputs": [
        {
          "internalType": "uint256",
          "name": "",
          "type": "uint256"
        },
        {
          "internalType": "uint256",
          "name": "",
          "type": "uint256"
        },
        {
          "internalType": "uint256",
          "name": "",
          "type": "uint256"
        },
        {
          "internalType": "uint256",
          "name": "",
          "type": "uint256"
        }
      ],
      "payable": false,
      "stateMutability": "nonpayable",
      "type": "function"
    },
    {
      "constant": false,
      "inputs": [],
      "name": "getRelationOfToken1",
      "outputs": [
        {
          "internalType": "uint256",
          "name": "",
          "type": "uint256"
        },
        {
          "internalType": "uint256",
          "name": "",
          "type": "uint256"
        }
      ],
      "payable": false,
      "stateMutability": "nonpayable",
      "type": "function"
    },
    {
      "constant": false,
      "inputs": [],
      "name": "getRelationOfToken2",
      "outputs": [
        {
          "internalType": "uint256",
          "name": "",
          "type": "uint256"
        },
        {
          "internalType": "uint256",
          "name": "",
          "type": "uint256"
        }
      ],
      "payable": false,
      "stateMutability": "nonpayable",
      "type": "function"
    },
    {
      "constant": false,
      "inputs": [],
      "name": "getRelationOfToken3",
      "outputs": [
        {
          "internalType": "uint256",
          "name": "",
          "type": "uint256"
        },
        {
          "internalType": "uint256",
          "name": "",
          "type": "uint256"
        }
      ],
      "payable": false,
      "stateMutability": "nonpayable",
      "type": "function"
    },
    {
      "constant": false,
      "inputs": [
        {
          "internalType": "uint256",
          "name": "_ucanu",
          "type": "uint256"
        },
        {
          "internalType": "uint256",
          "name": "_ucana",
          "type": "uint256"
        },
        {
          "internalType": "uint256",
          "name": "_ucane",
          "type": "uint256"
        }
      ],
      "name": "getPatrimonio",
      "outputs": [
        {
          "internalType": "uint256",
          "name": "",
          "type": "uint256"
        }
      ],
      "payable": false,
      "stateMutability": "nonpayable",
      "type": "function"
    },
    {
      "constant": false,
      "inputs": [],
      "name": "sortInitialPivo",
      "outputs": [],
      "payable": false,
      "stateMutability": "nonpayable",
      "type": "function"
    },
    {
      "constant": false,
      "inputs": [
        {
          "internalType": "string",
          "name": "pivo",
          "type": "string"
        }
      ],
      "name": "setNewPivo",
      "outputs": [],
      "payable": false,
      "stateMutability": "nonpayable",
      "type": "function"
    },
    {
      "constant": false,
      "inputs": [],
      "name": "getTotalValorNaBolsaUCANA",
      "outputs": [
        {
          "internalType": "uint256",
          "name": "",
          "type": "uint256"
        }
      ],
      "payable": false,
      "stateMutability": "nonpayable",
      "type": "function"
    },
    {
      "constant": false,
      "inputs": [],
      "name": "getTotalValorNaBolsaUCANU",
      "outputs": [
        {
          "internalType": "uint256",
          "name": "",
          "type": "uint256"
        }
      ],
      "payable": false,
      "stateMutability": "nonpayable",
      "type": "function"
    },
    {
      "constant": false,
      "inputs": [],
      "name": "getTotalValorNaBolsaUCANE",
      "outputs": [
        {
          "internalType": "uint256",
          "name": "",
          "type": "uint256"
        }
      ],
      "payable": false,
      "stateMutability": "nonpayable",
      "type": "function"
    },
    {
      "constant": false,
      "inputs": [
        {
          "internalType": "uint256",
          "name": "orderIndex",
          "type": "uint256"
        }
      ],
      "name": "getBuyOrder",
      "outputs": [
        {
          "internalType": "uint256",
          "name": "id",
          "type": "uint256"
        },
        {
          "internalType": "address",
          "name": "owner",
          "type": "address"
        },
        {
          "internalType": "string",
          "name": "targetTokenName",
          "type": "string"
        },
        {
          "internalType": "uint256",
          "name": "quantTokensTarget",
          "type": "uint256"
        },
        {
          "internalType": "string",
          "name": "offeredTokenName",
          "type": "string"
        },
        {
          "internalType": "uint256",
          "name": "quantTokensOffered",
          "type": "uint256"
        },
        {
          "internalType": "bool",
          "name": "isCompleted",
          "type": "bool"
        }
      ],
      "payable": false,
      "stateMutability": "nonpayable",
      "type": "function"
    },
    {
      "constant": false,
      "inputs": [
        {
          "internalType": "uint256",
          "name": "orderIndex",
          "type": "uint256"
        }
      ],
      "name": "getSellOrder",
      "outputs": [
        {
          "internalType": "uint256",
          "name": "id",
          "type": "uint256"
        },
        {
          "internalType": "address",
          "name": "owner",
          "type": "address"
        },
        {
          "internalType": "string",
          "name": "targetTokenName",
          "type": "string"
        },
        {
          "internalType": "uint256",
          "name": "quantTokensTarget",
          "type": "uint256"
        },
        {
          "internalType": "string",
          "name": "offeredTokenName",
          "type": "string"
        },
        {
          "internalType": "uint256",
          "name": "quantTokensOffered",
          "type": "uint256"
        },
        {
          "internalType": "bool",
          "name": "isCompleted",
          "type": "bool"
        }
      ],
      "payable": false,
      "stateMutability": "nonpayable",
      "type": "function"
    },
    {
      "constant": false,
      "inputs": [
        {
          "internalType": "uint256",
          "name": "orderIndex",
          "type": "uint256"
        }
      ],
      "name": "getMyBuyOrder",
      "outputs": [
        {
          "internalType": "int256",
          "name": "id",
          "type": "int256"
        },
        {
          "internalType": "address",
          "name": "owner",
          "type": "address"
        },
        {
          "internalType": "string",
          "name": "targetTokenName",
          "type": "string"
        },
        {
          "internalType": "uint256",
          "name": "quantTokensTarget",
          "type": "uint256"
        },
        {
          "internalType": "string",
          "name": "offeredTokenName",
          "type": "string"
        },
        {
          "internalType": "uint256",
          "name": "quantTokensOffered",
          "type": "uint256"
        },
        {
          "internalType": "bool",
          "name": "isCompleted",
          "type": "bool"
        }
      ],
      "payable": false,
      "stateMutability": "nonpayable",
      "type": "function"
    },
    {
      "constant": false,
      "inputs": [
        {
          "internalType": "uint256",
          "name": "orderIndex",
          "type": "uint256"
        }
      ],
      "name": "getMySellOrder",
      "outputs": [
        {
          "internalType": "int256",
          "name": "id",
          "type": "int256"
        },
        {
          "internalType": "address",
          "name": "owner",
          "type": "address"
        },
        {
          "internalType": "string",
          "name": "targetTokenName",
          "type": "string"
        },
        {
          "internalType": "uint256",
          "name": "quantTokensTarget",
          "type": "uint256"
        },
        {
          "internalType": "string",
          "name": "offeredTokenName",
          "type": "string"
        },
        {
          "internalType": "uint256",
          "name": "quantTokensOffered",
          "type": "uint256"
        },
        {
          "internalType": "bool",
          "name": "isCompleted",
          "type": "bool"
        }
      ],
      "payable": false,
      "stateMutability": "nonpayable",
      "type": "function"
    },
    {
      "constant": false,
      "inputs": [],
      "name": "getBuyOrdersSize",
      "outputs": [
        {
          "internalType": "uint256",
          "name": "",
          "type": "uint256"
        }
      ],
      "payable": false,
      "stateMutability": "nonpayable",
      "type": "function"
    },
    {
      "constant": false,
      "inputs": [],
      "name": "getSellOrdersSize",
      "outputs": [
        {
          "internalType": "uint256",
          "name": "",
          "type": "uint256"
        }
      ],
      "payable": false,
      "stateMutability": "nonpayable",
      "type": "function"
    }
  ],
  "bytecode": "0x60806040526040518060400160405280601881526020017f4574685377617020496e7374616e742045786368616e676500000000000000008152506000908051906020019062000051929190620001f3565b50600a60045560405180602001604052806000815250600690805190602001906200007e929190620001f3565b50600060075560006008556000600b553480156200009b57600080fd5b50604051620061953803806200619583398181016040526060811015620000c157600080fd5b8101908080519060200190929190805190602001909291908051906020019092919050505082600160006101000a81548173ffffffffffffffffffffffffffffffffffffffff021916908373ffffffffffffffffffffffffffffffffffffffff16021790555081600260006101000a81548173ffffffffffffffffffffffffffffffffffffffff021916908373ffffffffffffffffffffffffffffffffffffffff16021790555080600360006101000a81548173ffffffffffffffffffffffffffffffffffffffff021916908373ffffffffffffffffffffffffffffffffffffffff16021790555033600560006101000a81548173ffffffffffffffffffffffffffffffffffffffff021916908373ffffffffffffffffffffffffffffffffffffffff160217905550505050620002a2565b828054600181600116156101000203166002900490600052602060002090601f016020900481019282601f106200023657805160ff191683800117855562000267565b8280016001018555821562000267579182015b828111156200026657825182559160200191906001019062000249565b5b5090506200027691906200027a565b5090565b6200029f91905b808211156200029b57600081600090555060010162000281565b5090565b90565b615ee380620002b26000396000f3fe6080604052600436106101d85760003560e01c80636494b02711610102578063a5d7ea9d11610095578063d691f8a111610064578063d691f8a114611130578063df5d607214611222578063eb691f8b1461139f578063fc00e628146113d1576101d8565b8063a5d7ea9d14610dfd578063b1af1bda14610e28578063b5e40a0714610f9b578063c068421614610fbd576101d8565b80638e1c68fa116100d15780638e1c68fa14610cb4578063997a8f9814610cdf578063998ebac614610da75780639fd2dc1314610dd2576101d8565b80636494b02714610b7857806371146e1614610ba357806378c6428614610c065780638da5cb5b14610c5d576101d8565b80633048547f1161017a5780634a8393f3116101495780634a8393f31461076257806354067f41146108d55780635c0d089f146109da5780636243242414610b4d576101d8565b80633048547f1461041857806335cea2881461044a578063390ce0d3146105bd578063392a113e14610730576101d8565b806319e8ae8e116101b657806319e8ae8e146103545780631b4e6ad41461037f5780631d3a40de14610396578063292d26dd146103ed576101d8565b8063059c1210146101dd57806306fdde031461026d5780630843d400146102fd575b600080fd5b3480156101e957600080fd5b506101f2611411565b6040518080602001828103825283818151815260200191508051906020019080838360005b83811015610232578082015181840152602081019050610217565b50505050905090810190601f16801561025f5780820380516001836020036101000a031916815260200191505b509250505060405180910390f35b34801561027957600080fd5b506102826114af565b6040518080602001828103825283818151815260200191508051906020019080838360005b838110156102c25780820151818401526020810190506102a7565b50505050905090810190601f1680156102ef5780820380516001836020036101000a031916815260200191505b509250505060405180910390f35b34801561030957600080fd5b5061031261154d565b604051808273ffffffffffffffffffffffffffffffffffffffff1673ffffffffffffffffffffffffffffffffffffffff16815260200191505060405180910390f35b34801561036057600080fd5b50610369611573565b6040518082815260200191505060405180910390f35b34801561038b57600080fd5b5061039461157d565b005b3480156103a257600080fd5b506103ab6118c4565b604051808273ffffffffffffffffffffffffffffffffffffffff1673ffffffffffffffffffffffffffffffffffffffff16815260200191505060405180910390f35b3480156103f957600080fd5b506104026118ea565b6040518082815260200191505060405180910390f35b34801561042457600080fd5b5061042d6118f4565b604051808381526020018281526020019250505060405180910390f35b34801561045657600080fd5b506104836004803603602081101561046d57600080fd5b8101908080359060200190929190505050611a49565b604051808881526020018773ffffffffffffffffffffffffffffffffffffffff1673ffffffffffffffffffffffffffffffffffffffff168152602001806020018681526020018060200185815260200184151515158152602001838103835288818151815260200191508051906020019080838360005b838110156105155780820151818401526020810190506104fa565b50505050905090810190601f1680156105425780820380516001836020036101000a031916815260200191505b50838103825286818151815260200191508051906020019080838360005b8381101561057b578082015181840152602081019050610560565b50505050905090810190601f1680156105a85780820380516001836020036101000a031916815260200191505b50995050505050505050505060405180910390f35b3480156105c957600080fd5b506105f6600480360360208110156105e057600080fd5b8101908080359060200190929190505050611be8565b604051808881526020018773ffffffffffffffffffffffffffffffffffffffff1673ffffffffffffffffffffffffffffffffffffffff168152602001806020018681526020018060200185815260200184151515158152602001838103835288818151815260200191508051906020019080838360005b8381101561068857808201518184015260208101905061066d565b50505050905090810190601f1680156106b55780820380516001836020036101000a031916815260200191505b50838103825286818151815260200191508051906020019080838360005b838110156106ee5780820151818401526020810190506106d3565b50505050905090810190601f16801561071b5780820380516001836020036101000a031916815260200191505b50995050505050505050505060405180910390f35b34801561073c57600080fd5b50610745611e32565b604051808381526020018281526020019250505060405180910390f35b34801561076e57600080fd5b5061079b6004803603602081101561078557600080fd5b8101908080359060200190929190505050611f87565b604051808881526020018773ffffffffffffffffffffffffffffffffffffffff1673ffffffffffffffffffffffffffffffffffffffff168152602001806020018681526020018060200185815260200184151515158152602001838103835288818151815260200191508051906020019080838360005b8381101561082d578082015181840152602081019050610812565b50505050905090810190601f16801561085a5780820380516001836020036101000a031916815260200191505b50838103825286818151815260200191508051906020019080838360005b83811015610893578082015181840152602081019050610878565b50505050905090810190601f1680156108c05780820380516001836020036101000a031916815260200191505b50995050505050505050505060405180910390f35b6109d8600480360360808110156108eb57600080fd5b81019080803573ffffffffffffffffffffffffffffffffffffffff169060200190929190803573ffffffffffffffffffffffffffffffffffffffff169060200190929190803590602001909291908035906020019064010000000081111561095257600080fd5b82018360208201111561096457600080fd5b8035906020019184600183028401116401000000008311171561098657600080fd5b91908080601f016020809104026020016040519081016040528093929190818152602001838380828437600081840152601f19601f820116905080830192505050505050509192919290505050612126565b005b3480156109e657600080fd5b50610a13600480360360208110156109fd57600080fd5b810190808035906020019092919050505061250b565b604051808881526020018773ffffffffffffffffffffffffffffffffffffffff1673ffffffffffffffffffffffffffffffffffffffff168152602001806020018681526020018060200185815260200184151515158152602001838103835288818151815260200191508051906020019080838360005b83811015610aa5578082015181840152602081019050610a8a565b50505050905090810190601f168015610ad25780820380516001836020036101000a031916815260200191505b50838103825286818151815260200191508051906020019080838360005b83811015610b0b578082015181840152602081019050610af0565b50505050905090810190601f168015610b385780820380516001836020036101000a031916815260200191505b50995050505050505050505060405180910390f35b348015610b5957600080fd5b50610b626127ea565b6040518082815260200191505060405180910390f35b348015610b8457600080fd5b50610b8d6128cb565b6040518082815260200191505060405180910390f35b348015610baf57600080fd5b50610bf060048036036060811015610bc657600080fd5b810190808035906020019092919080359060200190929190803590602001909291905050506129ac565b6040518082815260200191505060405180910390f35b348015610c1257600080fd5b50610c1b612f56565b604051808273ffffffffffffffffffffffffffffffffffffffff1673ffffffffffffffffffffffffffffffffffffffff16815260200191505060405180910390f35b348015610c6957600080fd5b50610c72612f7c565b604051808273ffffffffffffffffffffffffffffffffffffffff1673ffffffffffffffffffffffffffffffffffffffff16815260200191505060405180910390f35b348015610cc057600080fd5b50610cc9612fa2565b6040518082815260200191505060405180910390f35b348015610ceb57600080fd5b50610da560048036036020811015610d0257600080fd5b8101908080359060200190640100000000811115610d1f57600080fd5b820183602082011115610d3157600080fd5b80359060200191846001830284011164010000000083111715610d5357600080fd5b91908080601f016020809104026020016040519081016040528093929190818152602001838380828437600081840152601f19601f820116905080830192505050505050509192919290505050613083565b005b348015610db357600080fd5b50610dbc613c3b565b6040518082815260200191505060405180910390f35b348015610dde57600080fd5b50610de7613d1c565b6040518082815260200191505060405180910390f35b348015610e0957600080fd5b50610e12613dfd565b6040518082815260200191505060405180910390f35b348015610e3457600080fd5b50610e6160048036036020811015610e4b57600080fd5b8101908080359060200190929190505050613ede565b604051808881526020018773ffffffffffffffffffffffffffffffffffffffff1673ffffffffffffffffffffffffffffffffffffffff168152602001806020018681526020018060200185815260200184151515158152602001838103835288818151815260200191508051906020019080838360005b83811015610ef3578082015181840152602081019050610ed8565b50505050905090810190601f168015610f205780820380516001836020036101000a031916815260200191505b50838103825286818151815260200191508051906020019080838360005b83811015610f59578082015181840152602081019050610f3e565b50505050905090810190601f168015610f865780820380516001836020036101000a031916815260200191505b50995050505050505050505060405180910390f35b610fa3614128565b604051808215151515815260200191505060405180910390f35b348015610fc957600080fd5b50610ff660048036036020811015610fe057600080fd5b81019080803590602001909291905050506149c6565b604051808881526020018773ffffffffffffffffffffffffffffffffffffffff1673ffffffffffffffffffffffffffffffffffffffff168152602001806020018681526020018060200185815260200184151515158152602001838103835288818151815260200191508051906020019080838360005b8381101561108857808201518184015260208101905061106d565b50505050905090810190601f1680156110b55780820380516001836020036101000a031916815260200191505b50838103825286818151815260200191508051906020019080838360005b838110156110ee5780820151818401526020810190506110d3565b50505050905090810190601f16801561111b5780820380516001836020036101000a031916815260200191505b50995050505050505050505060405180910390f35b34801561113c57600080fd5b506112206004803603606081101561115357600080fd5b81019080803573ffffffffffffffffffffffffffffffffffffffff169060200190929190803590602001909291908035906020019064010000000081111561119a57600080fd5b8201836020820111156111ac57600080fd5b803590602001918460018302840111640100000000831117156111ce57600080fd5b91908080601f016020809104026020016040519081016040528093929190818152602001838380828437600081840152601f19601f820116905080830192505050505050509192919290505050614ca5565b005b34801561122e57600080fd5b5061139d600480360360a081101561124557600080fd5b810190808035906020019064010000000081111561126257600080fd5b82018360208201111561127457600080fd5b8035906020019184600183028401116401000000008311171561129657600080fd5b91908080601f016020809104026020016040519081016040528093929190818152602001838380828437600081840152601f19601f820116905080830192505050505050509192919290803590602001909291908035906020019064010000000081111561130357600080fd5b82018360208201111561131557600080fd5b8035906020019184600183028401116401000000008311171561133757600080fd5b91908080601f016020809104026020016040519081016040528093929190818152602001838380828437600081840152601f19601f820116905080830192505050505050509192919290803590602001909291908035906020019092919050505061512b565b005b3480156113ab57600080fd5b506113b4615887565b604051808381526020018281526020019250505060405180910390f35b3480156113dd57600080fd5b506113e66159dc565b6040518085815260200184815260200183815260200182815260200194505050505060405180910390f35b60068054600181600116156101000203166002900480601f0160208091040260200160405190810160405280929190818152602001828054600181600116156101000203166002900480156114a75780601f1061147c576101008083540402835291602001916114a7565b820191906000526020600020905b81548152906001019060200180831161148a57829003601f168201915b505050505081565b60008054600181600116156101000203166002900480601f0160208091040260200160405190810160405280929190818152602001828054600181600116156101000203166002900480156115455780601f1061151a57610100808354040283529160200191611545565b820191906000526020600020905b81548152906001019060200180831161152857829003601f168201915b505050505081565b600160009054906101000a900473ffffffffffffffffffffffffffffffffffffffff1681565b6000600854905090565b60003073ffffffffffffffffffffffffffffffffffffffff16638e1c68fa6040518163ffffffff1660e01b8152600401602060405180830381600087803b1580156115c757600080fd5b505af11580156115db573d6000803e3d6000fd5b505050506040513d60208110156115f157600080fd5b8101908080519060200190929190505050905060003073ffffffffffffffffffffffffffffffffffffffff1663624324246040518163ffffffff1660e01b8152600401602060405180830381600087803b15801561164e57600080fd5b505af1158015611662573d6000803e3d6000fd5b505050506040513d602081101561167857600080fd5b8101908080519060200190929190505050905060003073ffffffffffffffffffffffffffffffffffffffff1663998ebac66040518163ffffffff1660e01b8152600401602060405180830381600087803b1580156116d557600080fd5b505af11580156116e9573d6000803e3d6000fd5b505050506040513d60208110156116ff57600080fd5b81019080805190602001909291905050509050818312801561172057508083125b15611776576040518060400160405280600581526020017f5543414e4100000000000000000000000000000000000000000000000000000081525060069080519060200190611770929190615d34565b5061181c565b8082136117ce576040518060400160405280600581526020017f5543414e45000000000000000000000000000000000000000000000000000000815250600690805190602001906117c8929190615d34565b5061181b565b6040518060400160405280600581526020017f5543414e5500000000000000000000000000000000000000000000000000000081525060069080519060200190611819929190615d34565b505b5b6118bf60068054600181600116156101000203166002900480601f0160208091040260200160405190810160405280929190818152602001828054600181600116156101000203166002900480156118b55780601f1061188a576101008083540402835291602001916118b5565b820191906000526020600020905b81548152906001019060200180831161189857829003601f168201915b5050505050613083565b505050565b600360009054906101000a900473ffffffffffffffffffffffffffffffffffffffff1681565b6000600754905090565b600080600160009054906101000a900473ffffffffffffffffffffffffffffffffffffffff1673ffffffffffffffffffffffffffffffffffffffff1663ff98b7a36040518163ffffffff1660e01b8152600401602060405180830381600087803b15801561196157600080fd5b505af1158015611975573d6000803e3d6000fd5b505050506040513d602081101561198b57600080fd5b8101908080519060200190929190505050600160009054906101000a900473ffffffffffffffffffffffffffffffffffffffff1673ffffffffffffffffffffffffffffffffffffffff16634e1d1af26040518163ffffffff1660e01b8152600401602060405180830381600087803b158015611a0657600080fd5b505af1158015611a1a573d6000803e3d6000fd5b505050506040513d6020811015611a3057600080fd5b8101908080519060200190929190505050915091509091565b60096020528060005260406000206000915090508060000154908060010160009054906101000a900473ffffffffffffffffffffffffffffffffffffffff1690806002018054600181600116156101000203166002900480601f016020809104026020016040519081016040528092919081815260200182805460018160011615610100020316600290048015611b215780601f10611af657610100808354040283529160200191611b21565b820191906000526020600020905b815481529060010190602001808311611b0457829003601f168201915b505050505090806003015490806004018054600181600116156101000203166002900480601f016020809104026020016040519081016040528092919081815260200182805460018160011615610100020316600290048015611bc55780601f10611b9a57610100808354040283529160200191611bc5565b820191906000526020600020905b815481529060010190602001808311611ba857829003601f168201915b5050505050908060050154908060060160009054906101000a900460ff16905087565b600080606060006060600080611bfc615db4565b600a60008a81526020019081526020016000206040518060e0016040529081600082015481526020016001820160009054906101000a900473ffffffffffffffffffffffffffffffffffffffff1673ffffffffffffffffffffffffffffffffffffffff1673ffffffffffffffffffffffffffffffffffffffff168152602001600282018054600181600116156101000203166002900480601f016020809104026020016040519081016040528092919081815260200182805460018160011615610100020316600290048015611d135780601f10611ce857610100808354040283529160200191611d13565b820191906000526020600020905b815481529060010190602001808311611cf657829003601f168201915b5050505050815260200160038201548152602001600482018054600181600116156101000203166002900480601f016020809104026020016040519081016040528092919081815260200182805460018160011615610100020316600290048015611dbf5780601f10611d9457610100808354040283529160200191611dbf565b820191906000526020600020905b815481529060010190602001808311611da257829003601f168201915b50505050508152602001600582015481526020016006820160009054906101000a900460ff1615151515815250509050806000015181602001518260400151836060015184608001518560a001518660c00151849450829250975097509750975097509750975050919395979092949650565b600080600260009054906101000a900473ffffffffffffffffffffffffffffffffffffffff1673ffffffffffffffffffffffffffffffffffffffff16638d2de2466040518163ffffffff1660e01b8152600401602060405180830381600087803b158015611e9f57600080fd5b505af1158015611eb3573d6000803e3d6000fd5b505050506040513d6020811015611ec957600080fd5b8101908080519060200190929190505050600260009054906101000a900473ffffffffffffffffffffffffffffffffffffffff1673ffffffffffffffffffffffffffffffffffffffff1663aac6c3b26040518163ffffffff1660e01b8152600401602060405180830381600087803b158015611f4457600080fd5b505af1158015611f58573d6000803e3d6000fd5b505050506040513d6020811015611f6e57600080fd5b8101908080519060200190929190505050915091509091565b600a6020528060005260406000206000915090508060000154908060010160009054906101000a900473ffffffffffffffffffffffffffffffffffffffff1690806002018054600181600116156101000203166002900480601f01602080910402602001604051908101604052809291908181526020018280546001816001161561010002031660029004801561205f5780601f106120345761010080835404028352916020019161205f565b820191906000526020600020905b81548152906001019060200180831161204257829003601f168201915b505050505090806003015490806004018054600181600116156101000203166002900480601f0160208091040260200160405190810160405280929190818152602001828054600181600116156101000203166002900480156121035780601f106120d857610100808354040283529160200191612103565b820191906000526020600020905b8154815290600101906020018083116120e657829003601f168201915b5050505050908060050154908060060160009054906101000a900460ff16905087565b60405180807f5543414e41000000000000000000000000000000000000000000000000000000815250600501905060405180910390208180519060200120141561228857600160009054906101000a900473ffffffffffffffffffffffffffffffffffffffff1673ffffffffffffffffffffffffffffffffffffffff166323b872dd8585856040518463ffffffff1660e01b8152600401808473ffffffffffffffffffffffffffffffffffffffff1673ffffffffffffffffffffffffffffffffffffffff1681526020018373ffffffffffffffffffffffffffffffffffffffff1673ffffffffffffffffffffffffffffffffffffffff1681526020018281526020019350505050602060405180830381600087803b15801561224757600080fd5b505af115801561225b573d6000803e3d6000fd5b505050506040513d602081101561227157600080fd5b810190808051906020019092919050505050612505565b60405180807f5543414e5500000000000000000000000000000000000000000000000000000081525060050190506040518091039020818051906020012014156123ea57600260009054906101000a900473ffffffffffffffffffffffffffffffffffffffff1673ffffffffffffffffffffffffffffffffffffffff166323b872dd8585856040518463ffffffff1660e01b8152600401808473ffffffffffffffffffffffffffffffffffffffff1673ffffffffffffffffffffffffffffffffffffffff1681526020018373ffffffffffffffffffffffffffffffffffffffff1673ffffffffffffffffffffffffffffffffffffffff1681526020018281526020019350505050602060405180830381600087803b1580156123a957600080fd5b505af11580156123bd573d6000803e3d6000fd5b505050506040513d60208110156123d357600080fd5b810190808051906020019092919050505050612504565b600360009054906101000a900473ffffffffffffffffffffffffffffffffffffffff1673ffffffffffffffffffffffffffffffffffffffff166323b872dd8585856040518463ffffffff1660e01b8152600401808473ffffffffffffffffffffffffffffffffffffffff1673ffffffffffffffffffffffffffffffffffffffff1681526020018373ffffffffffffffffffffffffffffffffffffffff1673ffffffffffffffffffffffffffffffffffffffff1681526020018281526020019350505050602060405180830381600087803b1580156124c757600080fd5b505af11580156124db573d6000803e3d6000fd5b505050506040513d60208110156124f157600080fd5b8101908080519060200190929190505050505b5b50505050565b60008060606000606060008061251f615db4565b600960008a81526020019081526020016000206040518060e0016040529081600082015481526020016001820160009054906101000a900473ffffffffffffffffffffffffffffffffffffffff1673ffffffffffffffffffffffffffffffffffffffff1673ffffffffffffffffffffffffffffffffffffffff168152602001600282018054600181600116156101000203166002900480601f0160208091040260200160405190810160405280929190818152602001828054600181600116156101000203166002900480156126365780601f1061260b57610100808354040283529160200191612636565b820191906000526020600020905b81548152906001019060200180831161261957829003601f168201915b5050505050815260200160038201548152602001600482018054600181600116156101000203166002900480601f0160208091040260200160405190810160405280929190818152602001828054600181600116156101000203166002900480156126e25780601f106126b7576101008083540402835291602001916126e2565b820191906000526020600020905b8154815290600101906020018083116126c557829003601f168201915b50505050508152602001600582015481526020016006820160009054906101000a900460ff16151515158152505090503373ffffffffffffffffffffffffffffffffffffffff16816020015173ffffffffffffffffffffffffffffffffffffffff16141561278757806000015181602001518260400151836060015184608001518560a001518660c001518494508292509750975097509750975097509750506127df565b7fffffffffffffffffffffffffffffffffffffffffffffffffffffffffffffffff81602001518260400151836060015184608001518560a001518660c001518696508494508292509750975097509750975097509750505b919395979092949650565b6000600360009054906101000a900473ffffffffffffffffffffffffffffffffffffffff1673ffffffffffffffffffffffffffffffffffffffff166370a08231306040518263ffffffff1660e01b8152600401808273ffffffffffffffffffffffffffffffffffffffff1673ffffffffffffffffffffffffffffffffffffffff16815260200191505060206040518083038186803b15801561288b57600080fd5b505afa15801561289f573d6000803e3d6000fd5b505050506040513d60208110156128b557600080fd5b8101908080519060200190929190505050905090565b6000600360009054906101000a900473ffffffffffffffffffffffffffffffffffffffff1673ffffffffffffffffffffffffffffffffffffffff1663b99152d0336040518263ffffffff1660e01b8152600401808273ffffffffffffffffffffffffffffffffffffffff1673ffffffffffffffffffffffffffffffffffffffff16815260200191505060206040518083038186803b15801561296c57600080fd5b505afa158015612980573d6000803e3d6000fd5b505050506040513d602081101561299657600080fd5b8101908080519060200190929190505050905090565b600060405180807f5543414e410000000000000000000000000000000000000000000000000000008152506005019050604051809103902060066040518082805460018160011615610100020316600290048015612a415780601f10612a1f576101008083540402835291820191612a41565b820191906000526020600020905b815481529060010190602001808311612a2d575b505091505060405180910390201415612bc757600160009054906101000a900473ffffffffffffffffffffffffffffffffffffffff1673ffffffffffffffffffffffffffffffffffffffff16634e1d1af26040518163ffffffff1660e01b8152600401602060405180830381600087803b158015612abe57600080fd5b505af1158015612ad2573d6000803e3d6000fd5b505050506040513d6020811015612ae857600080fd5b81019080805190602001909291905050508281612b0157fe5b04600160009054906101000a900473ffffffffffffffffffffffffffffffffffffffff1673ffffffffffffffffffffffffffffffffffffffff1663ff98b7a36040518163ffffffff1660e01b8152600401602060405180830381600087803b158015612b6c57600080fd5b505af1158015612b80573d6000803e3d6000fd5b505050506040513d6020811015612b9657600080fd5b810190808051906020019092919050505085670de0b6b3a76400006001020281612bbc57fe5b048401019050612f4f565b60405180807f5543414e550000000000000000000000000000000000000000000000000000008152506005019050604051809103902060066040518082805460018160011615610100020316600290048015612c5a5780601f10612c38576101008083540402835291820191612c5a565b820191906000526020600020905b815481529060010190602001808311612c46575b505091505060405180910390201415612de057600260009054906101000a900473ffffffffffffffffffffffffffffffffffffffff1673ffffffffffffffffffffffffffffffffffffffff1663aac6c3b26040518163ffffffff1660e01b8152600401602060405180830381600087803b158015612cd757600080fd5b505af1158015612ceb573d6000803e3d6000fd5b505050506040513d6020811015612d0157600080fd5b81019080805190602001909291905050508281612d1a57fe5b04600260009054906101000a900473ffffffffffffffffffffffffffffffffffffffff1673ffffffffffffffffffffffffffffffffffffffff16638d2de2466040518163ffffffff1660e01b8152600401602060405180830381600087803b158015612d8557600080fd5b505af1158015612d99573d6000803e3d6000fd5b505050506040513d6020811015612daf57600080fd5b810190808051906020019092919050505084670de0b6b3a76400006001020281612dd557fe5b048501019050612f4f565b600360009054906101000a900473ffffffffffffffffffffffffffffffffffffffff1673ffffffffffffffffffffffffffffffffffffffff16631275c38b6040518163ffffffff1660e01b8152600401602060405180830381600087803b158015612e4a57600080fd5b505af1158015612e5e573d6000803e3d6000fd5b505050506040513d6020811015612e7457600080fd5b81019080805190602001909291905050508481612e8d57fe5b04600360009054906101000a900473ffffffffffffffffffffffffffffffffffffffff1673ffffffffffffffffffffffffffffffffffffffff16636d69fc4a6040518163ffffffff1660e01b8152600401602060405180830381600087803b158015612ef857600080fd5b505af1158015612f0c573d6000803e3d6000fd5b505050506040513d6020811015612f2257600080fd5b810190808051906020019092919050505084670de0b6b3a76400006001020281612f4857fe5b0483010190505b9392505050565b600260009054906101000a900473ffffffffffffffffffffffffffffffffffffffff1681565b600560009054906101000a900473ffffffffffffffffffffffffffffffffffffffff1681565b6000600160009054906101000a900473ffffffffffffffffffffffffffffffffffffffff1673ffffffffffffffffffffffffffffffffffffffff166370a08231306040518263ffffffff1660e01b8152600401808273ffffffffffffffffffffffffffffffffffffffff1673ffffffffffffffffffffffffffffffffffffffff16815260200191505060206040518083038186803b15801561304357600080fd5b505afa158015613057573d6000803e3d6000fd5b505050506040513d602081101561306d57600080fd5b8101908080519060200190929190505050905090565b60006001905060006002613098600454615c9b565b019050600060028201905060405180807f5543414e41000000000000000000000000000000000000000000000000000000815250600501905060405180910390208480519060200120141561349657600160009054906101000a900473ffffffffffffffffffffffffffffffffffffffff1673ffffffffffffffffffffffffffffffffffffffff1663b9174c4c670de0b6b3a764000084026040518263ffffffff1660e01b815260040180828152602001915050600060405180830381600087803b15801561316657600080fd5b505af115801561317a573d6000803e3d6000fd5b50505050600160009054906101000a900473ffffffffffffffffffffffffffffffffffffffff1673ffffffffffffffffffffffffffffffffffffffff16631dece9fd670de0b6b3a764000083026040518263ffffffff1660e01b815260040180828152602001915050600060405180830381600087803b1580156131fd57600080fd5b505af1158015613211573d6000803e3d6000fd5b50505050600360009054906101000a900473ffffffffffffffffffffffffffffffffffffffff1673ffffffffffffffffffffffffffffffffffffffff166396e1182a6132668386615d1690919063ffffffff16565b6040518263ffffffff1660e01b815260040180828152602001915050600060405180830381600087803b15801561329c57600080fd5b505af11580156132b0573d6000803e3d6000fd5b50505050600260009054906101000a900473ffffffffffffffffffffffffffffffffffffffff1673ffffffffffffffffffffffffffffffffffffffff166378914dff6133058486615d1690919063ffffffff16565b6040518263ffffffff1660e01b815260040180828152602001915050600060405180830381600087803b15801561333b57600080fd5b505af115801561334f573d6000803e3d6000fd5b50505050600260009054906101000a900473ffffffffffffffffffffffffffffffffffffffff1673ffffffffffffffffffffffffffffffffffffffff1663768ad9336133a48484615d1690919063ffffffff16565b6040518263ffffffff1660e01b815260040180828152602001915050600060405180830381600087803b1580156133da57600080fd5b505af11580156133ee573d6000803e3d6000fd5b50505050600360009054906101000a900473ffffffffffffffffffffffffffffffffffffffff1673ffffffffffffffffffffffffffffffffffffffff16639f6c37d66134438385615d1690919063ffffffff16565b6040518263ffffffff1660e01b815260040180828152602001915050600060405180830381600087803b15801561347957600080fd5b505af115801561348d573d6000803e3d6000fd5b50505050613c35565b60405180807f5543414e55000000000000000000000000000000000000000000000000000000815250600501905060405180910390208480519060200120141561388957600260009054906101000a900473ffffffffffffffffffffffffffffffffffffffff1673ffffffffffffffffffffffffffffffffffffffff166378914dff670de0b6b3a764000084026040518263ffffffff1660e01b815260040180828152602001915050600060405180830381600087803b15801561355957600080fd5b505af115801561356d573d6000803e3d6000fd5b50505050600260009054906101000a900473ffffffffffffffffffffffffffffffffffffffff1673ffffffffffffffffffffffffffffffffffffffff1663768ad933670de0b6b3a764000083026040518263ffffffff1660e01b815260040180828152602001915050600060405180830381600087803b1580156135f057600080fd5b505af1158015613604573d6000803e3d6000fd5b50505050600160009054906101000a900473ffffffffffffffffffffffffffffffffffffffff1673ffffffffffffffffffffffffffffffffffffffff1663b9174c4c6136598486615d1690919063ffffffff16565b6040518263ffffffff1660e01b815260040180828152602001915050600060405180830381600087803b15801561368f57600080fd5b505af11580156136a3573d6000803e3d6000fd5b50505050600360009054906101000a900473ffffffffffffffffffffffffffffffffffffffff1673ffffffffffffffffffffffffffffffffffffffff16639f6c37d66136f88386615d1690919063ffffffff16565b6040518263ffffffff1660e01b815260040180828152602001915050600060405180830381600087803b15801561372e57600080fd5b505af1158015613742573d6000803e3d6000fd5b50505050600160009054906101000a900473ffffffffffffffffffffffffffffffffffffffff1673ffffffffffffffffffffffffffffffffffffffff16631dece9fd6137978484615d1690919063ffffffff16565b6040518263ffffffff1660e01b815260040180828152602001915050600060405180830381600087803b1580156137cd57600080fd5b505af11580156137e1573d6000803e3d6000fd5b50505050600360009054906101000a900473ffffffffffffffffffffffffffffffffffffffff1673ffffffffffffffffffffffffffffffffffffffff166396e1182a6138368385615d1690919063ffffffff16565b6040518263ffffffff1660e01b815260040180828152602001915050600060405180830381600087803b15801561386c57600080fd5b505af1158015613880573d6000803e3d6000fd5b50505050613c34565b600360009054906101000a900473ffffffffffffffffffffffffffffffffffffffff1673ffffffffffffffffffffffffffffffffffffffff166396e1182a670de0b6b3a764000084026040518263ffffffff1660e01b815260040180828152602001915050600060405180830381600087803b15801561390857600080fd5b505af115801561391c573d6000803e3d6000fd5b50505050600360009054906101000a900473ffffffffffffffffffffffffffffffffffffffff1673ffffffffffffffffffffffffffffffffffffffff16639f6c37d6670de0b6b3a764000083026040518263ffffffff1660e01b815260040180828152602001915050600060405180830381600087803b15801561399f57600080fd5b505af11580156139b3573d6000803e3d6000fd5b50505050600160009054906101000a900473ffffffffffffffffffffffffffffffffffffffff1673ffffffffffffffffffffffffffffffffffffffff16631dece9fd613a088486615d1690919063ffffffff16565b6040518263ffffffff1660e01b815260040180828152602001915050600060405180830381600087803b158015613a3e57600080fd5b505af1158015613a52573d6000803e3d6000fd5b50505050600260009054906101000a900473ffffffffffffffffffffffffffffffffffffffff1673ffffffffffffffffffffffffffffffffffffffff1663768ad933613aa78386615d1690919063ffffffff16565b6040518263ffffffff1660e01b815260040180828152602001915050600060405180830381600087803b158015613add57600080fd5b505af1158015613af1573d6000803e3d6000fd5b50505050600160009054906101000a900473ffffffffffffffffffffffffffffffffffffffff1673ffffffffffffffffffffffffffffffffffffffff1663b9174c4c613b468484615d1690919063ffffffff16565b6040518263ffffffff1660e01b815260040180828152602001915050600060405180830381600087803b158015613b7c57600080fd5b505af1158015613b90573d6000803e3d6000fd5b50505050600260009054906101000a900473ffffffffffffffffffffffffffffffffffffffff1673ffffffffffffffffffffffffffffffffffffffff166378914dff613be58385615d1690919063ffffffff16565b6040518263ffffffff1660e01b815260040180828152602001915050600060405180830381600087803b158015613c1b57600080fd5b505af1158015613c2f573d6000803e3d6000fd5b505050505b5b50505050565b6000600260009054906101000a900473ffffffffffffffffffffffffffffffffffffffff1673ffffffffffffffffffffffffffffffffffffffff166370a08231306040518263ffffffff1660e01b8152600401808273ffffffffffffffffffffffffffffffffffffffff1673ffffffffffffffffffffffffffffffffffffffff16815260200191505060206040518083038186803b158015613cdc57600080fd5b505afa158015613cf0573d6000803e3d6000fd5b505050506040513d6020811015613d0657600080fd5b8101908080519060200190929190505050905090565b6000600160009054906101000a900473ffffffffffffffffffffffffffffffffffffffff1673ffffffffffffffffffffffffffffffffffffffff1663b99152d0336040518263ffffffff1660e01b8152600401808273ffffffffffffffffffffffffffffffffffffffff1673ffffffffffffffffffffffffffffffffffffffff16815260200191505060206040518083038186803b158015613dbd57600080fd5b505afa158015613dd1573d6000803e3d6000fd5b505050506040513d6020811015613de757600080fd5b8101908080519060200190929190505050905090565b6000600260009054906101000a900473ffffffffffffffffffffffffffffffffffffffff1673ffffffffffffffffffffffffffffffffffffffff1663b99152d0336040518263ffffffff1660e01b8152600401808273ffffffffffffffffffffffffffffffffffffffff1673ffffffffffffffffffffffffffffffffffffffff16815260200191505060206040518083038186803b158015613e9e57600080fd5b505afa158015613eb2573d6000803e3d6000fd5b505050506040513d6020811015613ec857600080fd5b8101908080519060200190929190505050905090565b600080606060006060600080613ef2615db4565b600960008a81526020019081526020016000206040518060e0016040529081600082015481526020016001820160009054906101000a900473ffffffffffffffffffffffffffffffffffffffff1673ffffffffffffffffffffffffffffffffffffffff1673ffffffffffffffffffffffffffffffffffffffff168152602001600282018054600181600116156101000203166002900480601f0160208091040260200160405190810160405280929190818152602001828054600181600116156101000203166002900480156140095780601f10613fde57610100808354040283529160200191614009565b820191906000526020600020905b815481529060010190602001808311613fec57829003601f168201915b5050505050815260200160038201548152602001600482018054600181600116156101000203166002900480601f0160208091040260200160405190810160405280929190818152602001828054600181600116156101000203166002900480156140b55780601f1061408a576101008083540402835291602001916140b5565b820191906000526020600020905b81548152906001019060200180831161409857829003601f168201915b50505050508152602001600582015481526020016006820160009054906101000a900460ff1615151515815250509050806000015181602001518260400151836060015184608001518560a001518660c00151849450829250975097509750975097509750975050919395979092949650565b60008060009050600080905060008090505b6007548310156149bd576009600084815260200190815260200160002060060160009054906101000a900460ff166149b057600091505b6008548210156149af57600a600083815260200190815260200160002060060160009054906101000a900460ff166149a2576009600084815260200190815260200160002060010160009054906101000a900473ffffffffffffffffffffffffffffffffffffffff1673ffffffffffffffffffffffffffffffffffffffff16600a600084815260200190815260200160002060010160009054906101000a900473ffffffffffffffffffffffffffffffffffffffff1673ffffffffffffffffffffffffffffffffffffffff16141580156143445750600a600083815260200190815260200160002060040160405180828054600181600116156101000203166002900480156142b75780601f106142955761010080835404028352918201916142b7565b820191906000526020600020905b8154815290600101906020018083116142a3575b505091505060405180910390206009600085815260200190815260200160002060020160405180828054600181600116156101000203166002900480156143355780601f10614313576101008083540402835291820191614335565b820191906000526020600020905b815481529060010190602001808311614321575b50509150506040518091039020145b80156144495750600a600083815260200190815260200160002060020160405180828054600181600116156101000203166002900480156143bc5780601f1061439a5761010080835404028352918201916143bc565b820191906000526020600020905b8154815290600101906020018083116143a8575b5050915050604051809103902060096000858152602001908152602001600020600401604051808280546001816001161561010002031660029004801561443a5780601f1061441857610100808354040283529182019161443a565b820191906000526020600020905b815481529060010190602001808311614426575b50509150506040518091039020145b156149a157600a6000838152602001908152602001600020600301546009600085815260200190815260200160002060050154101580156144b65750600a600083815260200190815260200160002060050154600960008581526020019081526020016000206003015411155b156149a0576145c06009600085815260200190815260200160002060010160009054906101000a900473ffffffffffffffffffffffffffffffffffffffff166009600086815260200190815260200160002060050154600960008781526020019081526020016000206004018054600181600116156101000203166002900480601f0160208091040260200160405190810160405280929190818152602001828054600181600116156101000203166002900480156145b65780601f1061458b576101008083540402835291602001916145b6565b820191906000526020600020905b81548152906001019060200180831161459957829003601f168201915b5050505050614ca5565b6146c5600a600084815260200190815260200160002060010160009054906101000a900473ffffffffffffffffffffffffffffffffffffffff16600a600085815260200190815260200160002060050154600a60008781526020019081526020016000206004018054600181600116156101000203166002900480601f0160208091040260200160405190810160405280929190818152602001828054600181600116156101000203166002900480156146bb5780601f10614690576101008083540402835291602001916146bb565b820191906000526020600020905b81548152906001019060200180831161469e57829003601f168201915b5050505050614ca5565b6148016009600085815260200190815260200160002060010160009054906101000a900473ffffffffffffffffffffffffffffffffffffffff16600a600085815260200190815260200160002060010160009054906101000a900473ffffffffffffffffffffffffffffffffffffffff166009600087815260200190815260200160002060050154600960008881526020019081526020016000206004018054600181600116156101000203166002900480601f0160208091040260200160405190810160405280929190818152602001828054600181600116156101000203166002900480156147f75780601f106147cc576101008083540402835291602001916147f7565b820191906000526020600020905b8154815290600101906020018083116147da57829003601f168201915b5050505050612126565b61493d600a600084815260200190815260200160002060010160009054906101000a900473ffffffffffffffffffffffffffffffffffffffff166009600086815260200190815260200160002060010160009054906101000a900473ffffffffffffffffffffffffffffffffffffffff16600a600086815260200190815260200160002060050154600a60008781526020019081526020016000206004018054600181600116156101000203166002900480601f0160208091040260200160405190810160405280929190818152602001828054600181600116156101000203166002900480156149335780601f1061490857610100808354040283529160200191614933565b820191906000526020600020905b81548152906001019060200180831161491657829003601f168201915b5050505050612126565b60016009600085815260200190815260200160002060060160006101000a81548160ff0219169083151502179055506001600a600084815260200190815260200160002060060160006101000a81548160ff021916908315150217905550600190505b5b5b8180600101925050614171565b5b828060010193505061413a565b80935050505090565b6000806060600060606000806149da615db4565b600a60008a81526020019081526020016000206040518060e0016040529081600082015481526020016001820160009054906101000a900473ffffffffffffffffffffffffffffffffffffffff1673ffffffffffffffffffffffffffffffffffffffff1673ffffffffffffffffffffffffffffffffffffffff168152602001600282018054600181600116156101000203166002900480601f016020809104026020016040519081016040528092919081815260200182805460018160011615610100020316600290048015614af15780601f10614ac657610100808354040283529160200191614af1565b820191906000526020600020905b815481529060010190602001808311614ad457829003601f168201915b5050505050815260200160038201548152602001600482018054600181600116156101000203166002900480601f016020809104026020016040519081016040528092919081815260200182805460018160011615610100020316600290048015614b9d5780601f10614b7257610100808354040283529160200191614b9d565b820191906000526020600020905b815481529060010190602001808311614b8057829003601f168201915b50505050508152602001600582015481526020016006820160009054906101000a900460ff16151515158152505090503373ffffffffffffffffffffffffffffffffffffffff16816020015173ffffffffffffffffffffffffffffffffffffffff161415614c4257806000015181602001518260400151836060015184608001518560a001518660c00151849450829250975097509750975097509750975050614c9a565b7fffffffffffffffffffffffffffffffffffffffffffffffffffffffffffffffff81602001518260400151836060015184608001518560a001518660c001518696508494508292509750975097509750975097509750505b919395979092949650565b60405180807f5543414e410000000000000000000000000000000000000000000000000000008152506005019050604051809103902081805190602001201415614e3d5781600160009054906101000a900473ffffffffffffffffffffffffffffffffffffffff1673ffffffffffffffffffffffffffffffffffffffff166370a08231856040518263ffffffff1660e01b8152600401808273ffffffffffffffffffffffffffffffffffffffff1673ffffffffffffffffffffffffffffffffffffffff16815260200191505060206040518083038186803b158015614d8957600080fd5b505afa158015614d9d573d6000803e3d6000fd5b505050506040513d6020811015614db357600080fd5b81019080805190602001909291905050501015614e38576040517f08c379a000000000000000000000000000000000000000000000000000000000815260040180806020018281038252601a8152602001807f4e6f7420656e6f756768205543414e412070726f76696465642e00000000000081525060200191505060405180910390fd5b615126565b60405180807f5543414e550000000000000000000000000000000000000000000000000000008152506005019050604051809103902081805190602001201415614fd55781600260009054906101000a900473ffffffffffffffffffffffffffffffffffffffff1673ffffffffffffffffffffffffffffffffffffffff166370a08231856040518263ffffffff1660e01b8152600401808273ffffffffffffffffffffffffffffffffffffffff1673ffffffffffffffffffffffffffffffffffffffff16815260200191505060206040518083038186803b158015614f2157600080fd5b505afa158015614f35573d6000803e3d6000fd5b505050506040513d6020811015614f4b57600080fd5b81019080805190602001909291905050501015614fd0576040517f08c379a000000000000000000000000000000000000000000000000000000000815260040180806020018281038252601a8152602001807f4e6f7420656e6f756768205543414e552070726f76696465642e00000000000081525060200191505060405180910390fd5b615125565b81600360009054906101000a900473ffffffffffffffffffffffffffffffffffffffff1673ffffffffffffffffffffffffffffffffffffffff166370a08231856040518263ffffffff1660e01b8152600401808273ffffffffffffffffffffffffffffffffffffffff1673ffffffffffffffffffffffffffffffffffffffff16815260200191505060206040518083038186803b15801561507557600080fd5b505afa158015615089573d6000803e3d6000fd5b505050506040513d602081101561509f57600080fd5b81019080805190602001909291905050501015615124576040517f08c379a000000000000000000000000000000000000000000000000000000000815260040180806020018281038252601a8152602001807f4e6f7420656e6f756768205543414e452070726f76696465642e00000000000081525060200191505060405180910390fd5b5b5b505050565b60405180807f5543414e4100000000000000000000000000000000000000000000000000000081525060050190506040518091039020838051906020012014156152c35781600160009054906101000a900473ffffffffffffffffffffffffffffffffffffffff1673ffffffffffffffffffffffffffffffffffffffff166370a08231336040518263ffffffff1660e01b8152600401808273ffffffffffffffffffffffffffffffffffffffff1673ffffffffffffffffffffffffffffffffffffffff16815260200191505060206040518083038186803b15801561520f57600080fd5b505afa158015615223573d6000803e3d6000fd5b505050506040513d602081101561523957600080fd5b810190808051906020019092919050505010156152be576040517f08c379a000000000000000000000000000000000000000000000000000000000815260040180806020018281038252601a8152602001807f4e6f7420656e6f756768205543414e412070726f76696465642e00000000000081525060200191505060405180910390fd5b6155f1565b60405180807f5543414e55000000000000000000000000000000000000000000000000000000815250600501905060405180910390208380519060200120141561545b5781600260009054906101000a900473ffffffffffffffffffffffffffffffffffffffff1673ffffffffffffffffffffffffffffffffffffffff166370a08231336040518263ffffffff1660e01b8152600401808273ffffffffffffffffffffffffffffffffffffffff1673ffffffffffffffffffffffffffffffffffffffff16815260200191505060206040518083038186803b1580156153a757600080fd5b505afa1580156153bb573d6000803e3d6000fd5b505050506040513d60208110156153d157600080fd5b81019080805190602001909291905050501015615456576040517f08c379a000000000000000000000000000000000000000000000000000000000815260040180806020018281038252601a8152602001807f4e6f7420656e6f756768205543414e552070726f76696465642e00000000000081525060200191505060405180910390fd5b6155f0565b60405180807f5543414e4500000000000000000000000000000000000000000000000000000081525060050190506040518091039020838051906020012014156155ef5781600360009054906101000a900473ffffffffffffffffffffffffffffffffffffffff1673ffffffffffffffffffffffffffffffffffffffff166370a08231336040518263ffffffff1660e01b8152600401808273ffffffffffffffffffffffffffffffffffffffff1673ffffffffffffffffffffffffffffffffffffffff16815260200191505060206040518083038186803b15801561553f57600080fd5b505afa158015615553573d6000803e3d6000fd5b505050506040513d602081101561556957600080fd5b810190808051906020019092919050505010156155ee576040517f08c379a000000000000000000000000000000000000000000000000000000000815260040180806020018281038252601a8152602001807f4e6f7420656e6f756768205543414e452070726f76696465642e00000000000081525060200191505060405180910390fd5b5b5b5b6155f9615db4565b6040518060e00160405280600b5481526020013373ffffffffffffffffffffffffffffffffffffffff16815260200187815260200186815260200185815260200184815260200160001515815250905060008214156157415780600a600060085481526020019081526020016000206000820151816000015560208201518160010160006101000a81548173ffffffffffffffffffffffffffffffffffffffff021916908373ffffffffffffffffffffffffffffffffffffffff16021790555060408201518160020190805190602001906156d5929190615e09565b506060820151816003015560808201518160040190805190602001906156fc929190615e09565b5060a0820151816005015560c08201518160060160006101000a81548160ff02191690831515021790555090505060086000815480929190600101919050555061582c565b806009600060075481526020019081526020016000206000820151816000015560208201518160010160006101000a81548173ffffffffffffffffffffffffffffffffffffffff021916908373ffffffffffffffffffffffffffffffffffffffff16021790555060408201518160020190805190602001906157c4929190615e09565b506060820151816003015560808201518160040190805190602001906157eb929190615e09565b5060a0820151816005015560c08201518160060160006101000a81548160ff0219169083151502179055509050506007600081548092919060010191905055505b6001600b600082825401925050819055507fd649d7405b60e3bb5e4ba9bea0e77d66e586bc6672032dffe758a34eff9cd584615866614128565b604051808215151515815260200191505060405180910390a1505050505050565b600080600360009054906101000a900473ffffffffffffffffffffffffffffffffffffffff1673ffffffffffffffffffffffffffffffffffffffff16636d69fc4a6040518163ffffffff1660e01b8152600401602060405180830381600087803b1580156158f457600080fd5b505af1158015615908573d6000803e3d6000fd5b505050506040513d602081101561591e57600080fd5b8101908080519060200190929190505050600360009054906101000a900473ffffffffffffffffffffffffffffffffffffffff1673ffffffffffffffffffffffffffffffffffffffff16631275c38b6040518163ffffffff1660e01b8152600401602060405180830381600087803b15801561599957600080fd5b505af11580156159ad573d6000803e3d6000fd5b505050506040513d60208110156159c357600080fd5b8101908080519060200190929190505050915091509091565b6000806000806000600260009054906101000a900473ffffffffffffffffffffffffffffffffffffffff1673ffffffffffffffffffffffffffffffffffffffff1663b99152d0336040518263ffffffff1660e01b8152600401808273ffffffffffffffffffffffffffffffffffffffff1673ffffffffffffffffffffffffffffffffffffffff16815260200191505060206040518083038186803b158015615a8357600080fd5b505afa158015615a97573d6000803e3d6000fd5b505050506040513d6020811015615aad57600080fd5b810190808051906020019092919050505090506000600160009054906101000a900473ffffffffffffffffffffffffffffffffffffffff1673ffffffffffffffffffffffffffffffffffffffff1663b99152d0336040518263ffffffff1660e01b8152600401808273ffffffffffffffffffffffffffffffffffffffff1673ffffffffffffffffffffffffffffffffffffffff16815260200191505060206040518083038186803b158015615b6157600080fd5b505afa158015615b75573d6000803e3d6000fd5b505050506040513d6020811015615b8b57600080fd5b810190808051906020019092919050505090506000600360009054906101000a900473ffffffffffffffffffffffffffffffffffffffff1673ffffffffffffffffffffffffffffffffffffffff1663b99152d0336040518263ffffffff1660e01b8152600401808273ffffffffffffffffffffffffffffffffffffffff1673ffffffffffffffffffffffffffffffffffffffff16815260200191505060206040518083038186803b158015615c3f57600080fd5b505afa158015615c53573d6000803e3d6000fd5b505050506040513d6020811015615c6957600080fd5b81019080805190602001909291905050509050615c878383836129ac565b838383965096509650965050505090919293565b600081423344604051602001808481526020018373ffffffffffffffffffffffffffffffffffffffff1673ffffffffffffffffffffffffffffffffffffffff1660601b815260140182815260200193505050506040516020818303038152906040528051906020012060001c81615d0e57fe5b069050919050565b600081670de0b6b3a7640000840281615d2b57fe5b04905092915050565b828054600181600116156101000203166002900490600052602060002090601f016020900481019282601f10615d7557805160ff1916838001178555615da3565b82800160010185558215615da3579182015b82811115615da2578251825591602001919060010190615d87565b5b509050615db09190615e89565b5090565b6040518060e0016040528060008152602001600073ffffffffffffffffffffffffffffffffffffffff168152602001606081526020016000815260200160608152602001600081526020016000151581525090565b828054600181600116156101000203166002900490600052602060002090601f016020900481019282601f10615e4a57805160ff1916838001178555615e78565b82800160010185558215615e78579182015b82811115615e77578251825591602001919060010190615e5c565b5b509050615e859190615e89565b5090565b615eab91905b80821115615ea7576000816000905550600101615e8f565b5090565b9056fea265627a7a7231582009f3be45f9e8c68dde685583386390effb6390f4a2574c3e22bc78487757fbf864736f6c63430005100032",
  "source": "//SPDX-License-Identifier: GPL-3.0\npragma solidity >=0.5.0 <0.9.0;\n\nimport \"./Token.sol\";\nimport \"./Token2.sol\";\nimport \"./Token3.sol\";\nimport \"./SafeMath.sol\";\n\n\ncontract EthSwap\n{\n    using SafeMath for uint256;\n    string public name = \"EthSwap Instant Exchange\";\n    Token public ucana;\n    Token2 public ucanu;\n    Token3 public ucane;\n    uint256 constant WAD = 10**18;\n    uint rangeLimit = 10;\n    address public owner;\n    string public pivoName = \"\";\n\n    struct Order {\n        uint id;\n        address owner;\n        string targetTokenName;\n        uint quantTokensTarget;\n        string offeredTokenName;\n        uint quantTokensOffered;\n        bool isCompleted;\n    }\n\n    uint sizeBuyOrders = 0;\n    uint sizeSellOrders = 0;\n    mapping(uint => Order) public buyOrders;\n    mapping(uint => Order) public sellOrders;\n    uint idOrder = 0;\n\n    event placeOrderEvent(bool matchResult);\n\n    constructor(Token _token, Token2 _ucanu, Token3 _ucane) public\n    {\n        ucana = _token;\n        ucanu = _ucanu;\n        ucane = _ucane;\n        owner = msg.sender;\n    }\n\n\n    function placeOrder(string memory _targetTokenName, uint _quantTokensTarget, string memory _offeredTokenName, uint _quantTokensOffered, uint _orderType) public {\n        if (keccak256(bytes(_offeredTokenName)) == keccak256(\"UCANA\")) {\n            require(ucana.balanceOf(msg.sender) >= _quantTokensOffered, \"Not enough UCANA provided.\");\n\n            \n        } else if (keccak256(bytes(_offeredTokenName)) == keccak256(\"UCANU\")) {\n            require(ucanu.balanceOf(msg.sender) >= _quantTokensOffered, \"Not enough UCANU provided.\");\n\n\n        } else if (keccak256(bytes(_offeredTokenName)) == keccak256(\"UCANE\")) {\n            require(ucane.balanceOf(msg.sender) >= _quantTokensOffered, \"Not enough UCANE provided.\");\n\n            \n        }\n        Order memory newOrder = Order(idOrder, msg.sender, _targetTokenName, _quantTokensTarget, _offeredTokenName, _quantTokensOffered, false);\n\n        if (_orderType == 0) {\n            sellOrders[sizeSellOrders] = newOrder;\n            sizeSellOrders++;\n        } else {\n            buyOrders[sizeBuyOrders] = newOrder;\n            sizeBuyOrders++;\n        }\n        idOrder += 1;\n\n        emit placeOrderEvent(checkMatches());\n    }\n\n    function checkMatches() public payable returns (bool) {\n        uint i = 0;\n        uint j = 0;\n        bool flagTransferOccured = false;\n\n        for (; i < sizeBuyOrders; i++) {\n            if (!buyOrders[i].isCompleted) {\n                for (j = 0; j < sizeSellOrders; j++) {\n                    if (!sellOrders[j].isCompleted) {\n                        if (sellOrders[j].owner != buyOrders[i].owner && keccak256(bytes(buyOrders[i].targetTokenName)) == keccak256(bytes(sellOrders[j].offeredTokenName)) && keccak256(bytes(buyOrders[i].offeredTokenName)) == keccak256(bytes(sellOrders[j].targetTokenName))) {\n                            if (buyOrders[i].quantTokensOffered >= sellOrders[j].quantTokensTarget && buyOrders[i].quantTokensTarget <= sellOrders[j].quantTokensOffered) {\n                                checkAmountReffered(buyOrders[i].owner, buyOrders[i].quantTokensOffered, buyOrders[i].offeredTokenName);\n                                checkAmountReffered(sellOrders[j].owner, sellOrders[j].quantTokensOffered, sellOrders[i].offeredTokenName);\n\n                                swap(buyOrders[i].owner, sellOrders[j].owner, buyOrders[i].quantTokensOffered, buyOrders[i].offeredTokenName);\n\n                                swap(sellOrders[j].owner, buyOrders[i].owner, sellOrders[j].quantTokensOffered, sellOrders[j].offeredTokenName);\n\n                                buyOrders[i].isCompleted = true;\n                                sellOrders[j].isCompleted = true;\n\n                                flagTransferOccured = true;\n                            }\n                        }\n                    }\n                }\n            }\n        }\n        return flagTransferOccured;\n    }\n\n    function swap(address _from, address _to, uint256 amount, string memory tokenName) public payable {\n        if (keccak256(bytes(tokenName)) == keccak256(\"UCANA\")) {\n            ucana.transferFrom(_from, _to, amount);\n        } else if (keccak256(bytes(tokenName)) == keccak256(\"UCANU\")) {\n            ucanu.transferFrom(_from, _to, amount);\n        } else {\n            ucane.transferFrom(_from, _to, amount);\n        }\n    }\n\n    function checkAmountReffered(address _from, uint256 amount, string memory tokenName) public{\n        if (keccak256(bytes(tokenName)) == keccak256(\"UCANA\")) {\n            require(ucana.balanceOf(_from) >= amount, \"Not enough UCANA provided.\");\n        } else if (keccak256(bytes(tokenName)) == keccak256(\"UCANU\")) {\n            require(ucanu.balanceOf(_from) >= amount, \"Not enough UCANU provided.\");\n        } else {\n            require(ucane.balanceOf(_from) >= amount, \"Not enough UCANE provided.\");\n        }\n    }\n\n    function random(uint mod) internal returns (uint) {\n        return uint(keccak256(abi.encodePacked(block.timestamp, msg.sender, block.difficulty))) % mod;\n    }\n\n    function getBalanceOfToken1() public returns (uint256) {\n        return ucana.balanceOfToken(msg.sender);\n    }\n\n    function getBalanceOfToken2() public returns (uint256) {\n        return ucanu.balanceOfToken(msg.sender);\n    }\n\n    function getBalanceOfToken3() public returns (uint256) {\n        return ucane.balanceOfToken(msg.sender);\n    }\n\n    function getBalanceInfo() public returns (uint256, uint256, uint256, uint256) {\n        uint ucanuAmount = ucanu.balanceOfToken(msg.sender);\n        uint ucanaAmount = ucana.balanceOfToken(msg.sender);\n        uint ucaneAmount = ucane.balanceOfToken(msg.sender);\n\n        return (getPatrimonio(ucanuAmount, ucanaAmount, ucaneAmount), ucanuAmount, ucanaAmount, ucaneAmount);\n    }\n\n    function getRelationOfToken1() public returns (uint256, uint256) {\n        return (ucana.getUmToken1EquivaleQuantosToken2(), ucana.getUmToken1EquivaleQuantosToken3());\n    }\n\n    function getRelationOfToken2() public returns (uint256, uint256) {\n        return (ucanu.getUmToken2EquivaleQuantosToken1(), ucanu.getUmToken2EquivaleQuantosToken3());\n    }\n\n    function getRelationOfToken3() public returns (uint256, uint256) {\n        return (ucane.getUmToken3EquivaleQuantosToken1(), ucane.getUmToken3EquivaleQuantosToken2());\n    }\n\n    function getPatrimonio(uint _ucanu, uint _ucana, uint _ucane) public returns (uint) {\n        if (keccak256(bytes(pivoName)) == keccak256(\"UCANA\")) {\n            return _ucana + (((1 * WAD) * _ucanu) / ucana.getUmToken1EquivaleQuantosToken2()) + (_ucane) / ucana.getUmToken1EquivaleQuantosToken3();\n        } else if (keccak256(bytes(pivoName)) == keccak256(\"UCANU\")) {\n            return _ucanu + (((1 * WAD) * _ucana) / ucanu.getUmToken2EquivaleQuantosToken1()) + ((_ucane) / ucanu.getUmToken2EquivaleQuantosToken3());\n        } else {\n            return _ucane + (((1 * WAD) * _ucana) / ucane.getUmToken3EquivaleQuantosToken1()) + ((_ucanu) / ucane.getUmToken3EquivaleQuantosToken2());\n        }\n    }\n\n\n    function sortInitialPivo() public {\n        int totalUcana = int(this.getTotalValorNaBolsaUCANA()); // M1\n        int totalUcane = int(this.getTotalValorNaBolsaUCANE()); // M2\n        int totalUcanu = int(this.getTotalValorNaBolsaUCANU()); // M3\n\n        if (totalUcana < totalUcane && totalUcana < totalUcanu) {\n            pivoName = \"UCANA\";\n        }\n        else if (totalUcane <= totalUcanu) {\n            pivoName = \"UCANE\";\n        }\n        else {\n            pivoName = \"UCANU\";\n        }\n        setNewPivo(pivoName);\n    }\n\n\n    function setNewPivo(string memory pivo) public {\n        uint256 const = 1;\n        uint256 equivalencia1 = random(rangeLimit) + 2;\n        uint256 equivalencia2 = equivalencia1 + 2;\n\n        if (keccak256(bytes(pivo)) == keccak256(\"UCANA\")) {\n            ucana.setUmToken1EquivaleQuantosToken2(equivalencia1 * WAD);\n            ucana.setUmToken1EquivaleQuantosToken3(equivalencia2 * WAD);\n\n            ucane.setUmToken3EquivaleQuantosToken1(const.divEly(equivalencia2));\n            ucanu.setUmToken2EquivaleQuantosToken1(const.divEly(equivalencia1));\n\n            ucanu.setUmToken2EquivaleQuantosToken3(equivalencia2.divEly(equivalencia1));\n            ucane.setUmToken3EquivaleQuantosToken2(equivalencia1.divEly(equivalencia2));\n        } else if (keccak256(bytes(pivo)) == keccak256(\"UCANU\")) {\n            ucanu.setUmToken2EquivaleQuantosToken1(equivalencia1 * WAD);\n            ucanu.setUmToken2EquivaleQuantosToken3(equivalencia2 * WAD);\n\n            ucana.setUmToken1EquivaleQuantosToken2(const.divEly(equivalencia1));\n            ucane.setUmToken3EquivaleQuantosToken2(const.divEly(equivalencia2));\n\n            ucana.setUmToken1EquivaleQuantosToken3(equivalencia2.divEly(equivalencia1));\n            ucane.setUmToken3EquivaleQuantosToken1(equivalencia1.divEly(equivalencia2));\n        } else {\n            ucane.setUmToken3EquivaleQuantosToken1(equivalencia1 * WAD);\n            ucane.setUmToken3EquivaleQuantosToken2(equivalencia2 * WAD);\n\n            ucana.setUmToken1EquivaleQuantosToken3(const.divEly(equivalencia1));\n            ucanu.setUmToken2EquivaleQuantosToken3(const.divEly(equivalencia2));\n\n            ucana.setUmToken1EquivaleQuantosToken2(equivalencia2.divEly(equivalencia1));\n            ucanu.setUmToken2EquivaleQuantosToken1(equivalencia1.divEly(equivalencia2));\n        }\n    }\n\n    function getTotalValorNaBolsaUCANA() public returns (uint256)\n    {\n        return  ucana.balanceOf(address(this));\n    }\n\n    function getTotalValorNaBolsaUCANU() public returns (uint256)\n    {\n        return  ucanu.balanceOf(address(this));\n    }\n    function getTotalValorNaBolsaUCANE() public returns (uint256)\n    {\n        return  ucane.balanceOf(address(this));\n    }\n\n    function getBuyOrder(uint orderIndex) public returns (uint id, address owner, string memory targetTokenName, uint quantTokensTarget, string memory offeredTokenName, uint quantTokensOffered, bool isCompleted) {\n        Order memory orderSelected = buyOrders[orderIndex];\n\n\n        return (orderSelected.id, orderSelected.owner, orderSelected.targetTokenName, orderSelected.quantTokensTarget, orderSelected.offeredTokenName, orderSelected.quantTokensOffered, orderSelected.isCompleted);\n    }\n\n    function getSellOrder(uint orderIndex) public returns (uint id, address owner, string memory targetTokenName, uint quantTokensTarget, string memory offeredTokenName, uint quantTokensOffered, bool isCompleted) {\n        Order memory orderSelected = sellOrders[orderIndex];\n\n        return (orderSelected.id, orderSelected.owner, orderSelected.targetTokenName, orderSelected.quantTokensTarget, orderSelected.offeredTokenName, orderSelected.quantTokensOffered, orderSelected.isCompleted);\n    }\n\n    function getMyBuyOrder(uint orderIndex) public returns (int id, address owner, string memory targetTokenName, uint quantTokensTarget, string memory offeredTokenName, uint quantTokensOffered, bool isCompleted) {\n        Order memory orderSelected = buyOrders[orderIndex];\n\n        if (orderSelected.owner == msg.sender) {\n            return (int(orderSelected.id), orderSelected.owner, orderSelected.targetTokenName, orderSelected.quantTokensTarget, orderSelected.offeredTokenName, orderSelected.quantTokensOffered, orderSelected.isCompleted);\n        }\n        return (-1, orderSelected.owner, orderSelected.targetTokenName, orderSelected.quantTokensTarget, orderSelected.offeredTokenName, orderSelected.quantTokensOffered, orderSelected.isCompleted);\n    }\n\n    function getMySellOrder(uint orderIndex) public returns (int id, address owner, string memory targetTokenName, uint quantTokensTarget, string memory offeredTokenName, uint quantTokensOffered, bool isCompleted) {\n        Order memory orderSelected = sellOrders[orderIndex];\n\n        if (orderSelected.owner == msg.sender) {\n            return (int(orderSelected.id), orderSelected.owner, orderSelected.targetTokenName, orderSelected.quantTokensTarget, orderSelected.offeredTokenName, orderSelected.quantTokensOffered, orderSelected.isCompleted);\n        }\n        return (-1, orderSelected.owner, orderSelected.targetTokenName, orderSelected.quantTokensTarget, orderSelected.offeredTokenName, orderSelected.quantTokensOffered, orderSelected.isCompleted);\n    }\n\n    function getBuyOrdersSize() public returns (uint) {\n        return sizeBuyOrders;\n    }\n\n    function getSellOrdersSize() public returns (uint) {\n        return sizeSellOrders;\n    }\n}",
  "sourcePath": "/home/ed/Downloads/EXCHANGE/ExechAux/src/contracts/EthSwap.sol",
  "compiler": {
    "name": "solc",
    "version": "0.5.16+commit.9c3226ce.Emscripten.clang"
  },
  "schemaVersion": "3.4.1",
  "updatedAt": "2021-07-21T06:43:32.576Z",
  "networkType": "ethereum",
  "devdoc": {
    "methods": {}
  },
  "userdoc": {
    "methods": {}
  }
}