{
  "contractName": "EthSwap",
  "abi": [
    {
      "inputs": [
        {
          "internalType": "contract Token",
          "name": "_token",
          "type": "address"
        },
        {
          "internalType": "contract Token2",
          "name": "_token2",
          "type": "address"
        },
        {
          "internalType": "contract Token3",
          "name": "_token3",
          "type": "address"
        }
      ],
      "payable": false,
      "stateMutability": "nonpayable",
      "type": "constructor"
    },
    {
      "anonymous": false,
      "inputs": [
        {
          "indexed": false,
          "internalType": "address",
          "name": "account",
          "type": "address"
        },
        {
          "indexed": false,
          "internalType": "address",
          "name": "token1",
          "type": "address"
        },
        {
          "indexed": false,
          "internalType": "uint256",
          "name": "amount",
          "type": "uint256"
        },
        {
          "indexed": false,
          "internalType": "uint256",
          "name": "rate",
          "type": "uint256"
        }
      ],
      "name": "TokensPurchased",
      "type": "event"
    },
    {
      "anonymous": false,
      "inputs": [
        {
          "indexed": false,
          "internalType": "address",
          "name": "account",
          "type": "address"
        },
        {
          "indexed": false,
          "internalType": "address",
          "name": "token1",
          "type": "address"
        },
        {
          "indexed": false,
          "internalType": "uint256",
          "name": "amount",
          "type": "uint256"
        },
        {
          "indexed": false,
          "internalType": "uint256",
          "name": "rate",
          "type": "uint256"
        }
      ],
      "name": "TokensSold",
      "type": "event"
    },
    {
      "constant": true,
      "inputs": [
        {
          "internalType": "address",
          "name": "",
          "type": "address"
        }
      ],
      "name": "balanceOfToken1",
      "outputs": [
        {
          "internalType": "uint256",
          "name": "",
          "type": "uint256"
        }
      ],
      "payable": false,
      "stateMutability": "view",
      "type": "function"
    },
    {
      "constant": true,
      "inputs": [],
      "name": "entrou",
      "outputs": [
        {
          "internalType": "string",
          "name": "",
          "type": "string"
        }
      ],
      "payable": false,
      "stateMutability": "view",
      "type": "function"
    },
    {
      "constant": true,
      "inputs": [],
      "name": "name",
      "outputs": [
        {
          "internalType": "string",
          "name": "",
          "type": "string"
        }
      ],
      "payable": false,
      "stateMutability": "view",
      "type": "function"
    },
    {
      "constant": true,
      "inputs": [],
      "name": "owner",
      "outputs": [
        {
          "internalType": "address",
          "name": "",
          "type": "address"
        }
      ],
      "payable": false,
      "stateMutability": "view",
      "type": "function"
    },
    {
      "constant": true,
      "inputs": [],
      "name": "rate",
      "outputs": [
        {
          "internalType": "uint256",
          "name": "",
          "type": "uint256"
        }
      ],
      "payable": false,
      "stateMutability": "view",
      "type": "function"
    },
    {
      "constant": true,
      "inputs": [],
      "name": "token1",
      "outputs": [
        {
          "internalType": "contract Token",
          "name": "",
          "type": "address"
        }
      ],
      "payable": false,
      "stateMutability": "view",
      "type": "function"
    },
    {
      "constant": true,
      "inputs": [],
      "name": "token2",
      "outputs": [
        {
          "internalType": "contract Token2",
          "name": "",
          "type": "address"
        }
      ],
      "payable": false,
      "stateMutability": "view",
      "type": "function"
    },
    {
      "constant": true,
      "inputs": [],
      "name": "token3",
      "outputs": [
        {
          "internalType": "contract Token3",
          "name": "",
          "type": "address"
        }
      ],
      "payable": false,
      "stateMutability": "view",
      "type": "function"
    },
    {
      "constant": false,
      "inputs": [
        {
          "internalType": "address",
          "name": "_from",
          "type": "address"
        },
        {
          "internalType": "address",
          "name": "_to",
          "type": "address"
        },
        {
          "internalType": "uint256",
          "name": "amount",
          "type": "uint256"
        }
      ],
      "name": "swap",
      "outputs": [],
      "payable": true,
      "stateMutability": "payable",
      "type": "function"
    },
    {
      "constant": false,
      "inputs": [],
      "name": "getIdPivo",
      "outputs": [
        {
          "internalType": "uint256",
          "name": "",
          "type": "uint256"
        }
      ],
      "payable": false,
      "stateMutability": "nonpayable",
      "type": "function"
    },
    {
      "constant": true,
      "inputs": [],
      "name": "helloWorld",
      "outputs": [
        {
          "internalType": "string",
          "name": "",
          "type": "string"
        }
      ],
      "payable": false,
      "stateMutability": "view",
      "type": "function"
    },
    {
      "constant": false,
      "inputs": [],
      "name": "getBalanceOfToken1",
      "outputs": [
        {
          "internalType": "uint256",
          "name": "",
          "type": "uint256"
        }
      ],
      "payable": false,
      "stateMutability": "nonpayable",
      "type": "function"
    },
    {
      "constant": false,
      "inputs": [],
      "name": "getBalanceOfToken2",
      "outputs": [
        {
          "internalType": "uint256",
          "name": "",
          "type": "uint256"
        }
      ],
      "payable": false,
      "stateMutability": "nonpayable",
      "type": "function"
    },
    {
      "constant": false,
      "inputs": [],
      "name": "getBalanceOfToken3",
      "outputs": [
        {
          "internalType": "uint256",
          "name": "",
          "type": "uint256"
        }
      ],
      "payable": false,
      "stateMutability": "nonpayable",
      "type": "function"
    },
    {
      "constant": false,
      "inputs": [],
      "name": "getBalanceOfTotal",
      "outputs": [
        {
          "internalType": "uint256",
          "name": "",
          "type": "uint256"
        }
      ],
      "payable": false,
      "stateMutability": "nonpayable",
      "type": "function"
    }
  ],
  "bytecode": "0x60806040526040518060400160405280601881526020017f4574685377617020496e7374616e742045786368616e676500000000000000008152506000908051906020019061004f9291906101bf565b5060646004556000600555600a60065534801561006b57600080fd5b506040516110163803806110168339818101604052606081101561008e57600080fd5b8101908080519060200190929190805190602001909291908051906020019092919050505082600160006101000a81548173ffffffffffffffffffffffffffffffffffffffff021916908373ffffffffffffffffffffffffffffffffffffffff16021790555081600260006101000a81548173ffffffffffffffffffffffffffffffffffffffff021916908373ffffffffffffffffffffffffffffffffffffffff16021790555080600360006101000a81548173ffffffffffffffffffffffffffffffffffffffff021916908373ffffffffffffffffffffffffffffffffffffffff16021790555033600760006101000a81548173ffffffffffffffffffffffffffffffffffffffff021916908373ffffffffffffffffffffffffffffffffffffffff160217905550505050610264565b828054600181600116156101000203166002900490600052602060002090601f016020900481019282601f1061020057805160ff191683800117855561022e565b8280016001018555821561022e579182015b8281111561022d578251825591602001919060010190610212565b5b50905061023b919061023f565b5090565b61026191905b8082111561025d576000816000905550600101610245565b5090565b90565b610da3806102736000396000f3fe6080604052600436106100e85760003560e01c80638da5cb5b1161008a578063c605f76c11610059578063c605f76c14610422578063d21220a7146104b2578063df791e5014610509578063ef14101e14610577576100e8565b80638da5cb5b1461034a5780638e105fc3146103a15780639fd2dc13146103cc578063a5d7ea9d146103f7576100e8565b80632c4e722e116100c65780632c4e722e1461023957806361e8a487146102645780636494b027146102f45780638a1f514d1461031f576100e8565b806306fdde03146100ed5780630a28830f1461017d57806325be124e146101e2575b600080fd5b3480156100f957600080fd5b506101026105ce565b6040518080602001828103825283818151815260200191508051906020019080838360005b83811015610142578082015181840152602081019050610127565b50505050905090810190601f16801561016f5780820380516001836020036101000a031916815260200191505b509250505060405180910390f35b34801561018957600080fd5b506101cc600480360360208110156101a057600080fd5b81019080803573ffffffffffffffffffffffffffffffffffffffff16906020019092919050505061066c565b6040518082815260200191505060405180910390f35b3480156101ee57600080fd5b506101f7610684565b604051808273ffffffffffffffffffffffffffffffffffffffff1673ffffffffffffffffffffffffffffffffffffffff16815260200191505060405180910390f35b34801561024557600080fd5b5061024e6106aa565b6040518082815260200191505060405180910390f35b34801561027057600080fd5b506102796106b0565b6040518080602001828103825283818151815260200191508051906020019080838360005b838110156102b957808201518184015260208101905061029e565b50505050905090810190601f1680156102e65780820380516001836020036101000a031916815260200191505b509250505060405180910390f35b34801561030057600080fd5b5061030961074e565b6040518082815260200191505060405180910390f35b34801561032b57600080fd5b5061033461082f565b6040518082815260200191505060405180910390f35b34801561035657600080fd5b5061035f610839565b604051808273ffffffffffffffffffffffffffffffffffffffff1673ffffffffffffffffffffffffffffffffffffffff16815260200191505060405180910390f35b3480156103ad57600080fd5b506103b661085f565b6040518082815260200191505060405180910390f35b3480156103d857600080fd5b506103e1610940565b6040518082815260200191505060405180910390f35b34801561040357600080fd5b5061040c610a21565b6040518082815260200191505060405180910390f35b34801561042e57600080fd5b50610437610b02565b6040518080602001828103825283818151815260200191508051906020019080838360005b8381101561047757808201518184015260208101905061045c565b50505050905090810190601f1680156104a45780820380516001836020036101000a031916815260200191505b509250505060405180910390f35b3480156104be57600080fd5b506104c7610b3f565b604051808273ffffffffffffffffffffffffffffffffffffffff1673ffffffffffffffffffffffffffffffffffffffff16815260200191505060405180910390f35b6105756004803603606081101561051f57600080fd5b81019080803573ffffffffffffffffffffffffffffffffffffffff169060200190929190803573ffffffffffffffffffffffffffffffffffffffff16906020019092919080359060200190929190505050610b65565b005b34801561058357600080fd5b5061058c610d48565b604051808273ffffffffffffffffffffffffffffffffffffffff1673ffffffffffffffffffffffffffffffffffffffff16815260200191505060405180910390f35b60008054600181600116156101000203166002900480601f0160208091040260200160405190810160405280929190818152602001828054600181600116156101000203166002900480156106645780601f1061063957610100808354040283529160200191610664565b820191906000526020600020905b81548152906001019060200180831161064757829003601f168201915b505050505081565b60086020528060005260406000206000915090505481565b600260009054906101000a900473ffffffffffffffffffffffffffffffffffffffff1681565b60045481565b60098054600181600116156101000203166002900480601f0160208091040260200160405190810160405280929190818152602001828054600181600116156101000203166002900480156107465780601f1061071b57610100808354040283529160200191610746565b820191906000526020600020905b81548152906001019060200180831161072957829003601f168201915b505050505081565b6000600360009054906101000a900473ffffffffffffffffffffffffffffffffffffffff1673ffffffffffffffffffffffffffffffffffffffff1663b99152d0336040518263ffffffff1660e01b8152600401808273ffffffffffffffffffffffffffffffffffffffff1673ffffffffffffffffffffffffffffffffffffffff16815260200191505060206040518083038186803b1580156107ef57600080fd5b505afa158015610803573d6000803e3d6000fd5b505050506040513d602081101561081957600080fd5b8101908080519060200190929190505050905090565b6000600554905090565b600760009054906101000a900473ffffffffffffffffffffffffffffffffffffffff1681565b6000600360009054906101000a900473ffffffffffffffffffffffffffffffffffffffff1673ffffffffffffffffffffffffffffffffffffffff1663b99152d0336040518263ffffffff1660e01b8152600401808273ffffffffffffffffffffffffffffffffffffffff1673ffffffffffffffffffffffffffffffffffffffff16815260200191505060206040518083038186803b15801561090057600080fd5b505afa158015610914573d6000803e3d6000fd5b505050506040513d602081101561092a57600080fd5b8101908080519060200190929190505050905090565b6000600160009054906101000a900473ffffffffffffffffffffffffffffffffffffffff1673ffffffffffffffffffffffffffffffffffffffff1663b99152d0336040518263ffffffff1660e01b8152600401808273ffffffffffffffffffffffffffffffffffffffff1673ffffffffffffffffffffffffffffffffffffffff16815260200191505060206040518083038186803b1580156109e157600080fd5b505afa1580156109f5573d6000803e3d6000fd5b505050506040513d6020811015610a0b57600080fd5b8101908080519060200190929190505050905090565b6000600260009054906101000a900473ffffffffffffffffffffffffffffffffffffffff1673ffffffffffffffffffffffffffffffffffffffff1663b99152d0336040518263ffffffff1660e01b8152600401808273ffffffffffffffffffffffffffffffffffffffff1673ffffffffffffffffffffffffffffffffffffffff16815260200191505060206040518083038186803b158015610ac257600080fd5b505afa158015610ad6573d6000803e3d6000fd5b505050506040513d6020811015610aec57600080fd5b8101908080519060200190929190505050905090565b60606040518060400160405280600981526020017f4f6c61206d756e646f0000000000000000000000000000000000000000000000815250905090565b600160009054906101000a900473ffffffffffffffffffffffffffffffffffffffff1681565b600260009054906101000a900473ffffffffffffffffffffffffffffffffffffffff1673ffffffffffffffffffffffffffffffffffffffff1663a9059cbb33670de0b6b3a764000084026040518363ffffffff1660e01b8152600401808373ffffffffffffffffffffffffffffffffffffffff1673ffffffffffffffffffffffffffffffffffffffff16815260200182815260200192505050602060405180830381600087803b158015610c1857600080fd5b505af1158015610c2c573d6000803e3d6000fd5b505050506040513d6020811015610c4257600080fd5b810190808051906020019092919050505050600260009054906101000a900473ffffffffffffffffffffffffffffffffffffffff1673ffffffffffffffffffffffffffffffffffffffff1663a9059cbb83670de0b6b3a764000084026040518363ffffffff1660e01b8152600401808373ffffffffffffffffffffffffffffffffffffffff1673ffffffffffffffffffffffffffffffffffffffff16815260200182815260200192505050602060405180830381600087803b158015610d0757600080fd5b505af1158015610d1b573d6000803e3d6000fd5b505050506040513d6020811015610d3157600080fd5b810190808051906020019092919050505050505050565b600360009054906101000a900473ffffffffffffffffffffffffffffffffffffffff168156fea265627a7a72315820639a9d7ea561d1f8fea316b7c4fd6c297c6380a7e4f59dd9d500756183eb717464736f6c63430005100032",
  "source": "//SPDX-License-Identifier: GPL-3.0\npragma solidity >=0.4.16 <0.9.0;\n\nimport \"./Token.sol\";\nimport \"./Token2.sol\";\nimport \"./Token3.sol\";\n\n\n\ncontract EthSwap\n{\n    using SafeMath for uint256;\n    string public name = \"EthSwap Instant Exchange\";\n    Token public token1;\n    Token2 public token2;\n    Token3 public token3;\n    uint public rate = 100;\n    uint256 constant WAD = 10**18;\n    uint256 idPivo = 0;\n    uint rangeLimit = 10;\n    address public owner;\n    mapping(address => uint256) public balanceOfToken1;\n    string public entrou;\n\n\n    event TokensPurchased(\n        address account,\n        address token1,\n        uint amount,\n        uint rate\n    );\n\n    event TokensSold(\n        address account,\n        address token1,\n        uint amount,\n        uint rate\n    );\n\n    constructor(Token _token, Token2 _token2, Token3 _token3) public\n    {\n        token1 = _token;\n        token2 = _token2;\n        token3 = _token3;\n        owner = msg.sender;\n    }\n\n    /*\n    \n    */\n    function swap(address _from, address _to, uint256 amount) public payable {\n        //amount = amount;\n\n        //token1.transferFrom(msg.sender, _to, msg.value);\n        token2.transfer(msg.sender, amount * WAD);\n        token2.transfer(_to, amount * WAD);\n        //sortPivo();\n    }\n\n\n    // function to give the right price value\n\n    function sortPivo() private {\n        uint256 sorted = random(rangeLimit)+1;\n\n        uint256 equivalencia1 = ((random(rangeLimit)) + 1) * WAD ;\n        uint256 equivalencia2 = ((random(rangeLimit)) + 1) * WAD;\n\n        if (sorted <= 2) {\n            // Token1 is the pivo\n            \n            token1.setUmToken1EquivaleQuantosToken2(equivalencia1);\n            token1.setUmToken1EquivaleQuantosToken3(equivalencia2);\n\n            token2.setUmToken2EquivaleQuantosToken1(wdiv(1, equivalencia1));\n            token3.setUmToken3EquivaleQuantosToken1(wdiv(1, equivalencia2));\n\n            token2.setUmToken2EquivaleQuantosToken3(wdiv(equivalencia2, equivalencia1));\n            token3.setUmToken3EquivaleQuantosToken2(wdiv(equivalencia1, equivalencia2));\n            idPivo = 1;\n        } else if (sorted <= 5) {\n            // Token2 is the pivo\n            \n            token2.setUmToken2EquivaleQuantosToken1(equivalencia1 * WAD);\n            token2.setUmToken2EquivaleQuantosToken3(equivalencia2 * WAD);\n\n            token1.setUmToken1EquivaleQuantosToken2(wdiv(1, equivalencia1));\n            token3.setUmToken3EquivaleQuantosToken1(wdiv(1, equivalencia2));\n\n            token1.setUmToken1EquivaleQuantosToken3(wdiv(equivalencia2, equivalencia1));\n            token3.setUmToken3EquivaleQuantosToken2(wdiv(equivalencia1, equivalencia2));\n            idPivo = 2;\n        } else {\n            // Token3 is the pivo\n            \n            token3.setUmToken3EquivaleQuantosToken1(equivalencia1);\n            token3.setUmToken3EquivaleQuantosToken2(equivalencia2);\n\n            token1.setUmToken1EquivaleQuantosToken3(wdiv(1, equivalencia1));\n            token2.setUmToken2EquivaleQuantosToken3(wdiv(1, equivalencia2));\n\n            token1.setUmToken1EquivaleQuantosToken3(wdiv(equivalencia2, equivalencia1));\n            token2.setUmToken2EquivaleQuantosToken3(wdiv(equivalencia1, equivalencia2));\n            idPivo = 3;\n        }\n    }\n\n    function getIdPivo() public returns (uint256) {\n        return idPivo;\n    }\n\n    \n\n    function wmul(uint256 x, uint256 y) internal pure returns (uint256 z) {\n        z = add(mul(x, y), WAD / 2) / WAD;\n    }\n\n    function mul(uint256 x, uint256 y) internal pure returns (uint256 z) {\n        require(y == 0 || (z = x * y) / y == x, \"ds-math-mul-overflow\");\n    }\n\n    function add(uint256 x, uint256 y) internal pure returns (uint256 z) {\n        require((z = x + y) >= x, \"ds-math-add-overflow\");\n    }\n\n    function wdiv(uint256 x, uint256 y) internal pure returns (uint256 z) {\n        z = add(mul(x, WAD), y / 2) / y;\n    }\n\n    function random(uint mod) internal returns (uint) {\n        return uint(keccak256(abi.encodePacked(block.timestamp, msg.sender, block.difficulty))) % mod;\n    }\n\n    function helloWorld() public view returns(string memory) {\n        return \"Ola mundo\"; \n    }\n\n    function getBalanceOfToken1() public returns (uint256) {\n        return token1.balanceOfToken(msg.sender);\n    }\n\n    function getBalanceOfToken2() public returns (uint256) {\n        return token2.balanceOfToken(msg.sender);\n    }\n\n    function getBalanceOfToken3() public returns (uint256) {\n        return token3.balanceOfToken(msg.sender);\n    }\n\n    function getBalanceOfTotal() public returns (uint256) {\n        return token3.balanceOfToken(msg.sender);\n    }\n}",
  "sourcePath": "/home/ed/Downloads/EXCHANGE/ucan_exchange-master/src/contracts/EthSwap.sol",
  "compiler": {
    "name": "solc",
    "version": "0.5.16+commit.9c3226ce.Emscripten.clang"
  },
  "schemaVersion": "3.4.1",
  "updatedAt": "2021-07-06T17:25:57.864Z",
  "networkType": "ethereum",
  "devdoc": {
    "methods": {}
  },
  "userdoc": {
    "methods": {}
  }
}