{
  "contractName": "EthSwap",
  "abi": [
    {
      "inputs": [
        {
          "internalType": "contract Token",
          "name": "_token",
          "type": "address"
        },
        {
          "internalType": "contract Token2",
          "name": "_ucanu",
          "type": "address"
        },
        {
          "internalType": "contract Token3",
          "name": "_ucane",
          "type": "address"
        }
      ],
      "payable": false,
      "stateMutability": "nonpayable",
      "type": "constructor"
    },
    {
      "anonymous": false,
      "inputs": [
        {
          "indexed": false,
          "internalType": "bool",
          "name": "matchResult",
          "type": "bool"
        }
      ],
      "name": "placeOrderEvent",
      "type": "event"
    },
    {
      "constant": true,
      "inputs": [
        {
          "internalType": "uint256",
          "name": "",
          "type": "uint256"
        }
      ],
      "name": "buyOrders",
      "outputs": [
        {
          "internalType": "uint256",
          "name": "id",
          "type": "uint256"
        },
        {
          "internalType": "address",
          "name": "owner",
          "type": "address"
        },
        {
          "internalType": "string",
          "name": "targetTokenName",
          "type": "string"
        },
        {
          "internalType": "uint256",
          "name": "quantTokensTarget",
          "type": "uint256"
        },
        {
          "internalType": "string",
          "name": "offeredTokenName",
          "type": "string"
        },
        {
          "internalType": "uint256",
          "name": "quantTokensOffered",
          "type": "uint256"
        },
        {
          "internalType": "bool",
          "name": "isCompleted",
          "type": "bool"
        }
      ],
      "payable": false,
      "stateMutability": "view",
      "type": "function"
    },
    {
      "constant": true,
      "inputs": [],
      "name": "name",
      "outputs": [
        {
          "internalType": "string",
          "name": "",
          "type": "string"
        }
      ],
      "payable": false,
      "stateMutability": "view",
      "type": "function"
    },
    {
      "constant": true,
      "inputs": [],
      "name": "owner",
      "outputs": [
        {
          "internalType": "address",
          "name": "",
          "type": "address"
        }
      ],
      "payable": false,
      "stateMutability": "view",
      "type": "function"
    },
    {
      "constant": true,
      "inputs": [],
      "name": "pivoName",
      "outputs": [
        {
          "internalType": "string",
          "name": "",
          "type": "string"
        }
      ],
      "payable": false,
      "stateMutability": "view",
      "type": "function"
    },
    {
      "constant": true,
      "inputs": [
        {
          "internalType": "uint256",
          "name": "",
          "type": "uint256"
        }
      ],
      "name": "sellOrders",
      "outputs": [
        {
          "internalType": "uint256",
          "name": "id",
          "type": "uint256"
        },
        {
          "internalType": "address",
          "name": "owner",
          "type": "address"
        },
        {
          "internalType": "string",
          "name": "targetTokenName",
          "type": "string"
        },
        {
          "internalType": "uint256",
          "name": "quantTokensTarget",
          "type": "uint256"
        },
        {
          "internalType": "string",
          "name": "offeredTokenName",
          "type": "string"
        },
        {
          "internalType": "uint256",
          "name": "quantTokensOffered",
          "type": "uint256"
        },
        {
          "internalType": "bool",
          "name": "isCompleted",
          "type": "bool"
        }
      ],
      "payable": false,
      "stateMutability": "view",
      "type": "function"
    },
    {
      "constant": true,
      "inputs": [],
      "name": "ucana",
      "outputs": [
        {
          "internalType": "contract Token",
          "name": "",
          "type": "address"
        }
      ],
      "payable": false,
      "stateMutability": "view",
      "type": "function"
    },
    {
      "constant": true,
      "inputs": [],
      "name": "ucane",
      "outputs": [
        {
          "internalType": "contract Token3",
          "name": "",
          "type": "address"
        }
      ],
      "payable": false,
      "stateMutability": "view",
      "type": "function"
    },
    {
      "constant": true,
      "inputs": [],
      "name": "ucanu",
      "outputs": [
        {
          "internalType": "contract Token2",
          "name": "",
          "type": "address"
        }
      ],
      "payable": false,
      "stateMutability": "view",
      "type": "function"
    },
    {
      "constant": false,
      "inputs": [
        {
          "internalType": "string",
          "name": "_targetTokenName",
          "type": "string"
        },
        {
          "internalType": "uint256",
          "name": "_quantTokensTarget",
          "type": "uint256"
        },
        {
          "internalType": "string",
          "name": "_offeredTokenName",
          "type": "string"
        },
        {
          "internalType": "uint256",
          "name": "_quantTokensOffered",
          "type": "uint256"
        },
        {
          "internalType": "uint256",
          "name": "_orderType",
          "type": "uint256"
        }
      ],
      "name": "placeOrder",
      "outputs": [],
      "payable": false,
      "stateMutability": "nonpayable",
      "type": "function"
    },
    {
      "constant": false,
      "inputs": [],
      "name": "checkMatches",
      "outputs": [
        {
          "internalType": "bool",
          "name": "",
          "type": "bool"
        }
      ],
      "payable": true,
      "stateMutability": "payable",
      "type": "function"
    },
    {
      "constant": false,
      "inputs": [
        {
          "internalType": "address",
          "name": "_from",
          "type": "address"
        },
        {
          "internalType": "address",
          "name": "_to",
          "type": "address"
        },
        {
          "internalType": "uint256",
          "name": "amount",
          "type": "uint256"
        },
        {
          "internalType": "string",
          "name": "tokenName",
          "type": "string"
        }
      ],
      "name": "swap",
      "outputs": [],
      "payable": true,
      "stateMutability": "payable",
      "type": "function"
    },
    {
      "constant": false,
      "inputs": [
        {
          "internalType": "address",
          "name": "_from",
          "type": "address"
        },
        {
          "internalType": "uint256",
          "name": "amount",
          "type": "uint256"
        },
        {
          "internalType": "string",
          "name": "tokenName",
          "type": "string"
        }
      ],
      "name": "checkAmountReffered",
      "outputs": [],
      "payable": false,
      "stateMutability": "nonpayable",
      "type": "function"
    },
    {
      "constant": false,
      "inputs": [],
      "name": "getIdPivo",
      "outputs": [
        {
          "internalType": "string",
          "name": "",
          "type": "string"
        }
      ],
      "payable": false,
      "stateMutability": "nonpayable",
      "type": "function"
    },
    {
      "constant": false,
      "inputs": [],
      "name": "getBalanceOfToken1",
      "outputs": [
        {
          "internalType": "uint256",
          "name": "",
          "type": "uint256"
        }
      ],
      "payable": false,
      "stateMutability": "nonpayable",
      "type": "function"
    },
    {
      "constant": false,
      "inputs": [],
      "name": "getBalanceOfToken2",
      "outputs": [
        {
          "internalType": "uint256",
          "name": "",
          "type": "uint256"
        }
      ],
      "payable": false,
      "stateMutability": "nonpayable",
      "type": "function"
    },
    {
      "constant": false,
      "inputs": [],
      "name": "getBalanceOfToken3",
      "outputs": [
        {
          "internalType": "uint256",
          "name": "",
          "type": "uint256"
        }
      ],
      "payable": false,
      "stateMutability": "nonpayable",
      "type": "function"
    },
    {
      "constant": false,
      "inputs": [],
      "name": "getRelationOfToken1",
      "outputs": [
        {
          "internalType": "uint256",
          "name": "",
          "type": "uint256"
        },
        {
          "internalType": "uint256",
          "name": "",
          "type": "uint256"
        }
      ],
      "payable": false,
      "stateMutability": "nonpayable",
      "type": "function"
    },
    {
      "constant": false,
      "inputs": [],
      "name": "getRelationOfToken2",
      "outputs": [
        {
          "internalType": "uint256",
          "name": "",
          "type": "uint256"
        },
        {
          "internalType": "uint256",
          "name": "",
          "type": "uint256"
        }
      ],
      "payable": false,
      "stateMutability": "nonpayable",
      "type": "function"
    },
    {
      "constant": false,
      "inputs": [],
      "name": "getRelationOfToken3",
      "outputs": [
        {
          "internalType": "uint256",
          "name": "",
          "type": "uint256"
        },
        {
          "internalType": "uint256",
          "name": "",
          "type": "uint256"
        }
      ],
      "payable": false,
      "stateMutability": "nonpayable",
      "type": "function"
    },
    {
      "constant": false,
      "inputs": [],
      "name": "sortInitialPivo",
      "outputs": [],
      "payable": false,
      "stateMutability": "nonpayable",
      "type": "function"
    },
    {
      "constant": false,
      "inputs": [
        {
          "internalType": "string",
          "name": "pivo",
          "type": "string"
        }
      ],
      "name": "setNewPivo",
      "outputs": [],
      "payable": false,
      "stateMutability": "nonpayable",
      "type": "function"
    },
    {
      "constant": false,
      "inputs": [],
      "name": "getTotalValorNaBolsaUCANA",
      "outputs": [
        {
          "internalType": "uint256",
          "name": "",
          "type": "uint256"
        }
      ],
      "payable": false,
      "stateMutability": "nonpayable",
      "type": "function"
    },
    {
      "constant": false,
      "inputs": [],
      "name": "getTotalValorNaBolsaUCANU",
      "outputs": [
        {
          "internalType": "uint256",
          "name": "",
          "type": "uint256"
        }
      ],
      "payable": false,
      "stateMutability": "nonpayable",
      "type": "function"
    },
    {
      "constant": false,
      "inputs": [],
      "name": "getTotalValorNaBolsaUCANE",
      "outputs": [
        {
          "internalType": "uint256",
          "name": "",
          "type": "uint256"
        }
      ],
      "payable": false,
      "stateMutability": "nonpayable",
      "type": "function"
    },
    {
      "constant": false,
      "inputs": [
        {
          "internalType": "uint256",
          "name": "orderIndex",
          "type": "uint256"
        }
      ],
      "name": "getBuyOrder",
      "outputs": [
        {
          "internalType": "uint256",
          "name": "id",
          "type": "uint256"
        },
        {
          "internalType": "address",
          "name": "owner",
          "type": "address"
        },
        {
          "internalType": "string",
          "name": "targetTokenName",
          "type": "string"
        },
        {
          "internalType": "uint256",
          "name": "quantTokensTarget",
          "type": "uint256"
        },
        {
          "internalType": "string",
          "name": "offeredTokenName",
          "type": "string"
        },
        {
          "internalType": "uint256",
          "name": "quantTokensOffered",
          "type": "uint256"
        },
        {
          "internalType": "bool",
          "name": "isCompleted",
          "type": "bool"
        }
      ],
      "payable": false,
      "stateMutability": "nonpayable",
      "type": "function"
    },
    {
      "constant": false,
      "inputs": [
        {
          "internalType": "uint256",
          "name": "orderIndex",
          "type": "uint256"
        }
      ],
      "name": "getSellOrder",
      "outputs": [
        {
          "internalType": "uint256",
          "name": "id",
          "type": "uint256"
        },
        {
          "internalType": "address",
          "name": "owner",
          "type": "address"
        },
        {
          "internalType": "string",
          "name": "targetTokenName",
          "type": "string"
        },
        {
          "internalType": "uint256",
          "name": "quantTokensTarget",
          "type": "uint256"
        },
        {
          "internalType": "string",
          "name": "offeredTokenName",
          "type": "string"
        },
        {
          "internalType": "uint256",
          "name": "quantTokensOffered",
          "type": "uint256"
        },
        {
          "internalType": "bool",
          "name": "isCompleted",
          "type": "bool"
        }
      ],
      "payable": false,
      "stateMutability": "nonpayable",
      "type": "function"
    },
    {
      "constant": false,
      "inputs": [
        {
          "internalType": "uint256",
          "name": "orderIndex",
          "type": "uint256"
        }
      ],
      "name": "getMyBuyOrder",
      "outputs": [
        {
          "internalType": "int256",
          "name": "id",
          "type": "int256"
        },
        {
          "internalType": "address",
          "name": "owner",
          "type": "address"
        },
        {
          "internalType": "string",
          "name": "targetTokenName",
          "type": "string"
        },
        {
          "internalType": "uint256",
          "name": "quantTokensTarget",
          "type": "uint256"
        },
        {
          "internalType": "string",
          "name": "offeredTokenName",
          "type": "string"
        },
        {
          "internalType": "uint256",
          "name": "quantTokensOffered",
          "type": "uint256"
        },
        {
          "internalType": "bool",
          "name": "isCompleted",
          "type": "bool"
        }
      ],
      "payable": false,
      "stateMutability": "nonpayable",
      "type": "function"
    },
    {
      "constant": false,
      "inputs": [
        {
          "internalType": "uint256",
          "name": "orderIndex",
          "type": "uint256"
        }
      ],
      "name": "getMySellOrder",
      "outputs": [
        {
          "internalType": "int256",
          "name": "id",
          "type": "int256"
        },
        {
          "internalType": "address",
          "name": "owner",
          "type": "address"
        },
        {
          "internalType": "string",
          "name": "targetTokenName",
          "type": "string"
        },
        {
          "internalType": "uint256",
          "name": "quantTokensTarget",
          "type": "uint256"
        },
        {
          "internalType": "string",
          "name": "offeredTokenName",
          "type": "string"
        },
        {
          "internalType": "uint256",
          "name": "quantTokensOffered",
          "type": "uint256"
        },
        {
          "internalType": "bool",
          "name": "isCompleted",
          "type": "bool"
        }
      ],
      "payable": false,
      "stateMutability": "nonpayable",
      "type": "function"
    },
    {
      "constant": false,
      "inputs": [],
      "name": "getBuyOrdersSize",
      "outputs": [
        {
          "internalType": "uint256",
          "name": "",
          "type": "uint256"
        }
      ],
      "payable": false,
      "stateMutability": "nonpayable",
      "type": "function"
    },
    {
      "constant": false,
      "inputs": [],
      "name": "getSellOrdersSize",
      "outputs": [
        {
          "internalType": "uint256",
          "name": "",
          "type": "uint256"
        }
      ],
      "payable": false,
      "stateMutability": "nonpayable",
      "type": "function"
    }
  ],
  "bytecode": "0x60806040526040518060400160405280601881526020017f4574685377617020496e7374616e742045786368616e6765000000000000000081525060009080519060200190620000519291906200020e565b50600a60045560405180602001604052806000815250600690805190602001906200007e9291906200020e565b506001600760006101000a81548160ff021916908315150217905550600060085560006009556000600c55348015620000b657600080fd5b5060405162005aaf38038062005aaf83398181016040526060811015620000dc57600080fd5b8101908080519060200190929190805190602001909291908051906020019092919050505082600160006101000a81548173ffffffffffffffffffffffffffffffffffffffff021916908373ffffffffffffffffffffffffffffffffffffffff16021790555081600260006101000a81548173ffffffffffffffffffffffffffffffffffffffff021916908373ffffffffffffffffffffffffffffffffffffffff16021790555080600360006101000a81548173ffffffffffffffffffffffffffffffffffffffff021916908373ffffffffffffffffffffffffffffffffffffffff16021790555033600560006101000a81548173ffffffffffffffffffffffffffffffffffffffff021916908373ffffffffffffffffffffffffffffffffffffffff160217905550505050620002bd565b828054600181600116156101000203166002900490600052602060002090601f016020900481019282601f106200025157805160ff191683800117855562000282565b8280016001018555821562000282579182015b828111156200028157825182559160200191906001019062000264565b5b50905062000291919062000295565b5090565b620002ba91905b80821115620002b65760008160009055506001016200029c565b5090565b90565b6157e280620002cd6000396000f3fe6080604052600436106101cd5760003560e01c80636494b027116100f75780639fd2dc1311610095578063c068421611610064578063c068421614610fdf578063d691f8a114611152578063df5d607214611244578063eb691f8b146113c1576101cd565b80639fd2dc1314610df4578063a5d7ea9d14610e1f578063b1af1bda14610e4a578063b5e40a0714610fbd576101cd565b80638da5cb5b116100d15780638da5cb5b14610c7f5780638e1c68fa14610cd6578063997a8f9814610d01578063998ebac614610dc9576101cd565b80636494b02714610b6d57806378c6428614610b985780638a1f514d14610bef576101cd565b80633048547f1161016f5780634a8393f31161013e5780634a8393f31461075757806354067f41146108ca5780635c0d089f146109cf5780636243242414610b42576101cd565b80633048547f1461040d57806335cea2881461043f578063390ce0d3146105b2578063392a113e14610725576101cd565b806319e8ae8e116101ab57806319e8ae8e146103495780631b4e6ad4146103745780631d3a40de1461038b578063292d26dd146103e2576101cd565b8063059c1210146101d257806306fdde03146102625780630843d400146102f2575b600080fd5b3480156101de57600080fd5b506101e76113f3565b6040518080602001828103825283818151815260200191508051906020019080838360005b8381101561022757808201518184015260208101905061020c565b50505050905090810190601f1680156102545780820380516001836020036101000a031916815260200191505b509250505060405180910390f35b34801561026e57600080fd5b50610277611491565b6040518080602001828103825283818151815260200191508051906020019080838360005b838110156102b757808201518184015260208101905061029c565b50505050905090810190601f1680156102e45780820380516001836020036101000a031916815260200191505b509250505060405180910390f35b3480156102fe57600080fd5b5061030761152f565b604051808273ffffffffffffffffffffffffffffffffffffffff1673ffffffffffffffffffffffffffffffffffffffff16815260200191505060405180910390f35b34801561035557600080fd5b5061035e611555565b6040518082815260200191505060405180910390f35b34801561038057600080fd5b5061038961155f565b005b34801561039757600080fd5b506103a06118a6565b604051808273ffffffffffffffffffffffffffffffffffffffff1673ffffffffffffffffffffffffffffffffffffffff16815260200191505060405180910390f35b3480156103ee57600080fd5b506103f76118cc565b6040518082815260200191505060405180910390f35b34801561041957600080fd5b506104226118d6565b604051808381526020018281526020019250505060405180910390f35b34801561044b57600080fd5b506104786004803603602081101561046257600080fd5b8101908080359060200190929190505050611a2b565b604051808881526020018773ffffffffffffffffffffffffffffffffffffffff1673ffffffffffffffffffffffffffffffffffffffff168152602001806020018681526020018060200185815260200184151515158152602001838103835288818151815260200191508051906020019080838360005b8381101561050a5780820151818401526020810190506104ef565b50505050905090810190601f1680156105375780820380516001836020036101000a031916815260200191505b50838103825286818151815260200191508051906020019080838360005b83811015610570578082015181840152602081019050610555565b50505050905090810190601f16801561059d5780820380516001836020036101000a031916815260200191505b50995050505050505050505060405180910390f35b3480156105be57600080fd5b506105eb600480360360208110156105d557600080fd5b8101908080359060200190929190505050611bca565b604051808881526020018773ffffffffffffffffffffffffffffffffffffffff1673ffffffffffffffffffffffffffffffffffffffff168152602001806020018681526020018060200185815260200184151515158152602001838103835288818151815260200191508051906020019080838360005b8381101561067d578082015181840152602081019050610662565b50505050905090810190601f1680156106aa5780820380516001836020036101000a031916815260200191505b50838103825286818151815260200191508051906020019080838360005b838110156106e35780820151818401526020810190506106c8565b50505050905090810190601f1680156107105780820380516001836020036101000a031916815260200191505b50995050505050505050505060405180910390f35b34801561073157600080fd5b5061073a611e14565b604051808381526020018281526020019250505060405180910390f35b34801561076357600080fd5b506107906004803603602081101561077a57600080fd5b8101908080359060200190929190505050611f69565b604051808881526020018773ffffffffffffffffffffffffffffffffffffffff1673ffffffffffffffffffffffffffffffffffffffff168152602001806020018681526020018060200185815260200184151515158152602001838103835288818151815260200191508051906020019080838360005b83811015610822578082015181840152602081019050610807565b50505050905090810190601f16801561084f5780820380516001836020036101000a031916815260200191505b50838103825286818151815260200191508051906020019080838360005b8381101561088857808201518184015260208101905061086d565b50505050905090810190601f1680156108b55780820380516001836020036101000a031916815260200191505b50995050505050505050505060405180910390f35b6109cd600480360360808110156108e057600080fd5b81019080803573ffffffffffffffffffffffffffffffffffffffff169060200190929190803573ffffffffffffffffffffffffffffffffffffffff169060200190929190803590602001909291908035906020019064010000000081111561094757600080fd5b82018360208201111561095957600080fd5b8035906020019184600183028401116401000000008311171561097b57600080fd5b91908080601f016020809104026020016040519081016040528093929190818152602001838380828437600081840152601f19601f820116905080830192505050505050509192919290505050612108565b005b3480156109db57600080fd5b50610a08600480360360208110156109f257600080fd5b8101908080359060200190929190505050612550565b604051808881526020018773ffffffffffffffffffffffffffffffffffffffff1673ffffffffffffffffffffffffffffffffffffffff168152602001806020018681526020018060200185815260200184151515158152602001838103835288818151815260200191508051906020019080838360005b83811015610a9a578082015181840152602081019050610a7f565b50505050905090810190601f168015610ac75780820380516001836020036101000a031916815260200191505b50838103825286818151815260200191508051906020019080838360005b83811015610b00578082015181840152602081019050610ae5565b50505050905090810190601f168015610b2d5780820380516001836020036101000a031916815260200191505b50995050505050505050505060405180910390f35b348015610b4e57600080fd5b50610b5761282f565b6040518082815260200191505060405180910390f35b348015610b7957600080fd5b50610b82612910565b6040518082815260200191505060405180910390f35b348015610ba457600080fd5b50610bad6129f1565b604051808273ffffffffffffffffffffffffffffffffffffffff1673ffffffffffffffffffffffffffffffffffffffff16815260200191505060405180910390f35b348015610bfb57600080fd5b50610c04612a17565b6040518080602001828103825283818151815260200191508051906020019080838360005b83811015610c44578082015181840152602081019050610c29565b50505050905090810190601f168015610c715780820380516001836020036101000a031916815260200191505b509250505060405180910390f35b348015610c8b57600080fd5b50610c94612ab9565b604051808273ffffffffffffffffffffffffffffffffffffffff1673ffffffffffffffffffffffffffffffffffffffff16815260200191505060405180910390f35b348015610ce257600080fd5b50610ceb612adf565b6040518082815260200191505060405180910390f35b348015610d0d57600080fd5b50610dc760048036036020811015610d2457600080fd5b8101908080359060200190640100000000811115610d4157600080fd5b820183602082011115610d5357600080fd5b80359060200191846001830284011164010000000083111715610d7557600080fd5b91908080601f016020809104026020016040519081016040528093929190818152602001838380828437600081840152601f19601f820116905080830192505050505050509192919290505050612bc0565b005b348015610dd557600080fd5b50610dde613778565b6040518082815260200191505060405180910390f35b348015610e0057600080fd5b50610e09613859565b6040518082815260200191505060405180910390f35b348015610e2b57600080fd5b50610e3461393a565b6040518082815260200191505060405180910390f35b348015610e5657600080fd5b50610e8360048036036020811015610e6d57600080fd5b8101908080359060200190929190505050613a1b565b604051808881526020018773ffffffffffffffffffffffffffffffffffffffff1673ffffffffffffffffffffffffffffffffffffffff168152602001806020018681526020018060200185815260200184151515158152602001838103835288818151815260200191508051906020019080838360005b83811015610f15578082015181840152602081019050610efa565b50505050905090810190601f168015610f425780820380516001836020036101000a031916815260200191505b50838103825286818151815260200191508051906020019080838360005b83811015610f7b578082015181840152602081019050610f60565b50505050905090810190601f168015610fa85780820380516001836020036101000a031916815260200191505b50995050505050505050505060405180910390f35b610fc5613c65565b604051808215151515815260200191505060405180910390f35b348015610feb57600080fd5b506110186004803603602081101561100257600080fd5b8101908080359060200190929190505050614503565b604051808881526020018773ffffffffffffffffffffffffffffffffffffffff1673ffffffffffffffffffffffffffffffffffffffff168152602001806020018681526020018060200185815260200184151515158152602001838103835288818151815260200191508051906020019080838360005b838110156110aa57808201518184015260208101905061108f565b50505050905090810190601f1680156110d75780820380516001836020036101000a031916815260200191505b50838103825286818151815260200191508051906020019080838360005b838110156111105780820151818401526020810190506110f5565b50505050905090810190601f16801561113d5780820380516001836020036101000a031916815260200191505b50995050505050505050505060405180910390f35b34801561115e57600080fd5b506112426004803603606081101561117557600080fd5b81019080803573ffffffffffffffffffffffffffffffffffffffff16906020019092919080359060200190929190803590602001906401000000008111156111bc57600080fd5b8201836020820111156111ce57600080fd5b803590602001918460018302840111640100000000831117156111f057600080fd5b91908080601f016020809104026020016040519081016040528093929190818152602001838380828437600081840152601f19601f8201169050808301925050505050505091929192905050506147e2565b005b34801561125057600080fd5b506113bf600480360360a081101561126757600080fd5b810190808035906020019064010000000081111561128457600080fd5b82018360208201111561129657600080fd5b803590602001918460018302840111640100000000831117156112b857600080fd5b91908080601f016020809104026020016040519081016040528093929190818152602001838380828437600081840152601f19601f820116905080830192505050505050509192919290803590602001909291908035906020019064010000000081111561132557600080fd5b82018360208201111561133757600080fd5b8035906020019184600183028401116401000000008311171561135957600080fd5b91908080601f016020809104026020016040519081016040528093929190818152602001838380828437600081840152601f19601f8201169050808301925050505050505091929192908035906020019092919080359060200190929190505050614ccb565b005b3480156113cd57600080fd5b506113d6615445565b604051808381526020018281526020019250505060405180910390f35b60068054600181600116156101000203166002900480601f0160208091040260200160405190810160405280929190818152602001828054600181600116156101000203166002900480156114895780601f1061145e57610100808354040283529160200191611489565b820191906000526020600020905b81548152906001019060200180831161146c57829003601f168201915b505050505081565b60008054600181600116156101000203166002900480601f0160208091040260200160405190810160405280929190818152602001828054600181600116156101000203166002900480156115275780601f106114fc57610100808354040283529160200191611527565b820191906000526020600020905b81548152906001019060200180831161150a57829003601f168201915b505050505081565b600160009054906101000a900473ffffffffffffffffffffffffffffffffffffffff1681565b6000600954905090565b60003073ffffffffffffffffffffffffffffffffffffffff16638e1c68fa6040518163ffffffff1660e01b8152600401602060405180830381600087803b1580156115a957600080fd5b505af11580156115bd573d6000803e3d6000fd5b505050506040513d60208110156115d357600080fd5b8101908080519060200190929190505050905060003073ffffffffffffffffffffffffffffffffffffffff1663624324246040518163ffffffff1660e01b8152600401602060405180830381600087803b15801561163057600080fd5b505af1158015611644573d6000803e3d6000fd5b505050506040513d602081101561165a57600080fd5b8101908080519060200190929190505050905060003073ffffffffffffffffffffffffffffffffffffffff1663998ebac66040518163ffffffff1660e01b8152600401602060405180830381600087803b1580156116b757600080fd5b505af11580156116cb573d6000803e3d6000fd5b505050506040513d60208110156116e157600080fd5b81019080805190602001909291905050509050818312801561170257508083125b15611758576040518060400160405280600581526020017f5543414e4100000000000000000000000000000000000000000000000000000081525060069080519060200190611752929190615633565b506117fe565b8082136117b0576040518060400160405280600581526020017f5543414e45000000000000000000000000000000000000000000000000000000815250600690805190602001906117aa929190615633565b506117fd565b6040518060400160405280600581526020017f5543414e55000000000000000000000000000000000000000000000000000000815250600690805190602001906117fb929190615633565b505b5b6118a160068054600181600116156101000203166002900480601f0160208091040260200160405190810160405280929190818152602001828054600181600116156101000203166002900480156118975780601f1061186c57610100808354040283529160200191611897565b820191906000526020600020905b81548152906001019060200180831161187a57829003601f168201915b5050505050612bc0565b505050565b600360009054906101000a900473ffffffffffffffffffffffffffffffffffffffff1681565b6000600854905090565b600080600160009054906101000a900473ffffffffffffffffffffffffffffffffffffffff1673ffffffffffffffffffffffffffffffffffffffff1663ff98b7a36040518163ffffffff1660e01b8152600401602060405180830381600087803b15801561194357600080fd5b505af1158015611957573d6000803e3d6000fd5b505050506040513d602081101561196d57600080fd5b8101908080519060200190929190505050600160009054906101000a900473ffffffffffffffffffffffffffffffffffffffff1673ffffffffffffffffffffffffffffffffffffffff16634e1d1af26040518163ffffffff1660e01b8152600401602060405180830381600087803b1580156119e857600080fd5b505af11580156119fc573d6000803e3d6000fd5b505050506040513d6020811015611a1257600080fd5b8101908080519060200190929190505050915091509091565b600a6020528060005260406000206000915090508060000154908060010160009054906101000a900473ffffffffffffffffffffffffffffffffffffffff1690806002018054600181600116156101000203166002900480601f016020809104026020016040519081016040528092919081815260200182805460018160011615610100020316600290048015611b035780601f10611ad857610100808354040283529160200191611b03565b820191906000526020600020905b815481529060010190602001808311611ae657829003601f168201915b505050505090806003015490806004018054600181600116156101000203166002900480601f016020809104026020016040519081016040528092919081815260200182805460018160011615610100020316600290048015611ba75780601f10611b7c57610100808354040283529160200191611ba7565b820191906000526020600020905b815481529060010190602001808311611b8a57829003601f168201915b5050505050908060050154908060060160009054906101000a900460ff16905087565b600080606060006060600080611bde6156b3565b600b60008a81526020019081526020016000206040518060e0016040529081600082015481526020016001820160009054906101000a900473ffffffffffffffffffffffffffffffffffffffff1673ffffffffffffffffffffffffffffffffffffffff1673ffffffffffffffffffffffffffffffffffffffff168152602001600282018054600181600116156101000203166002900480601f016020809104026020016040519081016040528092919081815260200182805460018160011615610100020316600290048015611cf55780601f10611cca57610100808354040283529160200191611cf5565b820191906000526020600020905b815481529060010190602001808311611cd857829003601f168201915b5050505050815260200160038201548152602001600482018054600181600116156101000203166002900480601f016020809104026020016040519081016040528092919081815260200182805460018160011615610100020316600290048015611da15780601f10611d7657610100808354040283529160200191611da1565b820191906000526020600020905b815481529060010190602001808311611d8457829003601f168201915b50505050508152602001600582015481526020016006820160009054906101000a900460ff1615151515815250509050806000015181602001518260400151836060015184608001518560a001518660c00151849450829250975097509750975097509750975050919395979092949650565b600080600260009054906101000a900473ffffffffffffffffffffffffffffffffffffffff1673ffffffffffffffffffffffffffffffffffffffff16638d2de2466040518163ffffffff1660e01b8152600401602060405180830381600087803b158015611e8157600080fd5b505af1158015611e95573d6000803e3d6000fd5b505050506040513d6020811015611eab57600080fd5b8101908080519060200190929190505050600260009054906101000a900473ffffffffffffffffffffffffffffffffffffffff1673ffffffffffffffffffffffffffffffffffffffff1663aac6c3b26040518163ffffffff1660e01b8152600401602060405180830381600087803b158015611f2657600080fd5b505af1158015611f3a573d6000803e3d6000fd5b505050506040513d6020811015611f5057600080fd5b8101908080519060200190929190505050915091509091565b600b6020528060005260406000206000915090508060000154908060010160009054906101000a900473ffffffffffffffffffffffffffffffffffffffff1690806002018054600181600116156101000203166002900480601f0160208091040260200160405190810160405280929190818152602001828054600181600116156101000203166002900480156120415780601f1061201657610100808354040283529160200191612041565b820191906000526020600020905b81548152906001019060200180831161202457829003601f168201915b505050505090806003015490806004018054600181600116156101000203166002900480601f0160208091040260200160405190810160405280929190818152602001828054600181600116156101000203166002900480156120e55780601f106120ba576101008083540402835291602001916120e5565b820191906000526020600020905b8154815290600101906020018083116120c857829003601f168201915b5050505050908060050154908060060160009054906101000a900460ff16905087565b60405180807f5543414e41000000000000000000000000000000000000000000000000000000815250600501905060405180910390208180519060200120141561227457600160009054906101000a900473ffffffffffffffffffffffffffffffffffffffff1673ffffffffffffffffffffffffffffffffffffffff166323b872dd8585670de0b6b3a764000086026040518463ffffffff1660e01b8152600401808473ffffffffffffffffffffffffffffffffffffffff1673ffffffffffffffffffffffffffffffffffffffff1681526020018373ffffffffffffffffffffffffffffffffffffffff1673ffffffffffffffffffffffffffffffffffffffff1681526020018281526020019350505050602060405180830381600087803b15801561223357600080fd5b505af1158015612247573d6000803e3d6000fd5b505050506040513d602081101561225d57600080fd5b81019080805190602001909291905050505061254a565b60405180807f5543414e5500000000000000000000000000000000000000000000000000000081525060050190506040518091039020818051906020012014156123e057600260009054906101000a900473ffffffffffffffffffffffffffffffffffffffff1673ffffffffffffffffffffffffffffffffffffffff166323b872dd8585670de0b6b3a764000086026040518463ffffffff1660e01b8152600401808473ffffffffffffffffffffffffffffffffffffffff1673ffffffffffffffffffffffffffffffffffffffff1681526020018373ffffffffffffffffffffffffffffffffffffffff1673ffffffffffffffffffffffffffffffffffffffff1681526020018281526020019350505050602060405180830381600087803b15801561239f57600080fd5b505af11580156123b3573d6000803e3d6000fd5b505050506040513d60208110156123c957600080fd5b810190808051906020019092919050505050612549565b60405180807f5543414e45000000000000000000000000000000000000000000000000000000815250600501905060405180910390208180519060200120141561254857600360009054906101000a900473ffffffffffffffffffffffffffffffffffffffff1673ffffffffffffffffffffffffffffffffffffffff166323b872dd8585670de0b6b3a764000086026040518463ffffffff1660e01b8152600401808473ffffffffffffffffffffffffffffffffffffffff1673ffffffffffffffffffffffffffffffffffffffff1681526020018373ffffffffffffffffffffffffffffffffffffffff1673ffffffffffffffffffffffffffffffffffffffff1681526020018281526020019350505050602060405180830381600087803b15801561250b57600080fd5b505af115801561251f573d6000803e3d6000fd5b505050506040513d602081101561253557600080fd5b8101908080519060200190929190505050505b5b5b50505050565b6000806060600060606000806125646156b3565b600a60008a81526020019081526020016000206040518060e0016040529081600082015481526020016001820160009054906101000a900473ffffffffffffffffffffffffffffffffffffffff1673ffffffffffffffffffffffffffffffffffffffff1673ffffffffffffffffffffffffffffffffffffffff168152602001600282018054600181600116156101000203166002900480601f01602080910402602001604051908101604052809291908181526020018280546001816001161561010002031660029004801561267b5780601f106126505761010080835404028352916020019161267b565b820191906000526020600020905b81548152906001019060200180831161265e57829003601f168201915b5050505050815260200160038201548152602001600482018054600181600116156101000203166002900480601f0160208091040260200160405190810160405280929190818152602001828054600181600116156101000203166002900480156127275780601f106126fc57610100808354040283529160200191612727565b820191906000526020600020905b81548152906001019060200180831161270a57829003601f168201915b50505050508152602001600582015481526020016006820160009054906101000a900460ff16151515158152505090503373ffffffffffffffffffffffffffffffffffffffff16816020015173ffffffffffffffffffffffffffffffffffffffff1614156127cc57806000015181602001518260400151836060015184608001518560a001518660c00151849450829250975097509750975097509750975050612824565b7fffffffffffffffffffffffffffffffffffffffffffffffffffffffffffffffff81602001518260400151836060015184608001518560a001518660c001518696508494508292509750975097509750975097509750505b919395979092949650565b6000600360009054906101000a900473ffffffffffffffffffffffffffffffffffffffff1673ffffffffffffffffffffffffffffffffffffffff166370a08231306040518263ffffffff1660e01b8152600401808273ffffffffffffffffffffffffffffffffffffffff1673ffffffffffffffffffffffffffffffffffffffff16815260200191505060206040518083038186803b1580156128d057600080fd5b505afa1580156128e4573d6000803e3d6000fd5b505050506040513d60208110156128fa57600080fd5b8101908080519060200190929190505050905090565b6000600360009054906101000a900473ffffffffffffffffffffffffffffffffffffffff1673ffffffffffffffffffffffffffffffffffffffff1663b99152d0336040518263ffffffff1660e01b8152600401808273ffffffffffffffffffffffffffffffffffffffff1673ffffffffffffffffffffffffffffffffffffffff16815260200191505060206040518083038186803b1580156129b157600080fd5b505afa1580156129c5573d6000803e3d6000fd5b505050506040513d60208110156129db57600080fd5b8101908080519060200190929190505050905090565b600260009054906101000a900473ffffffffffffffffffffffffffffffffffffffff1681565b606060068054600181600116156101000203166002900480601f016020809104026020016040519081016040528092919081815260200182805460018160011615610100020316600290048015612aaf5780601f10612a8457610100808354040283529160200191612aaf565b820191906000526020600020905b815481529060010190602001808311612a9257829003601f168201915b5050505050905090565b600560009054906101000a900473ffffffffffffffffffffffffffffffffffffffff1681565b6000600160009054906101000a900473ffffffffffffffffffffffffffffffffffffffff1673ffffffffffffffffffffffffffffffffffffffff166370a08231306040518263ffffffff1660e01b8152600401808273ffffffffffffffffffffffffffffffffffffffff1673ffffffffffffffffffffffffffffffffffffffff16815260200191505060206040518083038186803b158015612b8057600080fd5b505afa158015612b94573d6000803e3d6000fd5b505050506040513d6020811015612baa57600080fd5b8101908080519060200190929190505050905090565b60006001905060006002612bd560045461559a565b019050600060028201905060405180807f5543414e410000000000000000000000000000000000000000000000000000008152506005019050604051809103902084805190602001201415612fd357600160009054906101000a900473ffffffffffffffffffffffffffffffffffffffff1673ffffffffffffffffffffffffffffffffffffffff1663b9174c4c670de0b6b3a764000084026040518263ffffffff1660e01b815260040180828152602001915050600060405180830381600087803b158015612ca357600080fd5b505af1158015612cb7573d6000803e3d6000fd5b50505050600160009054906101000a900473ffffffffffffffffffffffffffffffffffffffff1673ffffffffffffffffffffffffffffffffffffffff16631dece9fd670de0b6b3a764000083026040518263ffffffff1660e01b815260040180828152602001915050600060405180830381600087803b158015612d3a57600080fd5b505af1158015612d4e573d6000803e3d6000fd5b50505050600360009054906101000a900473ffffffffffffffffffffffffffffffffffffffff1673ffffffffffffffffffffffffffffffffffffffff166396e1182a612da3838661561590919063ffffffff16565b6040518263ffffffff1660e01b815260040180828152602001915050600060405180830381600087803b158015612dd957600080fd5b505af1158015612ded573d6000803e3d6000fd5b50505050600260009054906101000a900473ffffffffffffffffffffffffffffffffffffffff1673ffffffffffffffffffffffffffffffffffffffff166378914dff612e42848661561590919063ffffffff16565b6040518263ffffffff1660e01b815260040180828152602001915050600060405180830381600087803b158015612e7857600080fd5b505af1158015612e8c573d6000803e3d6000fd5b50505050600260009054906101000a900473ffffffffffffffffffffffffffffffffffffffff1673ffffffffffffffffffffffffffffffffffffffff1663768ad933612ee1848461561590919063ffffffff16565b6040518263ffffffff1660e01b815260040180828152602001915050600060405180830381600087803b158015612f1757600080fd5b505af1158015612f2b573d6000803e3d6000fd5b50505050600360009054906101000a900473ffffffffffffffffffffffffffffffffffffffff1673ffffffffffffffffffffffffffffffffffffffff16639f6c37d6612f80838561561590919063ffffffff16565b6040518263ffffffff1660e01b815260040180828152602001915050600060405180830381600087803b158015612fb657600080fd5b505af1158015612fca573d6000803e3d6000fd5b50505050613772565b60405180807f5543414e5500000000000000000000000000000000000000000000000000000081525060050190506040518091039020848051906020012014156133c657600260009054906101000a900473ffffffffffffffffffffffffffffffffffffffff1673ffffffffffffffffffffffffffffffffffffffff166378914dff670de0b6b3a764000084026040518263ffffffff1660e01b815260040180828152602001915050600060405180830381600087803b15801561309657600080fd5b505af11580156130aa573d6000803e3d6000fd5b50505050600260009054906101000a900473ffffffffffffffffffffffffffffffffffffffff1673ffffffffffffffffffffffffffffffffffffffff1663768ad933670de0b6b3a764000083026040518263ffffffff1660e01b815260040180828152602001915050600060405180830381600087803b15801561312d57600080fd5b505af1158015613141573d6000803e3d6000fd5b50505050600160009054906101000a900473ffffffffffffffffffffffffffffffffffffffff1673ffffffffffffffffffffffffffffffffffffffff1663b9174c4c613196848661561590919063ffffffff16565b6040518263ffffffff1660e01b815260040180828152602001915050600060405180830381600087803b1580156131cc57600080fd5b505af11580156131e0573d6000803e3d6000fd5b50505050600360009054906101000a900473ffffffffffffffffffffffffffffffffffffffff1673ffffffffffffffffffffffffffffffffffffffff16639f6c37d6613235838661561590919063ffffffff16565b6040518263ffffffff1660e01b815260040180828152602001915050600060405180830381600087803b15801561326b57600080fd5b505af115801561327f573d6000803e3d6000fd5b50505050600160009054906101000a900473ffffffffffffffffffffffffffffffffffffffff1673ffffffffffffffffffffffffffffffffffffffff16631dece9fd6132d4848461561590919063ffffffff16565b6040518263ffffffff1660e01b815260040180828152602001915050600060405180830381600087803b15801561330a57600080fd5b505af115801561331e573d6000803e3d6000fd5b50505050600360009054906101000a900473ffffffffffffffffffffffffffffffffffffffff1673ffffffffffffffffffffffffffffffffffffffff166396e1182a613373838561561590919063ffffffff16565b6040518263ffffffff1660e01b815260040180828152602001915050600060405180830381600087803b1580156133a957600080fd5b505af11580156133bd573d6000803e3d6000fd5b50505050613771565b600360009054906101000a900473ffffffffffffffffffffffffffffffffffffffff1673ffffffffffffffffffffffffffffffffffffffff166396e1182a670de0b6b3a764000084026040518263ffffffff1660e01b815260040180828152602001915050600060405180830381600087803b15801561344557600080fd5b505af1158015613459573d6000803e3d6000fd5b50505050600360009054906101000a900473ffffffffffffffffffffffffffffffffffffffff1673ffffffffffffffffffffffffffffffffffffffff16639f6c37d6670de0b6b3a764000083026040518263ffffffff1660e01b815260040180828152602001915050600060405180830381600087803b1580156134dc57600080fd5b505af11580156134f0573d6000803e3d6000fd5b50505050600160009054906101000a900473ffffffffffffffffffffffffffffffffffffffff1673ffffffffffffffffffffffffffffffffffffffff16631dece9fd613545848661561590919063ffffffff16565b6040518263ffffffff1660e01b815260040180828152602001915050600060405180830381600087803b15801561357b57600080fd5b505af115801561358f573d6000803e3d6000fd5b50505050600260009054906101000a900473ffffffffffffffffffffffffffffffffffffffff1673ffffffffffffffffffffffffffffffffffffffff1663768ad9336135e4838661561590919063ffffffff16565b6040518263ffffffff1660e01b815260040180828152602001915050600060405180830381600087803b15801561361a57600080fd5b505af115801561362e573d6000803e3d6000fd5b50505050600160009054906101000a900473ffffffffffffffffffffffffffffffffffffffff1673ffffffffffffffffffffffffffffffffffffffff1663b9174c4c613683848461561590919063ffffffff16565b6040518263ffffffff1660e01b815260040180828152602001915050600060405180830381600087803b1580156136b957600080fd5b505af11580156136cd573d6000803e3d6000fd5b50505050600260009054906101000a900473ffffffffffffffffffffffffffffffffffffffff1673ffffffffffffffffffffffffffffffffffffffff166378914dff613722838561561590919063ffffffff16565b6040518263ffffffff1660e01b815260040180828152602001915050600060405180830381600087803b15801561375857600080fd5b505af115801561376c573d6000803e3d6000fd5b505050505b5b50505050565b6000600260009054906101000a900473ffffffffffffffffffffffffffffffffffffffff1673ffffffffffffffffffffffffffffffffffffffff166370a08231306040518263ffffffff1660e01b8152600401808273ffffffffffffffffffffffffffffffffffffffff1673ffffffffffffffffffffffffffffffffffffffff16815260200191505060206040518083038186803b15801561381957600080fd5b505afa15801561382d573d6000803e3d6000fd5b505050506040513d602081101561384357600080fd5b8101908080519060200190929190505050905090565b6000600160009054906101000a900473ffffffffffffffffffffffffffffffffffffffff1673ffffffffffffffffffffffffffffffffffffffff1663b99152d0336040518263ffffffff1660e01b8152600401808273ffffffffffffffffffffffffffffffffffffffff1673ffffffffffffffffffffffffffffffffffffffff16815260200191505060206040518083038186803b1580156138fa57600080fd5b505afa15801561390e573d6000803e3d6000fd5b505050506040513d602081101561392457600080fd5b8101908080519060200190929190505050905090565b6000600260009054906101000a900473ffffffffffffffffffffffffffffffffffffffff1673ffffffffffffffffffffffffffffffffffffffff1663b99152d0336040518263ffffffff1660e01b8152600401808273ffffffffffffffffffffffffffffffffffffffff1673ffffffffffffffffffffffffffffffffffffffff16815260200191505060206040518083038186803b1580156139db57600080fd5b505afa1580156139ef573d6000803e3d6000fd5b505050506040513d6020811015613a0557600080fd5b8101908080519060200190929190505050905090565b600080606060006060600080613a2f6156b3565b600a60008a81526020019081526020016000206040518060e0016040529081600082015481526020016001820160009054906101000a900473ffffffffffffffffffffffffffffffffffffffff1673ffffffffffffffffffffffffffffffffffffffff1673ffffffffffffffffffffffffffffffffffffffff168152602001600282018054600181600116156101000203166002900480601f016020809104026020016040519081016040528092919081815260200182805460018160011615610100020316600290048015613b465780601f10613b1b57610100808354040283529160200191613b46565b820191906000526020600020905b815481529060010190602001808311613b2957829003601f168201915b5050505050815260200160038201548152602001600482018054600181600116156101000203166002900480601f016020809104026020016040519081016040528092919081815260200182805460018160011615610100020316600290048015613bf25780601f10613bc757610100808354040283529160200191613bf2565b820191906000526020600020905b815481529060010190602001808311613bd557829003601f168201915b50505050508152602001600582015481526020016006820160009054906101000a900460ff1615151515815250509050806000015181602001518260400151836060015184608001518560a001518660c00151849450829250975097509750975097509750975050919395979092949650565b60008060009050600080905060008090505b6008548310156144fa57600a600084815260200190815260200160002060060160009054906101000a900460ff166144ed57600091505b6009548210156144ec57600b600083815260200190815260200160002060060160009054906101000a900460ff166144df57600a600084815260200190815260200160002060010160009054906101000a900473ffffffffffffffffffffffffffffffffffffffff1673ffffffffffffffffffffffffffffffffffffffff16600b600084815260200190815260200160002060010160009054906101000a900473ffffffffffffffffffffffffffffffffffffffff1673ffffffffffffffffffffffffffffffffffffffff1614158015613e815750600b60008381526020019081526020016000206004016040518082805460018160011615610100020316600290048015613df45780601f10613dd2576101008083540402835291820191613df4565b820191906000526020600020905b815481529060010190602001808311613de0575b50509150506040518091039020600a60008581526020019081526020016000206002016040518082805460018160011615610100020316600290048015613e725780601f10613e50576101008083540402835291820191613e72565b820191906000526020600020905b815481529060010190602001808311613e5e575b50509150506040518091039020145b8015613f865750600b60008381526020019081526020016000206002016040518082805460018160011615610100020316600290048015613ef95780601f10613ed7576101008083540402835291820191613ef9565b820191906000526020600020905b815481529060010190602001808311613ee5575b50509150506040518091039020600a60008581526020019081526020016000206004016040518082805460018160011615610100020316600290048015613f775780601f10613f55576101008083540402835291820191613f77565b820191906000526020600020905b815481529060010190602001808311613f63575b50509150506040518091039020145b156144de57600b600083815260200190815260200160002060030154600a60008581526020019081526020016000206005015410158015613ff35750600b600083815260200190815260200160002060050154600a60008581526020019081526020016000206003015411155b156144dd576140fd600a600085815260200190815260200160002060010160009054906101000a900473ffffffffffffffffffffffffffffffffffffffff16600a600086815260200190815260200160002060050154600a60008781526020019081526020016000206004018054600181600116156101000203166002900480601f0160208091040260200160405190810160405280929190818152602001828054600181600116156101000203166002900480156140f35780601f106140c8576101008083540402835291602001916140f3565b820191906000526020600020905b8154815290600101906020018083116140d657829003601f168201915b50505050506147e2565b614202600b600084815260200190815260200160002060010160009054906101000a900473ffffffffffffffffffffffffffffffffffffffff16600b600085815260200190815260200160002060050154600b60008781526020019081526020016000206004018054600181600116156101000203166002900480601f0160208091040260200160405190810160405280929190818152602001828054600181600116156101000203166002900480156141f85780601f106141cd576101008083540402835291602001916141f8565b820191906000526020600020905b8154815290600101906020018083116141db57829003601f168201915b50505050506147e2565b61433e600a600085815260200190815260200160002060010160009054906101000a900473ffffffffffffffffffffffffffffffffffffffff16600b600085815260200190815260200160002060010160009054906101000a900473ffffffffffffffffffffffffffffffffffffffff16600a600087815260200190815260200160002060050154600a60008881526020019081526020016000206004018054600181600116156101000203166002900480601f0160208091040260200160405190810160405280929190818152602001828054600181600116156101000203166002900480156143345780601f1061430957610100808354040283529160200191614334565b820191906000526020600020905b81548152906001019060200180831161431757829003601f168201915b5050505050612108565b61447a600b600084815260200190815260200160002060010160009054906101000a900473ffffffffffffffffffffffffffffffffffffffff16600a600086815260200190815260200160002060010160009054906101000a900473ffffffffffffffffffffffffffffffffffffffff16600b600086815260200190815260200160002060050154600b60008781526020019081526020016000206004018054600181600116156101000203166002900480601f0160208091040260200160405190810160405280929190818152602001828054600181600116156101000203166002900480156144705780601f1061444557610100808354040283529160200191614470565b820191906000526020600020905b81548152906001019060200180831161445357829003601f168201915b5050505050612108565b6001600a600085815260200190815260200160002060060160006101000a81548160ff0219169083151502179055506001600b600084815260200190815260200160002060060160006101000a81548160ff021916908315150217905550600190505b5b5b8180600101925050613cae565b5b8280600101935050613c77565b80935050505090565b6000806060600060606000806145176156b3565b600b60008a81526020019081526020016000206040518060e0016040529081600082015481526020016001820160009054906101000a900473ffffffffffffffffffffffffffffffffffffffff1673ffffffffffffffffffffffffffffffffffffffff1673ffffffffffffffffffffffffffffffffffffffff168152602001600282018054600181600116156101000203166002900480601f01602080910402602001604051908101604052809291908181526020018280546001816001161561010002031660029004801561462e5780601f106146035761010080835404028352916020019161462e565b820191906000526020600020905b81548152906001019060200180831161461157829003601f168201915b5050505050815260200160038201548152602001600482018054600181600116156101000203166002900480601f0160208091040260200160405190810160405280929190818152602001828054600181600116156101000203166002900480156146da5780601f106146af576101008083540402835291602001916146da565b820191906000526020600020905b8154815290600101906020018083116146bd57829003601f168201915b50505050508152602001600582015481526020016006820160009054906101000a900460ff16151515158152505090503373ffffffffffffffffffffffffffffffffffffffff16816020015173ffffffffffffffffffffffffffffffffffffffff16141561477f57806000015181602001518260400151836060015184608001518560a001518660c001518494508292509750975097509750975097509750506147d7565b7fffffffffffffffffffffffffffffffffffffffffffffffffffffffffffffffff81602001518260400151836060015184608001518560a001518660c001518696508494508292509750975097509750975097509750505b919395979092949650565b60405180807f5543414e41000000000000000000000000000000000000000000000000000000815250600501905060405180910390208180519060200120141561498457670de0b6b3a76400008202600160009054906101000a900473ffffffffffffffffffffffffffffffffffffffff1673ffffffffffffffffffffffffffffffffffffffff166370a08231856040518263ffffffff1660e01b8152600401808273ffffffffffffffffffffffffffffffffffffffff1673ffffffffffffffffffffffffffffffffffffffff16815260200191505060206040518083038186803b1580156148d057600080fd5b505afa1580156148e4573d6000803e3d6000fd5b505050506040513d60208110156148fa57600080fd5b8101908080519060200190929190505050101561497f576040517f08c379a000000000000000000000000000000000000000000000000000000000815260040180806020018281038252601a8152602001807f4e6f7420656e6f756768205543414e412070726f76696465642e00000000000081525060200191505060405180910390fd5b614cc6565b60405180807f5543414e550000000000000000000000000000000000000000000000000000008152506005019050604051809103902081805190602001201415614b2657670de0b6b3a76400008202600260009054906101000a900473ffffffffffffffffffffffffffffffffffffffff1673ffffffffffffffffffffffffffffffffffffffff166370a08231856040518263ffffffff1660e01b8152600401808273ffffffffffffffffffffffffffffffffffffffff1673ffffffffffffffffffffffffffffffffffffffff16815260200191505060206040518083038186803b158015614a7257600080fd5b505afa158015614a86573d6000803e3d6000fd5b505050506040513d6020811015614a9c57600080fd5b81019080805190602001909291905050501015614b21576040517f08c379a000000000000000000000000000000000000000000000000000000000815260040180806020018281038252601a8152602001807f4e6f7420656e6f756768205543414e552070726f76696465642e00000000000081525060200191505060405180910390fd5b614cc5565b60405180807f5543414e450000000000000000000000000000000000000000000000000000008152506005019050604051809103902081805190602001201415614cc457670de0b6b3a76400008202600360009054906101000a900473ffffffffffffffffffffffffffffffffffffffff1673ffffffffffffffffffffffffffffffffffffffff166370a08231856040518263ffffffff1660e01b8152600401808273ffffffffffffffffffffffffffffffffffffffff1673ffffffffffffffffffffffffffffffffffffffff16815260200191505060206040518083038186803b158015614c1457600080fd5b505afa158015614c28573d6000803e3d6000fd5b505050506040513d6020811015614c3e57600080fd5b81019080805190602001909291905050501015614cc3576040517f08c379a000000000000000000000000000000000000000000000000000000000815260040180806020018281038252601a8152602001807f4e6f7420656e6f756768205543414e452070726f76696465642e00000000000081525060200191505060405180910390fd5b5b5b5b505050565b60405180807f5543414e410000000000000000000000000000000000000000000000000000008152506005019050604051809103902083805190602001201415614e6d57670de0b6b3a76400008202600160009054906101000a900473ffffffffffffffffffffffffffffffffffffffff1673ffffffffffffffffffffffffffffffffffffffff166370a08231336040518263ffffffff1660e01b8152600401808273ffffffffffffffffffffffffffffffffffffffff1673ffffffffffffffffffffffffffffffffffffffff16815260200191505060206040518083038186803b158015614db957600080fd5b505afa158015614dcd573d6000803e3d6000fd5b505050506040513d6020811015614de357600080fd5b81019080805190602001909291905050501015614e68576040517f08c379a000000000000000000000000000000000000000000000000000000000815260040180806020018281038252601a8152602001807f4e6f7420656e6f756768205543414e412070726f76696465642e00000000000081525060200191505060405180910390fd5b6151af565b60405180807f5543414e55000000000000000000000000000000000000000000000000000000815250600501905060405180910390208380519060200120141561500f57670de0b6b3a76400008202600260009054906101000a900473ffffffffffffffffffffffffffffffffffffffff1673ffffffffffffffffffffffffffffffffffffffff166370a08231336040518263ffffffff1660e01b8152600401808273ffffffffffffffffffffffffffffffffffffffff1673ffffffffffffffffffffffffffffffffffffffff16815260200191505060206040518083038186803b158015614f5b57600080fd5b505afa158015614f6f573d6000803e3d6000fd5b505050506040513d6020811015614f8557600080fd5b8101908080519060200190929190505050101561500a576040517f08c379a000000000000000000000000000000000000000000000000000000000815260040180806020018281038252601a8152602001807f4e6f7420656e6f756768205543414e552070726f76696465642e00000000000081525060200191505060405180910390fd5b6151ae565b60405180807f5543414e4500000000000000000000000000000000000000000000000000000081525060050190506040518091039020838051906020012014156151ad57670de0b6b3a76400008202600360009054906101000a900473ffffffffffffffffffffffffffffffffffffffff1673ffffffffffffffffffffffffffffffffffffffff166370a08231336040518263ffffffff1660e01b8152600401808273ffffffffffffffffffffffffffffffffffffffff1673ffffffffffffffffffffffffffffffffffffffff16815260200191505060206040518083038186803b1580156150fd57600080fd5b505afa158015615111573d6000803e3d6000fd5b505050506040513d602081101561512757600080fd5b810190808051906020019092919050505010156151ac576040517f08c379a000000000000000000000000000000000000000000000000000000000815260040180806020018281038252601a8152602001807f4e6f7420656e6f756768205543414e452070726f76696465642e00000000000081525060200191505060405180910390fd5b5b5b5b6151b76156b3565b6040518060e00160405280600c5481526020013373ffffffffffffffffffffffffffffffffffffffff16815260200187815260200186815260200185815260200184815260200160001515815250905060008214156152ff5780600b600060095481526020019081526020016000206000820151816000015560208201518160010160006101000a81548173ffffffffffffffffffffffffffffffffffffffff021916908373ffffffffffffffffffffffffffffffffffffffff1602179055506040820151816002019080519060200190615293929190615708565b506060820151816003015560808201518160040190805190602001906152ba929190615708565b5060a0820151816005015560c08201518160060160006101000a81548160ff0219169083151502179055509050506009600081548092919060010191905055506153ea565b80600a600060085481526020019081526020016000206000820151816000015560208201518160010160006101000a81548173ffffffffffffffffffffffffffffffffffffffff021916908373ffffffffffffffffffffffffffffffffffffffff1602179055506040820151816002019080519060200190615382929190615708565b506060820151816003015560808201518160040190805190602001906153a9929190615708565b5060a0820151816005015560c08201518160060160006101000a81548160ff0219169083151502179055509050506008600081548092919060010191905055505b6001600c600082825401925050819055507fd649d7405b60e3bb5e4ba9bea0e77d66e586bc6672032dffe758a34eff9cd584615424613c65565b604051808215151515815260200191505060405180910390a1505050505050565b600080600360009054906101000a900473ffffffffffffffffffffffffffffffffffffffff1673ffffffffffffffffffffffffffffffffffffffff16636d69fc4a6040518163ffffffff1660e01b8152600401602060405180830381600087803b1580156154b257600080fd5b505af11580156154c6573d6000803e3d6000fd5b505050506040513d60208110156154dc57600080fd5b8101908080519060200190929190505050600360009054906101000a900473ffffffffffffffffffffffffffffffffffffffff1673ffffffffffffffffffffffffffffffffffffffff16631275c38b6040518163ffffffff1660e01b8152600401602060405180830381600087803b15801561555757600080fd5b505af115801561556b573d6000803e3d6000fd5b505050506040513d602081101561558157600080fd5b8101908080519060200190929190505050915091509091565b600081423344604051602001808481526020018373ffffffffffffffffffffffffffffffffffffffff1673ffffffffffffffffffffffffffffffffffffffff1660601b815260140182815260200193505050506040516020818303038152906040528051906020012060001c8161560d57fe5b069050919050565b600081670de0b6b3a764000084028161562a57fe5b04905092915050565b828054600181600116156101000203166002900490600052602060002090601f016020900481019282601f1061567457805160ff19168380011785556156a2565b828001600101855582156156a2579182015b828111156156a1578251825591602001919060010190615686565b5b5090506156af9190615788565b5090565b6040518060e0016040528060008152602001600073ffffffffffffffffffffffffffffffffffffffff168152602001606081526020016000815260200160608152602001600081526020016000151581525090565b828054600181600116156101000203166002900490600052602060002090601f016020900481019282601f1061574957805160ff1916838001178555615777565b82800160010185558215615777579182015b8281111561577657825182559160200191906001019061575b565b5b5090506157849190615788565b5090565b6157aa91905b808211156157a657600081600090555060010161578e565b5090565b9056fea265627a7a72315820d342212c3a2609ff2f7ddaa506e2278317f96780a7ff6e88651fd2928643ddb964736f6c63430005100032",
  "source": "//SPDX-License-Identifier: GPL-3.0\npragma solidity >=0.5.0 <0.9.0;\n\nimport \"./Token.sol\";\nimport \"./Token2.sol\";\nimport \"./Token3.sol\";\nimport \"./SafeMath.sol\";\n\n\ncontract EthSwap\n{\n    using SafeMath for uint256;\n    string public name = \"EthSwap Instant Exchange\";\n    Token public ucana;\n    Token2 public ucanu;\n    Token3 public ucane;\n    uint256 constant WAD = 10**18;\n    uint rangeLimit = 10;\n    address public owner;\n    string public pivoName = \"\";\n    bool isFirstOrderPlaced = true;\n\n    struct Order {\n        uint id;\n        address owner;\n        string targetTokenName;\n        uint quantTokensTarget;\n        string offeredTokenName;\n        uint quantTokensOffered;\n        bool isCompleted;\n    }\n\n    uint sizeBuyOrders = 0;\n    uint sizeSellOrders = 0;\n    mapping(uint => Order) public buyOrders;\n    mapping(uint => Order) public sellOrders;\n    uint idOrder = 0;\n\n    event placeOrderEvent(bool matchResult);\n\n    constructor(Token _token, Token2 _ucanu, Token3 _ucane) public\n    {\n        ucana = _token;\n        ucanu = _ucanu;\n        ucane = _ucane;\n        owner = msg.sender;\n    }\n\n\n    function placeOrder(string memory _targetTokenName, uint _quantTokensTarget, string memory _offeredTokenName, uint _quantTokensOffered, uint _orderType) public {\n        if (keccak256(bytes(_offeredTokenName)) == keccak256(\"UCANA\")) {\n            require(ucana.balanceOf(msg.sender) >= _quantTokensOffered * WAD, \"Not enough UCANA provided.\");\n        } else if (keccak256(bytes(_offeredTokenName)) == keccak256(\"UCANU\")) {\n            require(ucanu.balanceOf(msg.sender) >= _quantTokensOffered * WAD, \"Not enough UCANU provided.\");\n        } else if (keccak256(bytes(_offeredTokenName)) == keccak256(\"UCANE\")) {\n            require(ucane.balanceOf(msg.sender) >= _quantTokensOffered * WAD, \"Not enough UCANE provided.\");\n        }\n        Order memory newOrder = Order(idOrder, msg.sender, _targetTokenName, _quantTokensTarget, _offeredTokenName, _quantTokensOffered, false);\n\n        if (_orderType == 0) {\n            sellOrders[sizeSellOrders] = newOrder;\n            sizeSellOrders++;\n        } else {\n            buyOrders[sizeBuyOrders] = newOrder;\n            sizeBuyOrders++;\n        }\n        idOrder += 1;\n\n        emit placeOrderEvent(checkMatches());\n    }\n\n    function checkMatches() public payable returns (bool) {\n        uint i = 0;\n        uint j = 0;\n        bool flagTransferOccured = false;\n\n        for (; i < sizeBuyOrders; i++) {\n            if (!buyOrders[i].isCompleted) {\n                for (j = 0; j < sizeSellOrders; j++) {\n                    if (!sellOrders[j].isCompleted) {\n                        if (sellOrders[j].owner != buyOrders[i].owner && keccak256(bytes(buyOrders[i].targetTokenName)) == keccak256(bytes(sellOrders[j].offeredTokenName)) && keccak256(bytes(buyOrders[i].offeredTokenName)) == keccak256(bytes(sellOrders[j].targetTokenName))) {\n                            if (buyOrders[i].quantTokensOffered >= sellOrders[j].quantTokensTarget && buyOrders[i].quantTokensTarget <= sellOrders[j].quantTokensOffered) {\n                                checkAmountReffered(buyOrders[i].owner, buyOrders[i].quantTokensOffered, buyOrders[i].offeredTokenName);\n                                checkAmountReffered(sellOrders[j].owner, sellOrders[j].quantTokensOffered, sellOrders[i].offeredTokenName);\n\n                                swap(buyOrders[i].owner, sellOrders[j].owner, buyOrders[i].quantTokensOffered, buyOrders[i].offeredTokenName);\n\n                                swap(sellOrders[j].owner, buyOrders[i].owner, sellOrders[j].quantTokensOffered, sellOrders[j].offeredTokenName);\n\n                                buyOrders[i].isCompleted = true;\n                                sellOrders[j].isCompleted = true;\n\n                                flagTransferOccured = true;\n                            }\n                        }\n                    }\n                }\n            }\n        }\n        return flagTransferOccured;\n    }\n\n    function swap(address _from, address _to, uint256 amount, string memory tokenName) public payable {\n        if (keccak256(bytes(tokenName)) == keccak256(\"UCANA\")) {\n            ucana.transferFrom(_from, _to, amount * WAD);\n        } else if (keccak256(bytes(tokenName)) == keccak256(\"UCANU\")) {\n            ucanu.transferFrom(_from, _to, amount * WAD);\n        } else if (keccak256(bytes(tokenName)) == keccak256(\"UCANE\")) {\n            ucane.transferFrom(_from, _to, amount * WAD);\n        }\n    }\n\n    function checkAmountReffered(address _from, uint256 amount, string memory tokenName) public{\n        if (keccak256(bytes(tokenName)) == keccak256(\"UCANA\")) {\n            require(ucana.balanceOf(_from) >= amount * WAD, \"Not enough UCANA provided.\");\n        } else if (keccak256(bytes(tokenName)) == keccak256(\"UCANU\")) {\n            require(ucanu.balanceOf(_from) >= amount * WAD, \"Not enough UCANU provided.\");\n        } else if (keccak256(bytes(tokenName)) == keccak256(\"UCANE\")) {\n            require(ucane.balanceOf(_from) >= amount * WAD, \"Not enough UCANE provided.\");\n        }\n    }\n\n    function getIdPivo() public returns (string memory) {\n        return pivoName;\n    }\n\n    function random(uint mod) internal returns (uint) {\n        return uint(keccak256(abi.encodePacked(block.timestamp, msg.sender, block.difficulty))) % mod;\n    }\n\n    function getBalanceOfToken1() public returns (uint256) {\n        return ucana.balanceOfToken(msg.sender);\n    }\n\n    function getBalanceOfToken2() public returns (uint256) {\n        return ucanu.balanceOfToken(msg.sender);\n    }\n\n    function getBalanceOfToken3() public returns (uint256) {\n        return ucane.balanceOfToken(msg.sender);\n    }\n\n\n    function getRelationOfToken1() public returns (uint256, uint256) {\n        return (ucana.getUmToken1EquivaleQuantosToken2(), ucana.getUmToken1EquivaleQuantosToken3());\n    }\n\n    function getRelationOfToken2() public returns (uint256, uint256) {\n        return (ucanu.getUmToken2EquivaleQuantosToken1(), ucanu.getUmToken2EquivaleQuantosToken3());\n    }\n\n    function getRelationOfToken3() public returns (uint256, uint256) {\n        return (ucane.getUmToken3EquivaleQuantosToken1(), ucane.getUmToken3EquivaleQuantosToken2());\n    }\n\n    function sortInitialPivo() public {\n        int totalUcana = int(this.getTotalValorNaBolsaUCANA()); // M1\n        int totalUcane = int(this.getTotalValorNaBolsaUCANE()); // M2\n        int totalUcanu = int(this.getTotalValorNaBolsaUCANU()); // M3\n\n        if (totalUcana < totalUcane && totalUcana < totalUcanu) {\n            pivoName = \"UCANA\";\n        }\n        else if (totalUcane <= totalUcanu) {\n            pivoName = \"UCANE\";\n        }\n        else {\n            pivoName = \"UCANU\";\n        }\n        setNewPivo(pivoName);\n    }\n\n\n    function setNewPivo(string memory pivo) public {\n        uint256 const = 1;\n        uint256 equivalencia1 = random(rangeLimit) + 2;\n        uint256 equivalencia2 = equivalencia1 + 2;\n\n        if (keccak256(bytes(pivo)) == keccak256(\"UCANA\")) {\n            ucana.setUmToken1EquivaleQuantosToken2(equivalencia1 * WAD);\n            ucana.setUmToken1EquivaleQuantosToken3(equivalencia2 * WAD);\n\n            ucane.setUmToken3EquivaleQuantosToken1(const.divEly(equivalencia2));\n            ucanu.setUmToken2EquivaleQuantosToken1(const.divEly(equivalencia1));\n\n            ucanu.setUmToken2EquivaleQuantosToken3(equivalencia2.divEly(equivalencia1));\n            ucane.setUmToken3EquivaleQuantosToken2(equivalencia1.divEly(equivalencia2));\n        } else if (keccak256(bytes(pivo)) == keccak256(\"UCANU\")) {\n            ucanu.setUmToken2EquivaleQuantosToken1(equivalencia1 * WAD);\n            ucanu.setUmToken2EquivaleQuantosToken3(equivalencia2 * WAD);\n\n            ucana.setUmToken1EquivaleQuantosToken2(const.divEly(equivalencia1));\n            ucane.setUmToken3EquivaleQuantosToken2(const.divEly(equivalencia2));\n\n            ucana.setUmToken1EquivaleQuantosToken3(equivalencia2.divEly(equivalencia1));\n            ucane.setUmToken3EquivaleQuantosToken1(equivalencia1.divEly(equivalencia2));\n        } else {\n            ucane.setUmToken3EquivaleQuantosToken1(equivalencia1 * WAD);\n            ucane.setUmToken3EquivaleQuantosToken2(equivalencia2 * WAD);\n\n            ucana.setUmToken1EquivaleQuantosToken3(const.divEly(equivalencia1));\n            ucanu.setUmToken2EquivaleQuantosToken3(const.divEly(equivalencia2));\n\n            ucana.setUmToken1EquivaleQuantosToken2(equivalencia2.divEly(equivalencia1));\n            ucanu.setUmToken2EquivaleQuantosToken1(equivalencia1.divEly(equivalencia2));\n        }\n    }\n\n    function getTotalValorNaBolsaUCANA() public returns (uint256)\n    {\n        return  ucana.balanceOf(address(this));\n    }\n\n    function getTotalValorNaBolsaUCANU() public returns (uint256)\n    {\n        return  ucanu.balanceOf(address(this));\n    }\n    function getTotalValorNaBolsaUCANE() public returns (uint256)\n    {\n        return  ucane.balanceOf(address(this));\n    }\n\n    function getBuyOrder(uint orderIndex) public returns (uint id, address owner, string memory targetTokenName, uint quantTokensTarget, string memory offeredTokenName, uint quantTokensOffered, bool isCompleted) {\n        Order memory orderSelected = buyOrders[orderIndex];\n\n\n        return (orderSelected.id, orderSelected.owner, orderSelected.targetTokenName, orderSelected.quantTokensTarget, orderSelected.offeredTokenName, orderSelected.quantTokensOffered, orderSelected.isCompleted);\n    }\n\n    function getSellOrder(uint orderIndex) public returns (uint id, address owner, string memory targetTokenName, uint quantTokensTarget, string memory offeredTokenName, uint quantTokensOffered, bool isCompleted) {\n        Order memory orderSelected = sellOrders[orderIndex];\n\n        return (orderSelected.id, orderSelected.owner, orderSelected.targetTokenName, orderSelected.quantTokensTarget, orderSelected.offeredTokenName, orderSelected.quantTokensOffered, orderSelected.isCompleted);\n    }\n\n    function getMyBuyOrder(uint orderIndex) public returns (int id, address owner, string memory targetTokenName, uint quantTokensTarget, string memory offeredTokenName, uint quantTokensOffered, bool isCompleted) {\n        Order memory orderSelected = buyOrders[orderIndex];\n\n        if (orderSelected.owner == msg.sender) {\n            return (int(orderSelected.id), orderSelected.owner, orderSelected.targetTokenName, orderSelected.quantTokensTarget, orderSelected.offeredTokenName, orderSelected.quantTokensOffered, orderSelected.isCompleted);\n        }\n        return (-1, orderSelected.owner, orderSelected.targetTokenName, orderSelected.quantTokensTarget, orderSelected.offeredTokenName, orderSelected.quantTokensOffered, orderSelected.isCompleted);\n    }\n\n    function getMySellOrder(uint orderIndex) public returns (int id, address owner, string memory targetTokenName, uint quantTokensTarget, string memory offeredTokenName, uint quantTokensOffered, bool isCompleted) {\n        Order memory orderSelected = sellOrders[orderIndex];\n\n        if (orderSelected.owner == msg.sender) {\n            return (int(orderSelected.id), orderSelected.owner, orderSelected.targetTokenName, orderSelected.quantTokensTarget, orderSelected.offeredTokenName, orderSelected.quantTokensOffered, orderSelected.isCompleted);\n        }\n        return (-1, orderSelected.owner, orderSelected.targetTokenName, orderSelected.quantTokensTarget, orderSelected.offeredTokenName, orderSelected.quantTokensOffered, orderSelected.isCompleted);\n    }\n\n    function getBuyOrdersSize() public returns (uint) {\n        return sizeBuyOrders;\n    }\n\n    function getSellOrdersSize() public returns (uint) {\n        return sizeSellOrders;\n    }\n}",
  "sourcePath": "/home/ed/Downloads/EXCHANGE/ExechAux/src/contracts/EthSwap.sol",
  "compiler": {
    "name": "solc",
    "version": "0.5.16+commit.9c3226ce.Emscripten.clang"
  },
  "schemaVersion": "3.4.1",
  "updatedAt": "2021-07-18T18:17:38.321Z",
  "networkType": "ethereum",
  "devdoc": {
    "methods": {}
  },
  "userdoc": {
    "methods": {}
  }
}