{
  "contractName": "EthSwap",
  "abi": [
    {
      "inputs": [
        {
          "internalType": "contract Token",
          "name": "_token",
          "type": "address"
        },
        {
          "internalType": "contract Token2",
          "name": "_ucanu",
          "type": "address"
        },
        {
          "internalType": "contract Token3",
          "name": "_ucane",
          "type": "address"
        }
      ],
      "payable": false,
      "stateMutability": "nonpayable",
      "type": "constructor"
    },
    {
      "anonymous": false,
      "inputs": [
        {
          "indexed": false,
          "internalType": "bool",
          "name": "matchResult",
          "type": "bool"
        }
      ],
      "name": "placeOrderEvent",
      "type": "event"
    },
    {
      "constant": true,
      "inputs": [
        {
          "internalType": "uint256",
          "name": "",
          "type": "uint256"
        }
      ],
      "name": "buyOrders",
      "outputs": [
        {
          "internalType": "address",
          "name": "owner",
          "type": "address"
        },
        {
          "internalType": "string",
          "name": "targetTokenName",
          "type": "string"
        },
        {
          "internalType": "uint256",
          "name": "quantTokensTarget",
          "type": "uint256"
        },
        {
          "internalType": "string",
          "name": "offeredTokenName",
          "type": "string"
        },
        {
          "internalType": "uint256",
          "name": "quantTokensOffered",
          "type": "uint256"
        },
        {
          "internalType": "bool",
          "name": "isCompleted",
          "type": "bool"
        }
      ],
      "payable": false,
      "stateMutability": "view",
      "type": "function"
    },
    {
      "constant": true,
      "inputs": [],
      "name": "name",
      "outputs": [
        {
          "internalType": "string",
          "name": "",
          "type": "string"
        }
      ],
      "payable": false,
      "stateMutability": "view",
      "type": "function"
    },
    {
      "constant": true,
      "inputs": [],
      "name": "owner",
      "outputs": [
        {
          "internalType": "address",
          "name": "",
          "type": "address"
        }
      ],
      "payable": false,
      "stateMutability": "view",
      "type": "function"
    },
    {
      "constant": true,
      "inputs": [],
      "name": "pivoName",
      "outputs": [
        {
          "internalType": "string",
          "name": "",
          "type": "string"
        }
      ],
      "payable": false,
      "stateMutability": "view",
      "type": "function"
    },
    {
      "constant": true,
      "inputs": [
        {
          "internalType": "uint256",
          "name": "",
          "type": "uint256"
        }
      ],
      "name": "sellOrders",
      "outputs": [
        {
          "internalType": "address",
          "name": "owner",
          "type": "address"
        },
        {
          "internalType": "string",
          "name": "targetTokenName",
          "type": "string"
        },
        {
          "internalType": "uint256",
          "name": "quantTokensTarget",
          "type": "uint256"
        },
        {
          "internalType": "string",
          "name": "offeredTokenName",
          "type": "string"
        },
        {
          "internalType": "uint256",
          "name": "quantTokensOffered",
          "type": "uint256"
        },
        {
          "internalType": "bool",
          "name": "isCompleted",
          "type": "bool"
        }
      ],
      "payable": false,
      "stateMutability": "view",
      "type": "function"
    },
    {
      "constant": true,
      "inputs": [],
      "name": "ucana",
      "outputs": [
        {
          "internalType": "contract Token",
          "name": "",
          "type": "address"
        }
      ],
      "payable": false,
      "stateMutability": "view",
      "type": "function"
    },
    {
      "constant": true,
      "inputs": [],
      "name": "ucane",
      "outputs": [
        {
          "internalType": "contract Token3",
          "name": "",
          "type": "address"
        }
      ],
      "payable": false,
      "stateMutability": "view",
      "type": "function"
    },
    {
      "constant": true,
      "inputs": [],
      "name": "ucanu",
      "outputs": [
        {
          "internalType": "contract Token2",
          "name": "",
          "type": "address"
        }
      ],
      "payable": false,
      "stateMutability": "view",
      "type": "function"
    },
    {
      "constant": false,
      "inputs": [
        {
          "internalType": "string",
          "name": "_targetTokenName",
          "type": "string"
        },
        {
          "internalType": "uint256",
          "name": "_quantTokensTarget",
          "type": "uint256"
        },
        {
          "internalType": "string",
          "name": "_offeredTokenName",
          "type": "string"
        },
        {
          "internalType": "uint256",
          "name": "_quantTokensOffered",
          "type": "uint256"
        },
        {
          "internalType": "uint256",
          "name": "_orderType",
          "type": "uint256"
        }
      ],
      "name": "placeOrder",
      "outputs": [],
      "payable": false,
      "stateMutability": "nonpayable",
      "type": "function"
    },
    {
      "constant": false,
      "inputs": [],
      "name": "checkMatches",
      "outputs": [
        {
          "internalType": "bool",
          "name": "",
          "type": "bool"
        }
      ],
      "payable": false,
      "stateMutability": "nonpayable",
      "type": "function"
    },
    {
      "constant": false,
      "inputs": [
        {
          "internalType": "address",
          "name": "_from",
          "type": "address"
        },
        {
          "internalType": "address",
          "name": "_to",
          "type": "address"
        },
        {
          "internalType": "uint256",
          "name": "amount",
          "type": "uint256"
        },
        {
          "internalType": "string",
          "name": "tokenName",
          "type": "string"
        }
      ],
      "name": "swap",
      "outputs": [],
      "payable": true,
      "stateMutability": "payable",
      "type": "function"
    },
    {
      "constant": false,
      "inputs": [],
      "name": "getIdPivo",
      "outputs": [
        {
          "internalType": "string",
          "name": "",
          "type": "string"
        }
      ],
      "payable": false,
      "stateMutability": "nonpayable",
      "type": "function"
    },
    {
      "constant": false,
      "inputs": [],
      "name": "getBalanceOfToken1",
      "outputs": [
        {
          "internalType": "uint256",
          "name": "",
          "type": "uint256"
        }
      ],
      "payable": false,
      "stateMutability": "nonpayable",
      "type": "function"
    },
    {
      "constant": false,
      "inputs": [],
      "name": "getBalanceOfToken2",
      "outputs": [
        {
          "internalType": "uint256",
          "name": "",
          "type": "uint256"
        }
      ],
      "payable": false,
      "stateMutability": "nonpayable",
      "type": "function"
    },
    {
      "constant": false,
      "inputs": [],
      "name": "getBalanceOfToken3",
      "outputs": [
        {
          "internalType": "uint256",
          "name": "",
          "type": "uint256"
        }
      ],
      "payable": false,
      "stateMutability": "nonpayable",
      "type": "function"
    },
    {
      "constant": false,
      "inputs": [],
      "name": "getRelationOfToken1",
      "outputs": [
        {
          "internalType": "uint256",
          "name": "",
          "type": "uint256"
        },
        {
          "internalType": "uint256",
          "name": "",
          "type": "uint256"
        }
      ],
      "payable": false,
      "stateMutability": "nonpayable",
      "type": "function"
    },
    {
      "constant": false,
      "inputs": [],
      "name": "getRelationOfToken2",
      "outputs": [
        {
          "internalType": "uint256",
          "name": "",
          "type": "uint256"
        },
        {
          "internalType": "uint256",
          "name": "",
          "type": "uint256"
        }
      ],
      "payable": false,
      "stateMutability": "nonpayable",
      "type": "function"
    },
    {
      "constant": false,
      "inputs": [],
      "name": "getRelationOfToken3",
      "outputs": [
        {
          "internalType": "uint256",
          "name": "",
          "type": "uint256"
        },
        {
          "internalType": "uint256",
          "name": "",
          "type": "uint256"
        }
      ],
      "payable": false,
      "stateMutability": "nonpayable",
      "type": "function"
    },
    {
      "constant": false,
      "inputs": [],
      "name": "sortInitialPivo",
      "outputs": [],
      "payable": false,
      "stateMutability": "nonpayable",
      "type": "function"
    },
    {
      "constant": false,
      "inputs": [
        {
          "internalType": "string",
          "name": "pivo",
          "type": "string"
        }
      ],
      "name": "setNewPivo",
      "outputs": [],
      "payable": false,
      "stateMutability": "nonpayable",
      "type": "function"
    },
    {
      "constant": false,
      "inputs": [],
      "name": "getTotalValorNaBolsaUCANA",
      "outputs": [
        {
          "internalType": "uint256",
          "name": "",
          "type": "uint256"
        }
      ],
      "payable": false,
      "stateMutability": "nonpayable",
      "type": "function"
    },
    {
      "constant": false,
      "inputs": [],
      "name": "getTotalValorNaBolsaUCANU",
      "outputs": [
        {
          "internalType": "uint256",
          "name": "",
          "type": "uint256"
        }
      ],
      "payable": false,
      "stateMutability": "nonpayable",
      "type": "function"
    },
    {
      "constant": false,
      "inputs": [],
      "name": "getTotalValorNaBolsaUCANE",
      "outputs": [
        {
          "internalType": "uint256",
          "name": "",
          "type": "uint256"
        }
      ],
      "payable": false,
      "stateMutability": "nonpayable",
      "type": "function"
    },
    {
      "constant": false,
      "inputs": [],
      "name": "getBuyOrders",
      "outputs": [
        {
          "internalType": "address",
          "name": "owner",
          "type": "address"
        },
        {
          "internalType": "string",
          "name": "targetTokenName",
          "type": "string"
        },
        {
          "internalType": "uint256",
          "name": "quantTokensTarget",
          "type": "uint256"
        },
        {
          "internalType": "string",
          "name": "offeredTokenName",
          "type": "string"
        },
        {
          "internalType": "uint256",
          "name": "quantTokensOffered",
          "type": "uint256"
        },
        {
          "internalType": "bool",
          "name": "isCompleted",
          "type": "bool"
        }
      ],
      "payable": false,
      "stateMutability": "nonpayable",
      "type": "function"
    },
    {
      "constant": false,
      "inputs": [],
      "name": "getSellOrders",
      "outputs": [
        {
          "internalType": "address",
          "name": "owner",
          "type": "address"
        },
        {
          "internalType": "string",
          "name": "targetTokenName",
          "type": "string"
        },
        {
          "internalType": "uint256",
          "name": "quantTokensTarget",
          "type": "uint256"
        },
        {
          "internalType": "string",
          "name": "offeredTokenName",
          "type": "string"
        },
        {
          "internalType": "uint256",
          "name": "quantTokensOffered",
          "type": "uint256"
        },
        {
          "internalType": "bool",
          "name": "isCompleted",
          "type": "bool"
        }
      ],
      "payable": false,
      "stateMutability": "nonpayable",
      "type": "function"
    },
    {
      "constant": false,
      "inputs": [],
      "name": "getBuyOrdersSize",
      "outputs": [
        {
          "internalType": "uint256",
          "name": "",
          "type": "uint256"
        }
      ],
      "payable": false,
      "stateMutability": "nonpayable",
      "type": "function"
    },
    {
      "constant": false,
      "inputs": [],
      "name": "getSellOrdersSize",
      "outputs": [
        {
          "internalType": "uint256",
          "name": "",
          "type": "uint256"
        }
      ],
      "payable": false,
      "stateMutability": "nonpayable",
      "type": "function"
    }
  ],
  "bytecode": "0x60806040526040518060400160405280601881526020017f4574685377617020496e7374616e742045786368616e67650000000000000000815250600090805190602001906200005192919062000213565b50600a60045560405180602001604052806000815250600690805190602001906200007e92919062000213565b506001600760006101000a81548160ff021916908315150217905550600060085560006009556000600c556000600d55348015620000bb57600080fd5b50604051620048683803806200486883398181016040526060811015620000e157600080fd5b8101908080519060200190929190805190602001909291908051906020019092919050505082600160006101000a81548173ffffffffffffffffffffffffffffffffffffffff021916908373ffffffffffffffffffffffffffffffffffffffff16021790555081600260006101000a81548173ffffffffffffffffffffffffffffffffffffffff021916908373ffffffffffffffffffffffffffffffffffffffff16021790555080600360006101000a81548173ffffffffffffffffffffffffffffffffffffffff021916908373ffffffffffffffffffffffffffffffffffffffff16021790555033600560006101000a81548173ffffffffffffffffffffffffffffffffffffffff021916908373ffffffffffffffffffffffffffffffffffffffff160217905550505050620002c2565b828054600181600116156101000203166002900490600052602060002090601f016020900481019282601f106200025657805160ff191683800117855562000287565b8280016001018555821562000287579182015b828111156200028657825182559160200191906001019062000269565b5b5090506200029691906200029a565b5090565b620002bf91905b80821115620002bb576000816000905550600101620002a1565b5090565b90565b61459680620002d26000396000f3fe60806040526004361061019c5760003560e01c806362432424116100ec578063998ebac61161008a578063b5e40a0711610064578063b5e40a0714610c6d578063df5d607214610c9c578063e0c5a27714610e19578063eb691f8b14610f615761019c565b8063998ebac614610bec5780639fd2dc1314610c17578063a5d7ea9d14610c425761019c565b80638a1f514d116100c65780638a1f514d14610a125780638da5cb5b14610aa25780638e1c68fa14610af9578063997a8f9814610b245761019c565b806362432424146109655780636494b0271461099057806378c64286146109bb5761019c565b80631d3a40de1161015957806335cea2881161013357806335cea28814610556578063392a113e146106c25780634a8393f3146106f457806354067f41146108605761019c565b80631d3a40de146104a2578063292d26dd146104f95780633048547f146105245761019c565b8063059c1210146101a157806306fdde03146102315780630843d400146102c157806314dca6021461031857806319e8ae8e146104605780631b4e6ad41461048b575b600080fd5b3480156101ad57600080fd5b506101b6610f93565b6040518080602001828103825283818151815260200191508051906020019080838360005b838110156101f65780820151818401526020810190506101db565b50505050905090810190601f1680156102235780820380516001836020036101000a031916815260200191505b509250505060405180910390f35b34801561023d57600080fd5b50610246611031565b6040518080602001828103825283818151815260200191508051906020019080838360005b8381101561028657808201518184015260208101905061026b565b50505050905090810190601f1680156102b35780820380516001836020036101000a031916815260200191505b509250505060405180910390f35b3480156102cd57600080fd5b506102d66110cf565b604051808273ffffffffffffffffffffffffffffffffffffffff1673ffffffffffffffffffffffffffffffffffffffff16815260200191505060405180910390f35b34801561032457600080fd5b5061032d6110f5565b604051808773ffffffffffffffffffffffffffffffffffffffff1673ffffffffffffffffffffffffffffffffffffffff168152602001806020018681526020018060200185815260200184151515158152602001838103835288818151815260200191508051906020019080838360005b838110156103b957808201518184015260208101905061039e565b50505050905090810190601f1680156103e65780820380516001836020036101000a031916815260200191505b50838103825286818151815260200191508051906020019080838360005b8381101561041f578082015181840152602081019050610404565b50505050905090810190601f16801561044c5780820380516001836020036101000a031916815260200191505b509850505050505050505060405180910390f35b34801561046c57600080fd5b5061047561137c565b6040518082815260200191505060405180910390f35b34801561049757600080fd5b506104a0611386565b005b3480156104ae57600080fd5b506104b76116cd565b604051808273ffffffffffffffffffffffffffffffffffffffff1673ffffffffffffffffffffffffffffffffffffffff16815260200191505060405180910390f35b34801561050557600080fd5b5061050e6116f3565b6040518082815260200191505060405180910390f35b34801561053057600080fd5b506105396116fd565b604051808381526020018281526020019250505060405180910390f35b34801561056257600080fd5b5061058f6004803603602081101561057957600080fd5b8101908080359060200190929190505050611852565b604051808773ffffffffffffffffffffffffffffffffffffffff1673ffffffffffffffffffffffffffffffffffffffff168152602001806020018681526020018060200185815260200184151515158152602001838103835288818151815260200191508051906020019080838360005b8381101561061b578082015181840152602081019050610600565b50505050905090810190601f1680156106485780820380516001836020036101000a031916815260200191505b50838103825286818151815260200191508051906020019080838360005b83811015610681578082015181840152602081019050610666565b50505050905090810190601f1680156106ae5780820380516001836020036101000a031916815260200191505b509850505050505050505060405180910390f35b3480156106ce57600080fd5b506106d76119eb565b604051808381526020018281526020019250505060405180910390f35b34801561070057600080fd5b5061072d6004803603602081101561071757600080fd5b8101908080359060200190929190505050611b40565b604051808773ffffffffffffffffffffffffffffffffffffffff1673ffffffffffffffffffffffffffffffffffffffff168152602001806020018681526020018060200185815260200184151515158152602001838103835288818151815260200191508051906020019080838360005b838110156107b957808201518184015260208101905061079e565b50505050905090810190601f1680156107e65780820380516001836020036101000a031916815260200191505b50838103825286818151815260200191508051906020019080838360005b8381101561081f578082015181840152602081019050610804565b50505050905090810190601f16801561084c5780820380516001836020036101000a031916815260200191505b509850505050505050505060405180910390f35b6109636004803603608081101561087657600080fd5b81019080803573ffffffffffffffffffffffffffffffffffffffff169060200190929190803573ffffffffffffffffffffffffffffffffffffffff16906020019092919080359060200190929190803590602001906401000000008111156108dd57600080fd5b8201836020820111156108ef57600080fd5b8035906020019184600183028401116401000000008311171561091157600080fd5b91908080601f016020809104026020016040519081016040528093929190818152602001838380828437600081840152601f19601f820116905080830192505050505050509192919290505050611cd9565b005b34801561097157600080fd5b5061097a61252c565b6040518082815260200191505060405180910390f35b34801561099c57600080fd5b506109a561260d565b6040518082815260200191505060405180910390f35b3480156109c757600080fd5b506109d06126ee565b604051808273ffffffffffffffffffffffffffffffffffffffff1673ffffffffffffffffffffffffffffffffffffffff16815260200191505060405180910390f35b348015610a1e57600080fd5b50610a27612714565b6040518080602001828103825283818151815260200191508051906020019080838360005b83811015610a67578082015181840152602081019050610a4c565b50505050905090810190601f168015610a945780820380516001836020036101000a031916815260200191505b509250505060405180910390f35b348015610aae57600080fd5b50610ab76127b6565b604051808273ffffffffffffffffffffffffffffffffffffffff1673ffffffffffffffffffffffffffffffffffffffff16815260200191505060405180910390f35b348015610b0557600080fd5b50610b0e6127dc565b6040518082815260200191505060405180910390f35b348015610b3057600080fd5b50610bea60048036036020811015610b4757600080fd5b8101908080359060200190640100000000811115610b6457600080fd5b820183602082011115610b7657600080fd5b80359060200191846001830284011164010000000083111715610b9857600080fd5b91908080601f016020809104026020016040519081016040528093929190818152602001838380828437600081840152601f19601f8201169050808301925050505050505091929192905050506128bd565b005b348015610bf857600080fd5b50610c01613475565b6040518082815260200191505060405180910390f35b348015610c2357600080fd5b50610c2c613556565b6040518082815260200191505060405180910390f35b348015610c4e57600080fd5b50610c57613637565b6040518082815260200191505060405180910390f35b348015610c7957600080fd5b50610c82613718565b604051808215151515815260200191505060405180910390f35b348015610ca857600080fd5b50610e17600480360360a0811015610cbf57600080fd5b8101908080359060200190640100000000811115610cdc57600080fd5b820183602082011115610cee57600080fd5b80359060200191846001830284011164010000000083111715610d1057600080fd5b91908080601f016020809104026020016040519081016040528093929190818152602001838380828437600081840152601f19601f8201169050808301925050505050505091929192908035906020019092919080359060200190640100000000811115610d7d57600080fd5b820183602082011115610d8f57600080fd5b80359060200191846001830284011164010000000083111715610db157600080fd5b91908080601f016020809104026020016040519081016040528093929190818152602001838380828437600081840152601f19601f8201169050808301925050505050505091929192908035906020019092919080359060200190929190505050613d0a565b005b348015610e2557600080fd5b50610e2e613f79565b604051808773ffffffffffffffffffffffffffffffffffffffff1673ffffffffffffffffffffffffffffffffffffffff168152602001806020018681526020018060200185815260200184151515158152602001838103835288818151815260200191508051906020019080838360005b83811015610eba578082015181840152602081019050610e9f565b50505050905090810190601f168015610ee75780820380516001836020036101000a031916815260200191505b50838103825286818151815260200191508051906020019080838360005b83811015610f20578082015181840152602081019050610f05565b50505050905090810190601f168015610f4d5780820380516001836020036101000a031916815260200191505b509850505050505050505060405180910390f35b348015610f6d57600080fd5b50610f76614200565b604051808381526020018281526020019250505060405180910390f35b60068054600181600116156101000203166002900480601f0160208091040260200160405190810160405280929190818152602001828054600181600116156101000203166002900480156110295780601f10610ffe57610100808354040283529160200191611029565b820191906000526020600020905b81548152906001019060200180831161100c57829003601f168201915b505050505081565b60008054600181600116156101000203166002900480601f0160208091040260200160405190810160405280929190818152602001828054600181600116156101000203166002900480156110c75780601f1061109c576101008083540402835291602001916110c7565b820191906000526020600020905b8154815290600101906020018083116110aa57829003601f168201915b505050505081565b600160009054906101000a900473ffffffffffffffffffffffffffffffffffffffff1681565b60006060600060606000806111086143ee565b600a6000600d5481526020019081526020016000206040518060c00160405290816000820160009054906101000a900473ffffffffffffffffffffffffffffffffffffffff1673ffffffffffffffffffffffffffffffffffffffff1673ffffffffffffffffffffffffffffffffffffffff168152602001600182018054600181600116156101000203166002900480601f0160208091040260200160405190810160405280929190818152602001828054600181600116156101000203166002900480156112175780601f106111ec57610100808354040283529160200191611217565b820191906000526020600020905b8154815290600101906020018083116111fa57829003601f168201915b5050505050815260200160028201548152602001600382018054600181600116156101000203166002900480601f0160208091040260200160405190810160405280929190818152602001828054600181600116156101000203166002900480156112c35780601f10611298576101008083540402835291602001916112c3565b820191906000526020600020905b8154815290600101906020018083116112a657829003601f168201915b50505050508152602001600482015481526020016005820160009054906101000a900460ff16151515158152505090506112fb61137c565b600d54101561133a57806000015181602001518260400151836060015184608001518560a0015184945082925096509650965096509650965050611374565b6000600d81905550806000015181602001518260400151836060015184608001518560a00151849450829250965096509650965096509650505b909192939495565b6000600954905090565b60003073ffffffffffffffffffffffffffffffffffffffff16638e1c68fa6040518163ffffffff1660e01b8152600401602060405180830381600087803b1580156113d057600080fd5b505af11580156113e4573d6000803e3d6000fd5b505050506040513d60208110156113fa57600080fd5b8101908080519060200190929190505050905060003073ffffffffffffffffffffffffffffffffffffffff1663624324246040518163ffffffff1660e01b8152600401602060405180830381600087803b15801561145757600080fd5b505af115801561146b573d6000803e3d6000fd5b505050506040513d602081101561148157600080fd5b8101908080519060200190929190505050905060003073ffffffffffffffffffffffffffffffffffffffff1663998ebac66040518163ffffffff1660e01b8152600401602060405180830381600087803b1580156114de57600080fd5b505af11580156114f2573d6000803e3d6000fd5b505050506040513d602081101561150857600080fd5b81019080805190602001909291905050509050818312801561152957508083125b1561157f576040518060400160405280600581526020017f5543414e410000000000000000000000000000000000000000000000000000008152506006908051906020019061157992919061443c565b50611625565b8082136115d7576040518060400160405280600581526020017f5543414e45000000000000000000000000000000000000000000000000000000815250600690805190602001906115d192919061443c565b50611624565b6040518060400160405280600581526020017f5543414e550000000000000000000000000000000000000000000000000000008152506006908051906020019061162292919061443c565b505b5b6116c860068054600181600116156101000203166002900480601f0160208091040260200160405190810160405280929190818152602001828054600181600116156101000203166002900480156116be5780601f10611693576101008083540402835291602001916116be565b820191906000526020600020905b8154815290600101906020018083116116a157829003601f168201915b50505050506128bd565b505050565b600360009054906101000a900473ffffffffffffffffffffffffffffffffffffffff1681565b6000600954905090565b600080600160009054906101000a900473ffffffffffffffffffffffffffffffffffffffff1673ffffffffffffffffffffffffffffffffffffffff1663ff98b7a36040518163ffffffff1660e01b8152600401602060405180830381600087803b15801561176a57600080fd5b505af115801561177e573d6000803e3d6000fd5b505050506040513d602081101561179457600080fd5b8101908080519060200190929190505050600160009054906101000a900473ffffffffffffffffffffffffffffffffffffffff1673ffffffffffffffffffffffffffffffffffffffff16634e1d1af26040518163ffffffff1660e01b8152600401602060405180830381600087803b15801561180f57600080fd5b505af1158015611823573d6000803e3d6000fd5b505050506040513d602081101561183957600080fd5b8101908080519060200190929190505050915091509091565b600a6020528060005260406000206000915090508060000160009054906101000a900473ffffffffffffffffffffffffffffffffffffffff1690806001018054600181600116156101000203166002900480601f0160208091040260200160405190810160405280929190818152602001828054600181600116156101000203166002900480156119245780601f106118f957610100808354040283529160200191611924565b820191906000526020600020905b81548152906001019060200180831161190757829003601f168201915b505050505090806002015490806003018054600181600116156101000203166002900480601f0160208091040260200160405190810160405280929190818152602001828054600181600116156101000203166002900480156119c85780601f1061199d576101008083540402835291602001916119c8565b820191906000526020600020905b8154815290600101906020018083116119ab57829003601f168201915b5050505050908060040154908060050160009054906101000a900460ff16905086565b600080600260009054906101000a900473ffffffffffffffffffffffffffffffffffffffff1673ffffffffffffffffffffffffffffffffffffffff16638d2de2466040518163ffffffff1660e01b8152600401602060405180830381600087803b158015611a5857600080fd5b505af1158015611a6c573d6000803e3d6000fd5b505050506040513d6020811015611a8257600080fd5b8101908080519060200190929190505050600260009054906101000a900473ffffffffffffffffffffffffffffffffffffffff1673ffffffffffffffffffffffffffffffffffffffff1663aac6c3b26040518163ffffffff1660e01b8152600401602060405180830381600087803b158015611afd57600080fd5b505af1158015611b11573d6000803e3d6000fd5b505050506040513d6020811015611b2757600080fd5b8101908080519060200190929190505050915091509091565b600b6020528060005260406000206000915090508060000160009054906101000a900473ffffffffffffffffffffffffffffffffffffffff1690806001018054600181600116156101000203166002900480601f016020809104026020016040519081016040528092919081815260200182805460018160011615610100020316600290048015611c125780601f10611be757610100808354040283529160200191611c12565b820191906000526020600020905b815481529060010190602001808311611bf557829003601f168201915b505050505090806002015490806003018054600181600116156101000203166002900480601f016020809104026020016040519081016040528092919081815260200182805460018160011615610100020316600290048015611cb65780601f10611c8b57610100808354040283529160200191611cb6565b820191906000526020600020905b815481529060010190602001808311611c9957829003601f168201915b5050505050908060040154908060050160009054906101000a900460ff16905086565b60405180807f5543414e410000000000000000000000000000000000000000000000000000008152506005019050604051809103902081805190602001201415611f9e57670de0b6b3a76400008202600160009054906101000a900473ffffffffffffffffffffffffffffffffffffffff1673ffffffffffffffffffffffffffffffffffffffff166370a08231866040518263ffffffff1660e01b8152600401808273ffffffffffffffffffffffffffffffffffffffff1673ffffffffffffffffffffffffffffffffffffffff16815260200191505060206040518083038186803b158015611dc757600080fd5b505afa158015611ddb573d6000803e3d6000fd5b505050506040513d6020811015611df157600080fd5b81019080805190602001909291905050501015611e76576040517f08c379a000000000000000000000000000000000000000000000000000000000815260040180806020018281038252601c8152602001807f4e6f7420656e6f75676830312045746865722070726f76696465642e0000000081525060200191505060405180910390fd5b600160009054906101000a900473ffffffffffffffffffffffffffffffffffffffff1673ffffffffffffffffffffffffffffffffffffffff166323b872dd8585670de0b6b3a764000086026040518463ffffffff1660e01b8152600401808473ffffffffffffffffffffffffffffffffffffffff1673ffffffffffffffffffffffffffffffffffffffff1681526020018373ffffffffffffffffffffffffffffffffffffffff1673ffffffffffffffffffffffffffffffffffffffff1681526020018281526020019350505050602060405180830381600087803b158015611f5d57600080fd5b505af1158015611f71573d6000803e3d6000fd5b505050506040513d6020811015611f8757600080fd5b810190808051906020019092919050505050612526565b60405180807f5543414e55000000000000000000000000000000000000000000000000000000815250600501905060405180910390208180519060200120141561226357670de0b6b3a76400008202600260009054906101000a900473ffffffffffffffffffffffffffffffffffffffff1673ffffffffffffffffffffffffffffffffffffffff166370a08231866040518263ffffffff1660e01b8152600401808273ffffffffffffffffffffffffffffffffffffffff1673ffffffffffffffffffffffffffffffffffffffff16815260200191505060206040518083038186803b15801561208c57600080fd5b505afa1580156120a0573d6000803e3d6000fd5b505050506040513d60208110156120b657600080fd5b8101908080519060200190929190505050101561213b576040517f08c379a000000000000000000000000000000000000000000000000000000000815260040180806020018281038252601c8152602001807f4e6f7420656e6f75676830322045746865722070726f76696465642e0000000081525060200191505060405180910390fd5b600260009054906101000a900473ffffffffffffffffffffffffffffffffffffffff1673ffffffffffffffffffffffffffffffffffffffff166323b872dd8585670de0b6b3a764000086026040518463ffffffff1660e01b8152600401808473ffffffffffffffffffffffffffffffffffffffff1673ffffffffffffffffffffffffffffffffffffffff1681526020018373ffffffffffffffffffffffffffffffffffffffff1673ffffffffffffffffffffffffffffffffffffffff1681526020018281526020019350505050602060405180830381600087803b15801561222257600080fd5b505af1158015612236573d6000803e3d6000fd5b505050506040513d602081101561224c57600080fd5b810190808051906020019092919050505050612525565b60405180807f5543414e45000000000000000000000000000000000000000000000000000000815250600501905060405180910390208180519060200120141561252457670de0b6b3a76400008202600360009054906101000a900473ffffffffffffffffffffffffffffffffffffffff1673ffffffffffffffffffffffffffffffffffffffff166370a08231866040518263ffffffff1660e01b8152600401808273ffffffffffffffffffffffffffffffffffffffff1673ffffffffffffffffffffffffffffffffffffffff16815260200191505060206040518083038186803b15801561235157600080fd5b505afa158015612365573d6000803e3d6000fd5b505050506040513d602081101561237b57600080fd5b81019080805190602001909291905050501015612400576040517f08c379a000000000000000000000000000000000000000000000000000000000815260040180806020018281038252601c8152602001807f4e6f7420656e6f75676830332045746865722070726f76696465642e0000000081525060200191505060405180910390fd5b600360009054906101000a900473ffffffffffffffffffffffffffffffffffffffff1673ffffffffffffffffffffffffffffffffffffffff166323b872dd8585670de0b6b3a764000086026040518463ffffffff1660e01b8152600401808473ffffffffffffffffffffffffffffffffffffffff1673ffffffffffffffffffffffffffffffffffffffff1681526020018373ffffffffffffffffffffffffffffffffffffffff1673ffffffffffffffffffffffffffffffffffffffff1681526020018281526020019350505050602060405180830381600087803b1580156124e757600080fd5b505af11580156124fb573d6000803e3d6000fd5b505050506040513d602081101561251157600080fd5b8101908080519060200190929190505050505b5b5b50505050565b6000600360009054906101000a900473ffffffffffffffffffffffffffffffffffffffff1673ffffffffffffffffffffffffffffffffffffffff166370a08231306040518263ffffffff1660e01b8152600401808273ffffffffffffffffffffffffffffffffffffffff1673ffffffffffffffffffffffffffffffffffffffff16815260200191505060206040518083038186803b1580156125cd57600080fd5b505afa1580156125e1573d6000803e3d6000fd5b505050506040513d60208110156125f757600080fd5b8101908080519060200190929190505050905090565b6000600360009054906101000a900473ffffffffffffffffffffffffffffffffffffffff1673ffffffffffffffffffffffffffffffffffffffff1663b99152d0336040518263ffffffff1660e01b8152600401808273ffffffffffffffffffffffffffffffffffffffff1673ffffffffffffffffffffffffffffffffffffffff16815260200191505060206040518083038186803b1580156126ae57600080fd5b505afa1580156126c2573d6000803e3d6000fd5b505050506040513d60208110156126d857600080fd5b8101908080519060200190929190505050905090565b600260009054906101000a900473ffffffffffffffffffffffffffffffffffffffff1681565b606060068054600181600116156101000203166002900480601f0160208091040260200160405190810160405280929190818152602001828054600181600116156101000203166002900480156127ac5780601f10612781576101008083540402835291602001916127ac565b820191906000526020600020905b81548152906001019060200180831161278f57829003601f168201915b5050505050905090565b600560009054906101000a900473ffffffffffffffffffffffffffffffffffffffff1681565b6000600160009054906101000a900473ffffffffffffffffffffffffffffffffffffffff1673ffffffffffffffffffffffffffffffffffffffff166370a08231306040518263ffffffff1660e01b8152600401808273ffffffffffffffffffffffffffffffffffffffff1673ffffffffffffffffffffffffffffffffffffffff16815260200191505060206040518083038186803b15801561287d57600080fd5b505afa158015612891573d6000803e3d6000fd5b505050506040513d60208110156128a757600080fd5b8101908080519060200190929190505050905090565b600060019050600060026128d2600454614355565b019050600060028201905060405180807f5543414e410000000000000000000000000000000000000000000000000000008152506005019050604051809103902084805190602001201415612cd057600160009054906101000a900473ffffffffffffffffffffffffffffffffffffffff1673ffffffffffffffffffffffffffffffffffffffff1663b9174c4c670de0b6b3a764000084026040518263ffffffff1660e01b815260040180828152602001915050600060405180830381600087803b1580156129a057600080fd5b505af11580156129b4573d6000803e3d6000fd5b50505050600160009054906101000a900473ffffffffffffffffffffffffffffffffffffffff1673ffffffffffffffffffffffffffffffffffffffff16631dece9fd670de0b6b3a764000083026040518263ffffffff1660e01b815260040180828152602001915050600060405180830381600087803b158015612a3757600080fd5b505af1158015612a4b573d6000803e3d6000fd5b50505050600360009054906101000a900473ffffffffffffffffffffffffffffffffffffffff1673ffffffffffffffffffffffffffffffffffffffff166396e1182a612aa083866143d090919063ffffffff16565b6040518263ffffffff1660e01b815260040180828152602001915050600060405180830381600087803b158015612ad657600080fd5b505af1158015612aea573d6000803e3d6000fd5b50505050600260009054906101000a900473ffffffffffffffffffffffffffffffffffffffff1673ffffffffffffffffffffffffffffffffffffffff166378914dff612b3f84866143d090919063ffffffff16565b6040518263ffffffff1660e01b815260040180828152602001915050600060405180830381600087803b158015612b7557600080fd5b505af1158015612b89573d6000803e3d6000fd5b50505050600260009054906101000a900473ffffffffffffffffffffffffffffffffffffffff1673ffffffffffffffffffffffffffffffffffffffff1663768ad933612bde84846143d090919063ffffffff16565b6040518263ffffffff1660e01b815260040180828152602001915050600060405180830381600087803b158015612c1457600080fd5b505af1158015612c28573d6000803e3d6000fd5b50505050600360009054906101000a900473ffffffffffffffffffffffffffffffffffffffff1673ffffffffffffffffffffffffffffffffffffffff16639f6c37d6612c7d83856143d090919063ffffffff16565b6040518263ffffffff1660e01b815260040180828152602001915050600060405180830381600087803b158015612cb357600080fd5b505af1158015612cc7573d6000803e3d6000fd5b5050505061346f565b60405180807f5543414e5500000000000000000000000000000000000000000000000000000081525060050190506040518091039020848051906020012014156130c357600260009054906101000a900473ffffffffffffffffffffffffffffffffffffffff1673ffffffffffffffffffffffffffffffffffffffff166378914dff670de0b6b3a764000084026040518263ffffffff1660e01b815260040180828152602001915050600060405180830381600087803b158015612d9357600080fd5b505af1158015612da7573d6000803e3d6000fd5b50505050600260009054906101000a900473ffffffffffffffffffffffffffffffffffffffff1673ffffffffffffffffffffffffffffffffffffffff1663768ad933670de0b6b3a764000083026040518263ffffffff1660e01b815260040180828152602001915050600060405180830381600087803b158015612e2a57600080fd5b505af1158015612e3e573d6000803e3d6000fd5b50505050600160009054906101000a900473ffffffffffffffffffffffffffffffffffffffff1673ffffffffffffffffffffffffffffffffffffffff1663b9174c4c612e9384866143d090919063ffffffff16565b6040518263ffffffff1660e01b815260040180828152602001915050600060405180830381600087803b158015612ec957600080fd5b505af1158015612edd573d6000803e3d6000fd5b50505050600360009054906101000a900473ffffffffffffffffffffffffffffffffffffffff1673ffffffffffffffffffffffffffffffffffffffff16639f6c37d6612f3283866143d090919063ffffffff16565b6040518263ffffffff1660e01b815260040180828152602001915050600060405180830381600087803b158015612f6857600080fd5b505af1158015612f7c573d6000803e3d6000fd5b50505050600160009054906101000a900473ffffffffffffffffffffffffffffffffffffffff1673ffffffffffffffffffffffffffffffffffffffff16631dece9fd612fd184846143d090919063ffffffff16565b6040518263ffffffff1660e01b815260040180828152602001915050600060405180830381600087803b15801561300757600080fd5b505af115801561301b573d6000803e3d6000fd5b50505050600360009054906101000a900473ffffffffffffffffffffffffffffffffffffffff1673ffffffffffffffffffffffffffffffffffffffff166396e1182a61307083856143d090919063ffffffff16565b6040518263ffffffff1660e01b815260040180828152602001915050600060405180830381600087803b1580156130a657600080fd5b505af11580156130ba573d6000803e3d6000fd5b5050505061346e565b600360009054906101000a900473ffffffffffffffffffffffffffffffffffffffff1673ffffffffffffffffffffffffffffffffffffffff166396e1182a670de0b6b3a764000084026040518263ffffffff1660e01b815260040180828152602001915050600060405180830381600087803b15801561314257600080fd5b505af1158015613156573d6000803e3d6000fd5b50505050600360009054906101000a900473ffffffffffffffffffffffffffffffffffffffff1673ffffffffffffffffffffffffffffffffffffffff16639f6c37d6670de0b6b3a764000083026040518263ffffffff1660e01b815260040180828152602001915050600060405180830381600087803b1580156131d957600080fd5b505af11580156131ed573d6000803e3d6000fd5b50505050600160009054906101000a900473ffffffffffffffffffffffffffffffffffffffff1673ffffffffffffffffffffffffffffffffffffffff16631dece9fd61324284866143d090919063ffffffff16565b6040518263ffffffff1660e01b815260040180828152602001915050600060405180830381600087803b15801561327857600080fd5b505af115801561328c573d6000803e3d6000fd5b50505050600260009054906101000a900473ffffffffffffffffffffffffffffffffffffffff1673ffffffffffffffffffffffffffffffffffffffff1663768ad9336132e183866143d090919063ffffffff16565b6040518263ffffffff1660e01b815260040180828152602001915050600060405180830381600087803b15801561331757600080fd5b505af115801561332b573d6000803e3d6000fd5b50505050600160009054906101000a900473ffffffffffffffffffffffffffffffffffffffff1673ffffffffffffffffffffffffffffffffffffffff1663b9174c4c61338084846143d090919063ffffffff16565b6040518263ffffffff1660e01b815260040180828152602001915050600060405180830381600087803b1580156133b657600080fd5b505af11580156133ca573d6000803e3d6000fd5b50505050600260009054906101000a900473ffffffffffffffffffffffffffffffffffffffff1673ffffffffffffffffffffffffffffffffffffffff166378914dff61341f83856143d090919063ffffffff16565b6040518263ffffffff1660e01b815260040180828152602001915050600060405180830381600087803b15801561345557600080fd5b505af1158015613469573d6000803e3d6000fd5b505050505b5b50505050565b6000600260009054906101000a900473ffffffffffffffffffffffffffffffffffffffff1673ffffffffffffffffffffffffffffffffffffffff166370a08231306040518263ffffffff1660e01b8152600401808273ffffffffffffffffffffffffffffffffffffffff1673ffffffffffffffffffffffffffffffffffffffff16815260200191505060206040518083038186803b15801561351657600080fd5b505afa15801561352a573d6000803e3d6000fd5b505050506040513d602081101561354057600080fd5b8101908080519060200190929190505050905090565b6000600160009054906101000a900473ffffffffffffffffffffffffffffffffffffffff1673ffffffffffffffffffffffffffffffffffffffff1663b99152d0336040518263ffffffff1660e01b8152600401808273ffffffffffffffffffffffffffffffffffffffff1673ffffffffffffffffffffffffffffffffffffffff16815260200191505060206040518083038186803b1580156135f757600080fd5b505afa15801561360b573d6000803e3d6000fd5b505050506040513d602081101561362157600080fd5b8101908080519060200190929190505050905090565b6000600260009054906101000a900473ffffffffffffffffffffffffffffffffffffffff1673ffffffffffffffffffffffffffffffffffffffff1663b99152d0336040518263ffffffff1660e01b8152600401808273ffffffffffffffffffffffffffffffffffffffff1673ffffffffffffffffffffffffffffffffffffffff16815260200191505060206040518083038186803b1580156136d857600080fd5b505afa1580156136ec573d6000803e3d6000fd5b505050506040513d602081101561370257600080fd5b8101908080519060200190929190505050905090565b6000806000905060008090505b600854821015613d0057600a600083815260200190815260200160002060050160009054906101000a900460ff16613cf357600090505b600954811015613cf257600b600082815260200190815260200160002060050160009054906101000a900460ff16613ce557600b600082815260200190815260200160002060030160405180828054600181600116156101000203166002900480156137ff5780601f106137dd5761010080835404028352918201916137ff565b820191906000526020600020905b8154815290600101906020018083116137eb575b50509150506040518091039020600a6000848152602001908152602001600020600101604051808280546001816001161561010002031660029004801561387d5780601f1061385b57610100808354040283529182019161387d565b820191906000526020600020905b815481529060010190602001808311613869575b505091505060405180910390201480156139905750600b600082815260200190815260200160002060010160405180828054600181600116156101000203166002900480156139035780601f106138e1576101008083540402835291820191613903565b820191906000526020600020905b8154815290600101906020018083116138ef575b50509150506040518091039020600a600084815260200190815260200160002060030160405180828054600181600116156101000203166002900480156139815780601f1061395f576101008083540402835291820191613981565b820191906000526020600020905b81548152906001019060200180831161396d575b50509150506040518091039020145b15613ce457600b600082815260200190815260200160002060020154600a600084815260200190815260200160002060040154101580156139fd5750600b600082815260200190815260200160002060040154600a60008481526020019081526020016000206002015411155b15613ce357613b3e600a600084815260200190815260200160002060000160009054906101000a900473ffffffffffffffffffffffffffffffffffffffff16600b600084815260200190815260200160002060000160009054906101000a900473ffffffffffffffffffffffffffffffffffffffff16600a600086815260200190815260200160002060040154600a60008781526020019081526020016000206003018054600181600116156101000203166002900480601f016020809104026020016040519081016040528092919081815260200182805460018160011615610100020316600290048015613b345780601f10613b0957610100808354040283529160200191613b34565b820191906000526020600020905b815481529060010190602001808311613b1757829003601f168201915b5050505050611cd9565b613c7a600b600083815260200190815260200160002060000160009054906101000a900473ffffffffffffffffffffffffffffffffffffffff16600a600085815260200190815260200160002060000160009054906101000a900473ffffffffffffffffffffffffffffffffffffffff16600b600085815260200190815260200160002060040154600b60008681526020019081526020016000206003018054600181600116156101000203166002900480601f016020809104026020016040519081016040528092919081815260200182805460018160011615610100020316600290048015613c705780601f10613c4557610100808354040283529160200191613c70565b820191906000526020600020905b815481529060010190602001808311613c5357829003601f168201915b5050505050611cd9565b6001600a600084815260200190815260200160002060050160006101000a81548160ff0219169083151502179055506001600b600083815260200190815260200160002060050160006101000a81548160ff021916908315150217905550600192505050613d07565b5b5b808060010191505061375c565b5b8180600101925050613725565b6000925050505b90565b613d126143ee565b6040518060c001604052803373ffffffffffffffffffffffffffffffffffffffff1681526020018781526020018681526020018581526020018481526020016000151581525090506000821415613e485780600b6000600954815260200190815260200160002060008201518160000160006101000a81548173ffffffffffffffffffffffffffffffffffffffff021916908373ffffffffffffffffffffffffffffffffffffffff1602179055506020820151816001019080519060200190613ddc9291906144bc565b50604082015181600201556060820151816003019080519060200190613e039291906144bc565b506080820151816004015560a08201518160050160006101000a81548160ff021916908315150217905550905050600960008154809291906001019190505550613f29565b80600a6000600854815260200190815260200160002060008201518160000160006101000a81548173ffffffffffffffffffffffffffffffffffffffff021916908373ffffffffffffffffffffffffffffffffffffffff1602179055506020820151816001019080519060200190613ec19291906144bc565b50604082015181600201556060820151816003019080519060200190613ee89291906144bc565b506080820151816004015560a08201518160050160006101000a81548160ff0219169083151502179055509050506008600081548092919060010191905055505b6000613f33613718565b90507fd649d7405b60e3bb5e4ba9bea0e77d66e586bc6672032dffe758a34eff9cd58481604051808215151515815260200191505060405180910390a150505050505050565b6000606060006060600080613f8c6143ee565b600a6000600c5481526020019081526020016000206040518060c00160405290816000820160009054906101000a900473ffffffffffffffffffffffffffffffffffffffff1673ffffffffffffffffffffffffffffffffffffffff1673ffffffffffffffffffffffffffffffffffffffff168152602001600182018054600181600116156101000203166002900480601f01602080910402602001604051908101604052809291908181526020018280546001816001161561010002031660029004801561409b5780601f106140705761010080835404028352916020019161409b565b820191906000526020600020905b81548152906001019060200180831161407e57829003601f168201915b5050505050815260200160028201548152602001600382018054600181600116156101000203166002900480601f0160208091040260200160405190810160405280929190818152602001828054600181600116156101000203166002900480156141475780601f1061411c57610100808354040283529160200191614147565b820191906000526020600020905b81548152906001019060200180831161412a57829003601f168201915b50505050508152602001600482015481526020016005820160009054906101000a900460ff161515151581525050905061417f6116f3565b600c5410156141be57806000015181602001518260400151836060015184608001518560a00151849450829250965096509650965096509650506141f8565b6000600c81905550806000015181602001518260400151836060015184608001518560a00151849450829250965096509650965096509650505b909192939495565b600080600360009054906101000a900473ffffffffffffffffffffffffffffffffffffffff1673ffffffffffffffffffffffffffffffffffffffff16636d69fc4a6040518163ffffffff1660e01b8152600401602060405180830381600087803b15801561426d57600080fd5b505af1158015614281573d6000803e3d6000fd5b505050506040513d602081101561429757600080fd5b8101908080519060200190929190505050600360009054906101000a900473ffffffffffffffffffffffffffffffffffffffff1673ffffffffffffffffffffffffffffffffffffffff16631275c38b6040518163ffffffff1660e01b8152600401602060405180830381600087803b15801561431257600080fd5b505af1158015614326573d6000803e3d6000fd5b505050506040513d602081101561433c57600080fd5b8101908080519060200190929190505050915091509091565b600081423344604051602001808481526020018373ffffffffffffffffffffffffffffffffffffffff1673ffffffffffffffffffffffffffffffffffffffff1660601b815260140182815260200193505050506040516020818303038152906040528051906020012060001c816143c857fe5b069050919050565b600081670de0b6b3a76400008402816143e557fe5b04905092915050565b6040518060c00160405280600073ffffffffffffffffffffffffffffffffffffffff168152602001606081526020016000815260200160608152602001600081526020016000151581525090565b828054600181600116156101000203166002900490600052602060002090601f016020900481019282601f1061447d57805160ff19168380011785556144ab565b828001600101855582156144ab579182015b828111156144aa57825182559160200191906001019061448f565b5b5090506144b8919061453c565b5090565b828054600181600116156101000203166002900490600052602060002090601f016020900481019282601f106144fd57805160ff191683800117855561452b565b8280016001018555821561452b579182015b8281111561452a57825182559160200191906001019061450f565b5b509050614538919061453c565b5090565b61455e91905b8082111561455a576000816000905550600101614542565b5090565b9056fea265627a7a72315820cbb5db58c37092c05e70da1e3d88aeb824db41869fd7de4e3d8b77cb786cc86c64736f6c63430005100032",
  "source": "//SPDX-License-Identifier: GPL-3.0\npragma solidity >=0.5.0 <0.9.0;\n\nimport \"./Token.sol\";\nimport \"./Token2.sol\";\nimport \"./Token3.sol\";\nimport \"./SafeMath.sol\";\n\n\ncontract EthSwap\n{\n    using SafeMath for uint256;\n    string public name = \"EthSwap Instant Exchange\";\n    Token public ucana;\n    Token2 public ucanu;\n    Token3 public ucane;\n    uint256 constant WAD = 10**18;\n    uint rangeLimit = 10;\n    address public owner;\n    string public pivoName = \"\";\n    bool isFirstOrderPlaced = true;\n\n    struct Order {\n        address owner;\n        string targetTokenName;\n        uint quantTokensTarget;\n        string offeredTokenName;\n        uint quantTokensOffered;\n        bool isCompleted;\n    }\n    uint sizeBuyOrders = 0;\n    uint sizeSellOrders = 0;\n    mapping(uint => Order) public buyOrders;\n    mapping(uint => Order) public sellOrders;\n    uint indexOfBuyOrdersToShow = 0;\n    uint indexOfSellOrdersToShow = 0;\n\n    event placeOrderEvent(bool matchResult);\n\n    constructor(Token _token, Token2 _ucanu, Token3 _ucane) public\n    {\n        ucana = _token;\n        ucanu = _ucanu;\n        ucane = _ucane;\n        owner = msg.sender;\n    }\n\n\n    function placeOrder(string memory _targetTokenName, uint _quantTokensTarget, string memory _offeredTokenName, uint _quantTokensOffered, uint _orderType) public {\n        Order memory newOrder = Order(msg.sender, _targetTokenName, _quantTokensTarget, _offeredTokenName, _quantTokensOffered, false);\n\n        if (_orderType == 0) {\n            sellOrders[sizeSellOrders] = newOrder;\n            sizeSellOrders++;\n        } else {\n            buyOrders[sizeBuyOrders] = newOrder;\n            sizeBuyOrders++;\n        }\n\n        bool matchResult = checkMatches();\n        emit placeOrderEvent(matchResult);\n    }\n\n    function checkMatches() public returns (bool) {\n        uint i = 0;\n        uint j = 0;\n\n        for (; i < sizeBuyOrders; i++) {\n            if (!buyOrders[i].isCompleted) {\n                for (j = 0; j < sizeSellOrders; j++) {\n                    if (!sellOrders[j].isCompleted) {\n                        if (keccak256(bytes(buyOrders[i].targetTokenName)) == keccak256(bytes(sellOrders[j].offeredTokenName)) && keccak256(bytes(buyOrders[i].offeredTokenName)) == keccak256(bytes(sellOrders[j].targetTokenName))) {\n                            if (buyOrders[i].quantTokensOffered >= sellOrders[j].quantTokensTarget && buyOrders[i].quantTokensTarget <= sellOrders[j].quantTokensOffered) {\n                                swap(buyOrders[i].owner, sellOrders[j].owner, buyOrders[i].quantTokensOffered, buyOrders[i].offeredTokenName);\n\n                                swap(sellOrders[j].owner, buyOrders[i].owner, sellOrders[j].quantTokensOffered, sellOrders[j].offeredTokenName);\n\n                                buyOrders[i].isCompleted = true;\n                                sellOrders[j].isCompleted = true;\n\n                                return true;\n                                /*return (\"Buyer: \" + buyOrders[i].owner + \"\\nOffered Token: \" + buyOrders[i].offeredTokenName + \"\\nQuant Token: \" + buyOrders[i].quantTokensOffered + \"\\nTarget Token: \" + sellOrders[j].offeredTokenName + \"\\nQuant Token: \" + sellOrders[j].quantTokensOffered  + \"\\nSeller: \" + sellOrders[j].owner,\n                                \"Seller: \" + sellOrders[j].owner + \"\\nOffered Token: \" + sellOrders[j].offeredTokenName + \"\\nQuant Token: \" + sellOrders[j].quantTokensOffered + \"\\nTarget Token: \" + buyOrders[i].offeredTokenName + \"\\nQuant Token: \" + buyOrders[i].quantTokensOffered  + \"\\nBuyer: \" + buyOrders[i].owner\n                                );*/\n                            }\n                        }\n                    }\n                }\n            }\n        }\n        return false;\n    }\n\n    function swap(address _from, address _to, uint256 amount, string memory tokenName) public payable {\n        if (keccak256(bytes(tokenName)) == keccak256(\"UCANA\")) {\n            require(ucana.balanceOf(_from) >= amount * WAD, \"Not enough01 Ether provided.\");\n\n            ucana.transferFrom(_from, _to, amount * WAD);\n        } else if (keccak256(bytes(tokenName)) == keccak256(\"UCANU\")) {\n            require(ucanu.balanceOf(_from) >= amount * WAD, \"Not enough02 Ether provided.\");\n\n            ucanu.transferFrom(_from, _to, amount * WAD);\n        } else if (keccak256(bytes(tokenName)) == keccak256(\"UCANE\")) {\n            require(ucane.balanceOf(_from) >= amount * WAD, \"Not enough03 Ether provided.\");\n\n            ucane.transferFrom(_from, _to, amount * WAD);\n        }\n    }\n\n    function getIdPivo() public returns (string memory) {\n        return pivoName;\n    }\n\n    function random(uint mod) internal returns (uint) {\n        return uint(keccak256(abi.encodePacked(block.timestamp, msg.sender, block.difficulty))) % mod;\n    }\n\n    function getBalanceOfToken1() public returns (uint256) {\n        return ucana.balanceOfToken(msg.sender);\n    }\n\n    function getBalanceOfToken2() public returns (uint256) {\n        return ucanu.balanceOfToken(msg.sender);\n    }\n\n    function getBalanceOfToken3() public returns (uint256) {\n        return ucane.balanceOfToken(msg.sender);\n    }\n\n\n    function getRelationOfToken1() public returns (uint256, uint256) {\n        return (ucana.getUmToken1EquivaleQuantosToken2(), ucana.getUmToken1EquivaleQuantosToken3());\n    }\n\n    function getRelationOfToken2() public returns (uint256, uint256) {\n        return (ucanu.getUmToken2EquivaleQuantosToken1(), ucanu.getUmToken2EquivaleQuantosToken3());\n    }\n\n    function getRelationOfToken3() public returns (uint256, uint256) {\n        return (ucane.getUmToken3EquivaleQuantosToken1(), ucane.getUmToken3EquivaleQuantosToken2());\n    }\n\n    function sortInitialPivo() public {\n        int totalUcana = int(this.getTotalValorNaBolsaUCANA()); // M1\n        int totalUcane = int(this.getTotalValorNaBolsaUCANE()); // M2\n        int totalUcanu = int(this.getTotalValorNaBolsaUCANU()); // M3\n\n        if (totalUcana < totalUcane && totalUcana < totalUcanu) {\n            pivoName = \"UCANA\";\n        }\n        else if (totalUcane <= totalUcanu) {\n            pivoName = \"UCANE\";\n        }\n        else {\n            pivoName = \"UCANU\";\n        }\n        setNewPivo(pivoName);\n    }\n\n\n    function setNewPivo(string memory pivo) public {\n        uint256 const = 1;\n        uint256 equivalencia1 = random(rangeLimit) + 2;\n        uint256 equivalencia2 = equivalencia1 + 2;\n\n        if (keccak256(bytes(pivo)) == keccak256(\"UCANA\")) {\n            ucana.setUmToken1EquivaleQuantosToken2(equivalencia1 * WAD);\n            ucana.setUmToken1EquivaleQuantosToken3(equivalencia2 * WAD);\n\n            ucane.setUmToken3EquivaleQuantosToken1(const.divEly(equivalencia2));\n            ucanu.setUmToken2EquivaleQuantosToken1(const.divEly(equivalencia1));\n\n            ucanu.setUmToken2EquivaleQuantosToken3(equivalencia2.divEly(equivalencia1));\n            ucane.setUmToken3EquivaleQuantosToken2(equivalencia1.divEly(equivalencia2));\n        } else if (keccak256(bytes(pivo)) == keccak256(\"UCANU\")) {\n            ucanu.setUmToken2EquivaleQuantosToken1(equivalencia1 * WAD);\n            ucanu.setUmToken2EquivaleQuantosToken3(equivalencia2 * WAD);\n\n            ucana.setUmToken1EquivaleQuantosToken2(const.divEly(equivalencia1));\n            ucane.setUmToken3EquivaleQuantosToken2(const.divEly(equivalencia2));\n\n            ucana.setUmToken1EquivaleQuantosToken3(equivalencia2.divEly(equivalencia1));\n            ucane.setUmToken3EquivaleQuantosToken1(equivalencia1.divEly(equivalencia2));\n        } else {\n            ucane.setUmToken3EquivaleQuantosToken1(equivalencia1 * WAD);\n            ucane.setUmToken3EquivaleQuantosToken2(equivalencia2 * WAD);\n\n            ucana.setUmToken1EquivaleQuantosToken3(const.divEly(equivalencia1));\n            ucanu.setUmToken2EquivaleQuantosToken3(const.divEly(equivalencia2));\n\n            ucana.setUmToken1EquivaleQuantosToken2(equivalencia2.divEly(equivalencia1));\n            ucanu.setUmToken2EquivaleQuantosToken1(equivalencia1.divEly(equivalencia2));\n        }\n    }\n\n    function getTotalValorNaBolsaUCANA() public returns (uint256)\n    {\n        return  ucana.balanceOf(address(this));\n    }\n\n    function getTotalValorNaBolsaUCANU() public returns (uint256)\n    {\n        return  ucanu.balanceOf(address(this));\n    }\n    function getTotalValorNaBolsaUCANE() public returns (uint256)\n    {\n        return  ucane.balanceOf(address(this));\n    }\n\n    function getBuyOrders() public returns (address owner, string memory targetTokenName, uint quantTokensTarget, string memory offeredTokenName, uint quantTokensOffered, bool isCompleted) {\n        Order memory orderSelected = buyOrders[indexOfBuyOrdersToShow];\n\n\n        if (indexOfBuyOrdersToShow < getBuyOrdersSize()) {\n            return (orderSelected.owner, orderSelected.targetTokenName, orderSelected.quantTokensTarget, orderSelected.offeredTokenName, orderSelected.quantTokensOffered, orderSelected.isCompleted);\n        }\n        indexOfBuyOrdersToShow = 0;\n        return (orderSelected.owner, orderSelected.targetTokenName, orderSelected.quantTokensTarget, orderSelected.offeredTokenName, orderSelected.quantTokensOffered, orderSelected.isCompleted);\n    }\n\n    function getSellOrders() public returns (address owner, string memory targetTokenName, uint quantTokensTarget, string memory offeredTokenName, uint quantTokensOffered, bool isCompleted) {\n        Order memory orderSelected = buyOrders[indexOfSellOrdersToShow];\n\n\n        if (indexOfSellOrdersToShow < getSellOrdersSize()) {\n            return (orderSelected.owner, orderSelected.targetTokenName, orderSelected.quantTokensTarget, orderSelected.offeredTokenName, orderSelected.quantTokensOffered, orderSelected.isCompleted);\n        }\n        indexOfSellOrdersToShow = 0;\n        return (orderSelected.owner, orderSelected.targetTokenName, orderSelected.quantTokensTarget, orderSelected.offeredTokenName, orderSelected.quantTokensOffered, orderSelected.isCompleted);\n    }\n\n\n    function getBuyOrdersSize() public returns (uint) {\n        return sizeSellOrders;\n    }\n\n    function getSellOrdersSize() public returns (uint) {\n        return sizeSellOrders;\n    }\n}",
  "sourcePath": "/home/ed/Downloads/EXCHANGE/ExechAux/src/contracts/EthSwap.sol",
  "compiler": {
    "name": "solc",
    "version": "0.5.16+commit.9c3226ce.Emscripten.clang"
  },
  "schemaVersion": "3.4.1",
  "updatedAt": "2021-07-16T14:58:30.296Z",
  "networkType": "ethereum",
  "devdoc": {
    "methods": {}
  },
  "userdoc": {
    "methods": {}
  }
}